{
  "_format": "hh-sol-artifact-1",
  "contractName": "Router",
  "sourceName": "contracts/dex/Router.sol",
  "abi": [
    {
      "inputs": [
        {
          "internalType": "address",
          "name": "_factory",
          "type": "address"
        }
      ],
      "stateMutability": "nonpayable",
      "type": "constructor"
    },
    {
      "inputs": [],
      "name": "EnforcedPause",
      "type": "error"
    },
    {
      "inputs": [],
      "name": "ExpectedPause",
      "type": "error"
    },
    {
      "inputs": [
        {
          "internalType": "address",
          "name": "owner",
          "type": "address"
        }
      ],
      "name": "OwnableInvalidOwner",
      "type": "error"
    },
    {
      "inputs": [
        {
          "internalType": "address",
          "name": "account",
          "type": "address"
        }
      ],
      "name": "OwnableUnauthorizedAccount",
      "type": "error"
    },
    {
      "inputs": [],
      "name": "ReentrancyGuardReentrantCall",
      "type": "error"
    },
    {
      "anonymous": false,
      "inputs": [
        {
          "indexed": true,
          "internalType": "address",
          "name": "user",
          "type": "address"
        },
        {
          "indexed": true,
          "internalType": "address",
          "name": "pool",
          "type": "address"
        },
        {
          "indexed": false,
          "internalType": "uint256",
          "name": "amountA",
          "type": "uint256"
        },
        {
          "indexed": false,
          "internalType": "uint256",
          "name": "amountB",
          "type": "uint256"
        },
        {
          "indexed": false,
          "internalType": "uint256",
          "name": "shares",
          "type": "uint256"
        }
      ],
      "name": "AddLiquidity",
      "type": "event"
    },
    {
      "anonymous": false,
      "inputs": [
        {
          "indexed": true,
          "internalType": "address",
          "name": "previousOwner",
          "type": "address"
        },
        {
          "indexed": true,
          "internalType": "address",
          "name": "newOwner",
          "type": "address"
        }
      ],
      "name": "OwnershipTransferred",
      "type": "event"
    },
    {
      "anonymous": false,
      "inputs": [
        {
          "indexed": false,
          "internalType": "address",
          "name": "account",
          "type": "address"
        }
      ],
      "name": "Paused",
      "type": "event"
    },
    {
      "anonymous": false,
      "inputs": [
        {
          "indexed": true,
          "internalType": "address",
          "name": "user",
          "type": "address"
        },
        {
          "indexed": true,
          "internalType": "address",
          "name": "pool",
          "type": "address"
        },
        {
          "indexed": false,
          "internalType": "address",
          "name": "tokenIn",
          "type": "address"
        },
        {
          "indexed": false,
          "internalType": "uint256",
          "name": "amountIn",
          "type": "uint256"
        },
        {
          "indexed": false,
          "internalType": "address",
          "name": "tokenOut",
          "type": "address"
        },
        {
          "indexed": false,
          "internalType": "uint256",
          "name": "amountOut",
          "type": "uint256"
        }
      ],
      "name": "Swap",
      "type": "event"
    },
    {
      "anonymous": false,
      "inputs": [
        {
          "indexed": false,
          "internalType": "address",
          "name": "account",
          "type": "address"
        }
      ],
      "name": "Unpaused",
      "type": "event"
    },
    {
      "inputs": [
        {
          "internalType": "address",
          "name": "tokenA",
          "type": "address"
        },
        {
          "internalType": "address",
          "name": "tokenB",
          "type": "address"
        },
        {
          "internalType": "bool",
          "name": "isStable",
          "type": "bool"
        },
        {
          "internalType": "uint256",
          "name": "amountADesired",
          "type": "uint256"
        },
        {
          "internalType": "uint256",
          "name": "amountBDesired",
          "type": "uint256"
        },
        {
          "internalType": "uint256",
          "name": "",
          "type": "uint256"
        },
        {
          "internalType": "uint256",
          "name": "",
          "type": "uint256"
        },
        {
          "internalType": "address",
          "name": "to",
          "type": "address"
        },
        {
          "internalType": "uint256",
          "name": "deadline",
          "type": "uint256"
        }
      ],
      "name": "addLiquidity",
      "outputs": [
        {
          "internalType": "uint256",
          "name": "shares",
          "type": "uint256"
        }
      ],
      "stateMutability": "nonpayable",
      "type": "function"
    },
    {
      "inputs": [],
      "name": "factory",
      "outputs": [
        {
          "internalType": "address",
          "name": "",
          "type": "address"
        }
      ],
      "stateMutability": "view",
      "type": "function"
    },
    {
      "inputs": [],
      "name": "owner",
      "outputs": [
        {
          "internalType": "address",
          "name": "",
          "type": "address"
        }
      ],
      "stateMutability": "view",
      "type": "function"
    },
    {
      "inputs": [],
      "name": "pause",
      "outputs": [],
      "stateMutability": "nonpayable",
      "type": "function"
    },
    {
      "inputs": [],
      "name": "paused",
      "outputs": [
        {
          "internalType": "bool",
          "name": "",
          "type": "bool"
        }
      ],
      "stateMutability": "view",
      "type": "function"
    },
    {
      "inputs": [],
      "name": "renounceOwnership",
      "outputs": [],
      "stateMutability": "nonpayable",
      "type": "function"
    },
    {
      "inputs": [
        {
          "internalType": "uint256",
          "name": "amountIn",
          "type": "uint256"
        },
        {
          "internalType": "uint256",
          "name": "amountOutMin",
          "type": "uint256"
        },
        {
          "internalType": "address[]",
          "name": "path",
          "type": "address[]"
        },
        {
          "internalType": "address",
          "name": "to",
          "type": "address"
        },
        {
          "internalType": "uint256",
          "name": "deadline",
          "type": "uint256"
        }
      ],
      "name": "swapExactTokensForTokens",
      "outputs": [
        {
          "internalType": "uint256[]",
          "name": "amounts",
          "type": "uint256[]"
        }
      ],
      "stateMutability": "nonpayable",
      "type": "function"
    },
    {
      "inputs": [
        {
          "internalType": "address",
          "name": "newOwner",
          "type": "address"
        }
      ],
      "name": "transferOwnership",
      "outputs": [],
      "stateMutability": "nonpayable",
      "type": "function"
    },
    {
      "inputs": [],
      "name": "unpause",
      "outputs": [],
      "stateMutability": "nonpayable",
      "type": "function"
    }
  ],
  "bytecode": "0x60803461010b57601f6110d238819003918201601f19168301916001600160401b0383118484101761010f5780849260209460405283398101031261010b57516001600160a01b0381169081900361010b5760017f9b779b17422d0df92223018b32b4d1fa46e071723d6817e2486d003becc55f005533156100f8575f8054610100600160a81b0319811633600881811b610100600160a81b03169290921784556040519493909290911c6001600160a01b0316907f8be0079c531659141344cd1fd0a4f28419497f9722a3daafe3b4186f6b6457e09080a3600180546001600160a01b031916919091179055610fae90816101248239f35b631e4fbdf760e01b5f525f60045260245ffd5b5f80fd5b634e487b7160e01b5f52604160045260245ffdfe60806040526004361015610011575f80fd5b5f3560e01c806338ed1739146108435780633f4ba83a146107b05780635a47ddc31461026e5780635c975abb1461024d578063715018a6146101f25780638456cb591461016c5780638da5cb5b14610141578063c45a0155146101195763f2fde38b1461007c575f80fd5b3461011557602036600319011261011557610095610d66565b61009d610f2f565b6001600160a01b038116908115610102575f8054610100600160a81b03198116600893841b610100600160a81b031617825590911c6001600160a01b0316907f8be0079c531659141344cd1fd0a4f28419497f9722a3daafe3b4186f6b6457e09080a3005b631e4fbdf760e01b5f525f60045260245ffd5b5f80fd5b34610115575f366003190112610115576001546040516001600160a01b039091168152602090f35b34610115575f366003190112610115575f5460405160089190911c6001600160a01b03168152602090f35b34610115575f366003190112610115576001546001600160a01b0316331480156101d9575b61019a90610ea2565b6101a2610f15565b600160ff195f5416175f557f62e78cea01bee320cd4e420270b5ea74000d11b0c9f74754ebdbfc544b05a2586020604051338152a1005b505f543360089190911c6001600160a01b031614610191565b34610115575f3660031901126101155761020a610f2f565b5f8054610100600160a81b03198116825560081c6001600160a01b03167f8be0079c531659141344cd1fd0a4f28419497f9722a3daafe3b4186f6b6457e08280a3005b34610115575f36600319011261011557602060ff5f54166040519015158152f35b346101155761012036600319011261011557610288610d66565b6024356001600160a01b03811690819003610115576044359182151580930361011557606435906084359260e4359460018060a01b038616809603610115576102cf610edd565b6102d7610f15565b6102e642610104351015610d7c565b6001546040516379bc57d560e01b81526001600160a01b0394851660048201819052602482018590526044820184905290949092911690602085606481855afa94851561051c575f9561078f575b506001600160a01b03851615610713575b50506040516323b872dd60e01b8152336004820152306024820152604481018590526020816064815f865af190811561051c575f916106f4575b501561069a576040516323b872dd60e01b8152336004820152306024820152604481018690526020816064815f875af190811561051c575f9161067b575b50156106215760405163a9059cbb60e01b81526001600160a01b03841660048201526024810185905290602090829060449082905f905af190811561051c575f91610602575b50156105ac5760405163a9059cbb60e01b81526001600160a01b03831660048201526024810185905290602090829060449082905f905af190811561051c575f9161057d575b5015610527576040516321ec87bf60e21b8152600481018390526024810184905260448101949094526001600160a01b0316906020846064815f865af192831561051c575f936104e7575b60209450604051918252848201528260408201527f2f3289d16dbc3007471d28c4936df3a95222bc938112449400d049637e3309ce60603392a360015f516020610f595f395f51905f5255604051908152f35b92506020843d602011610514575b8161050260209383610dce565b81010312610115576020935192610494565b3d91506104f5565b6040513d5f823e3d90fd5b60405162461bcd60e51b815260206004820152602860248201527f526f757465723a20666f7277617264696e6720746f6b656e4220746f20706f6f6044820152671b0819985a5b195960c21b6064820152608490fd5b61059f915060203d6020116105a5575b6105978183610dce565b810190610e33565b85610449565b503d61058d565b60405162461bcd60e51b815260206004820152602860248201527f526f757465723a20666f7277617264696e6720746f6b656e4120746f20706f6f6044820152671b0819985a5b195960c21b6064820152608490fd5b61061b915060203d6020116105a5576105978183610dce565b86610403565b60405162461bcd60e51b815260206004820152602c60248201527f526f757465723a20746f6b656e42207472616e7366657246726f6d20746f207260448201526b1bdd5d195c8819985a5b195960a21b6064820152608490fd5b610694915060203d6020116105a5576105978183610dce565b876103bd565b60405162461bcd60e51b815260206004820152602c60248201527f526f757465723a20746f6b656e41207472616e7366657246726f6d20746f207260448201526b1bdd5d195c8819985a5b195960a21b6064820152608490fd5b61070d915060203d6020116105a5576105978183610dce565b8761037f565b5f92945090608460209260405194859384926378a95b4d60e01b84528960048501528860248501526044840152601960648401525af190811561051c575f91610760575b50918680610345565b610782915060203d602011610788575b61077a8183610dce565b810190610e04565b86610757565b503d610770565b6107a991955060203d6020116107885761077a8183610dce565b9388610334565b34610115575f366003190112610115576001546001600160a01b03163314801561082a575b6107de90610ea2565b5f5460ff81161561081b5760ff19165f557f5db9ee0a495bf2e6ff9c91a7834c1ba4fdd244a5e8aa4e537bd38aeae4b073aa6020604051338152a1005b638dfc202b60e01b5f5260045ffd5b505f543360089190911c6001600160a01b0316146107d5565b346101155760a03660031901126101155760243560443560043567ffffffffffffffff821161011557366023830112156101155781600401359267ffffffffffffffff8411610115573660248560051b85010111610115576064356001600160a01b0381169290839003610115576108b9610edd565b6108c1610f15565b6108cf426084351015610d7c565b60028503610d17578415610ca4576108e960248501610dba565b9460011015610ca457610900604460649501610dba565b6001546040516379bc57d560e01b81526001600160a01b0397881660048201819052928816602482018190525f604483015297909660209288928391165afa94851561051c575f95610cf6575b506001600160a01b038516918215610cb8576040519661096e606089610dce565b6002885260208801966040368937885115610ca4578288526040516323b872dd60e01b8152336004820152306024820152604481018490526020816064815f895af190811561051c575f91610c85575b5015610c405760405163a9059cbb60e01b81526001600160a01b03919091166004820152602481018390526020816044815f885af190811561051c575f91610c21575b5015610be357604051916378a051ad60e11b8352806004840152836024840152602083604481885afa92831561051c575f93610baf575b508215610b6a57610a4b86841015610e4b565b82610a558a610e23565b526040519663038042df60e51b885281600489015284602489015260448801528560648801526020876084815f895af1801561051c57610b37575b610ae496506040989798519384526020840152604083015260608201527f6ac6c02c73a1841cb185dff1fe5282ff4499ce709efd387f7fc6de10a512432060803392a3610adc83610e23565b511015610e4b565b60015f516020610f595f395f51905f5255604051918291602083019060208452518091526040830191905f5b818110610b1e575050500390f35b8251845285945060209384019390920191600101610b10565b6020873d602011610b62575b81610b5060209383610dce565b8101031261011557610ae49650610a90565b3d9150610b43565b60405162461bcd60e51b815260206004820152601760248201527f526f757465723a205a45524f5f414d4f554e545f4f55540000000000000000006044820152606490fd5b9092506020813d602011610bdb575b81610bcb60209383610dce565b8101031261011557519189610a38565b3d9150610bbe565b60405162461bcd60e51b8152602060048201526016602482015275149bdd5d195c8e88199bdc9dd85c990819985a5b195960521b6044820152606490fd5b610c3a915060203d6020116105a5576105978183610dce565b89610a01565b60405162461bcd60e51b815260206004820152601b60248201527f526f757465723a207472616e7366657246726f6d206661696c656400000000006044820152606490fd5b610c9e915060203d6020116105a5576105978183610dce565b8a6109be565b634e487b7160e01b5f52603260045260245ffd5b60405162461bcd60e51b8152602060048201526016602482015275149bdd5d195c8e881413d3d317d393d517d193d5539160521b6044820152606490fd5b610d1091955060203d6020116107885761077a8183610dce565b938661094d565b60405162461bcd60e51b815260206004820152602160248201527f526f757465723a206f6e6c792073696e676c652d686f7020737570706f7274656044820152601960fa1b6064820152608490fd5b600435906001600160a01b038216820361011557565b15610d8357565b60405162461bcd60e51b815260206004820152600f60248201526e149bdd5d195c8e8811561412549151608a1b6044820152606490fd5b356001600160a01b03811681036101155790565b90601f8019910116810190811067ffffffffffffffff821117610df057604052565b634e487b7160e01b5f52604160045260245ffd5b9081602091031261011557516001600160a01b03811681036101155790565b805160011015610ca45760400190565b90816020910312610115575180151581036101155790565b15610e5257565b60405162461bcd60e51b815260206004820152602260248201527f526f757465723a20494e53554646494349454e545f4f55545055545f414d4f55604482015261139560f21b6064820152608490fd5b15610ea957565b60405162461bcd60e51b815260206004820152600c60248201526b155b985d5d1a1bdc9a5e995960a21b6044820152606490fd5b60025f516020610f595f395f51905f525414610f065760025f516020610f595f395f51905f5255565b633ee5aeb560e01b5f5260045ffd5b60ff5f5416610f2057565b63d93c066560e01b5f5260045ffd5b5f5460081c6001600160a01b03163303610f4557565b63118cdaa760e01b5f523360045260245ffdfe9b779b17422d0df92223018b32b4d1fa46e071723d6817e2486d003becc55f00a2646970667358221220e030449df203523cba24536038bec2d43687ea6e5818b08c8ce747750d973e3b64736f6c634300081e0033",
  "linkReferences": {},
  "deployedLinkReferences": {}
}