{
  "_format": "hh-sol-artifact-1",
  "contractName": "YieldFarm",
  "sourceName": "contracts/modules/yieldFarming/YieldFarm.sol",
  "abi": [
    {
      "inputs": [
        {
          "internalType": "address",
          "name": "_alpToken",
          "type": "address"
        },
        {
          "internalType": "address",
          "name": "_rewardToken",
          "type": "address"
        },
        {
          "internalType": "uint256",
          "name": "_rewardRatePerDay",
          "type": "uint256"
        },
        {
          "internalType": "address",
          "name": "_owner",
          "type": "address"
        }
      ],
      "stateMutability": "nonpayable",
      "type": "constructor"
    },
    {
      "inputs": [],
      "name": "EnforcedPause",
      "type": "error"
    },
    {
      "inputs": [],
      "name": "ExpectedPause",
      "type": "error"
    },
    {
      "inputs": [
        {
          "internalType": "address",
          "name": "owner",
          "type": "address"
        }
      ],
      "name": "OwnableInvalidOwner",
      "type": "error"
    },
    {
      "inputs": [
        {
          "internalType": "address",
          "name": "account",
          "type": "address"
        }
      ],
      "name": "OwnableUnauthorizedAccount",
      "type": "error"
    },
    {
      "inputs": [],
      "name": "ReentrancyGuardReentrantCall",
      "type": "error"
    },
    {
      "anonymous": false,
      "inputs": [
        {
          "indexed": true,
          "internalType": "address",
          "name": "user",
          "type": "address"
        },
        {
          "indexed": false,
          "internalType": "uint256",
          "name": "alpAmount",
          "type": "uint256"
        }
      ],
      "name": "Deposited",
      "type": "event"
    },
    {
      "anonymous": false,
      "inputs": [
        {
          "indexed": false,
          "internalType": "uint256",
          "name": "amount",
          "type": "uint256"
        }
      ],
      "name": "FarmFunded",
      "type": "event"
    },
    {
      "anonymous": false,
      "inputs": [
        {
          "indexed": false,
          "internalType": "uint256",
          "name": "newRatePerSecond",
          "type": "uint256"
        }
      ],
      "name": "FarmRateUpdated",
      "type": "event"
    },
    {
      "anonymous": false,
      "inputs": [
        {
          "indexed": true,
          "internalType": "address",
          "name": "user",
          "type": "address"
        },
        {
          "indexed": false,
          "internalType": "uint256",
          "name": "reward",
          "type": "uint256"
        }
      ],
      "name": "Harvested",
      "type": "event"
    },
    {
      "anonymous": false,
      "inputs": [
        {
          "indexed": true,
          "internalType": "address",
          "name": "previousOwner",
          "type": "address"
        },
        {
          "indexed": true,
          "internalType": "address",
          "name": "newOwner",
          "type": "address"
        }
      ],
      "name": "OwnershipTransferred",
      "type": "event"
    },
    {
      "anonymous": false,
      "inputs": [
        {
          "indexed": false,
          "internalType": "address",
          "name": "account",
          "type": "address"
        }
      ],
      "name": "Paused",
      "type": "event"
    },
    {
      "anonymous": false,
      "inputs": [
        {
          "indexed": false,
          "internalType": "address",
          "name": "account",
          "type": "address"
        }
      ],
      "name": "Unpaused",
      "type": "event"
    },
    {
      "anonymous": false,
      "inputs": [
        {
          "indexed": true,
          "internalType": "address",
          "name": "user",
          "type": "address"
        },
        {
          "indexed": false,
          "internalType": "uint256",
          "name": "alpAmount",
          "type": "uint256"
        }
      ],
      "name": "Withdrawn",
      "type": "event"
    },
    {
      "inputs": [],
      "name": "alpToken",
      "outputs": [
        {
          "internalType": "contract IERC20",
          "name": "",
          "type": "address"
        }
      ],
      "stateMutability": "view",
      "type": "function"
    },
    {
      "inputs": [
        {
          "internalType": "uint256",
          "name": "alpAmount",
          "type": "uint256"
        }
      ],
      "name": "depositLP",
      "outputs": [],
      "stateMutability": "nonpayable",
      "type": "function"
    },
    {
      "inputs": [
        {
          "internalType": "address",
          "name": "",
          "type": "address"
        }
      ],
      "name": "farmers",
      "outputs": [
        {
          "internalType": "uint256",
          "name": "alpStaked",
          "type": "uint256"
        },
        {
          "internalType": "uint256",
          "name": "rewardPerALPPaid",
          "type": "uint256"
        },
        {
          "internalType": "uint256",
          "name": "pendingRewards",
          "type": "uint256"
        }
      ],
      "stateMutability": "view",
      "type": "function"
    },
    {
      "inputs": [
        {
          "internalType": "uint256",
          "name": "amount",
          "type": "uint256"
        }
      ],
      "name": "fundFarm",
      "outputs": [],
      "stateMutability": "nonpayable",
      "type": "function"
    },
    {
      "inputs": [
        {
          "internalType": "address",
          "name": "user",
          "type": "address"
        }
      ],
      "name": "getFarmerInfo",
      "outputs": [
        {
          "components": [
            {
              "internalType": "uint256",
              "name": "alpStaked",
              "type": "uint256"
            },
            {
              "internalType": "uint256",
              "name": "rewardPerALPPaid",
              "type": "uint256"
            },
            {
              "internalType": "uint256",
              "name": "pendingRewards",
              "type": "uint256"
            }
          ],
          "internalType": "struct YieldFarm.FarmerInfo",
          "name": "",
          "type": "tuple"
        }
      ],
      "stateMutability": "view",
      "type": "function"
    },
    {
      "inputs": [],
      "name": "harvest",
      "outputs": [],
      "stateMutability": "nonpayable",
      "type": "function"
    },
    {
      "inputs": [],
      "name": "lastUpdateTime",
      "outputs": [
        {
          "internalType": "uint256",
          "name": "",
          "type": "uint256"
        }
      ],
      "stateMutability": "view",
      "type": "function"
    },
    {
      "inputs": [],
      "name": "owner",
      "outputs": [
        {
          "internalType": "address",
          "name": "",
          "type": "address"
        }
      ],
      "stateMutability": "view",
      "type": "function"
    },
    {
      "inputs": [],
      "name": "pause",
      "outputs": [],
      "stateMutability": "nonpayable",
      "type": "function"
    },
    {
      "inputs": [],
      "name": "paused",
      "outputs": [
        {
          "internalType": "bool",
          "name": "",
          "type": "bool"
        }
      ],
      "stateMutability": "view",
      "type": "function"
    },
    {
      "inputs": [
        {
          "internalType": "address",
          "name": "user",
          "type": "address"
        }
      ],
      "name": "pendingRewards",
      "outputs": [
        {
          "internalType": "uint256",
          "name": "",
          "type": "uint256"
        }
      ],
      "stateMutability": "view",
      "type": "function"
    },
    {
      "inputs": [],
      "name": "renounceOwnership",
      "outputs": [],
      "stateMutability": "nonpayable",
      "type": "function"
    },
    {
      "inputs": [],
      "name": "rewardPerALPStored",
      "outputs": [
        {
          "internalType": "uint256",
          "name": "",
          "type": "uint256"
        }
      ],
      "stateMutability": "view",
      "type": "function"
    },
    {
      "inputs": [],
      "name": "rewardRatePerSecond",
      "outputs": [
        {
          "internalType": "uint256",
          "name": "",
          "type": "uint256"
        }
      ],
      "stateMutability": "view",
      "type": "function"
    },
    {
      "inputs": [],
      "name": "rewardToken",
      "outputs": [
        {
          "internalType": "contract IERC20",
          "name": "",
          "type": "address"
        }
      ],
      "stateMutability": "view",
      "type": "function"
    },
    {
      "inputs": [
        {
          "internalType": "uint256",
          "name": "tokenBPerDay",
          "type": "uint256"
        }
      ],
      "name": "setFarmRewardRatePerDay",
      "outputs": [],
      "stateMutability": "nonpayable",
      "type": "function"
    },
    {
      "inputs": [],
      "name": "totalALPStaked",
      "outputs": [
        {
          "internalType": "uint256",
          "name": "",
          "type": "uint256"
        }
      ],
      "stateMutability": "view",
      "type": "function"
    },
    {
      "inputs": [
        {
          "internalType": "address",
          "name": "newOwner",
          "type": "address"
        }
      ],
      "name": "transferOwnership",
      "outputs": [],
      "stateMutability": "nonpayable",
      "type": "function"
    },
    {
      "inputs": [],
      "name": "unpause",
      "outputs": [],
      "stateMutability": "nonpayable",
      "type": "function"
    },
    {
      "inputs": [
        {
          "internalType": "uint256",
          "name": "alpAmount",
          "type": "uint256"
        }
      ],
      "name": "withdrawLP",
      "outputs": [],
      "stateMutability": "nonpayable",
      "type": "function"
    }
  ],
  "bytecode": "0x60c03461015257601f610edd38819003918201601f19168301916001600160401b0383118484101761015657808492608094604052833981010312610152576100478161016a565b6100536020830161016a565b604083015190926001600160a01b039061006f9060600161016a565b1692831561013f575f80546001600160a01b03198116861782556040519562015180959290916001600160a01b0316907f8be0079c531659141344cd1fd0a4f28419497f9722a3daafe3b4186f6b6457e09080a360017f9b779b17422d0df92223018b32b4d1fa46e071723d6817e2486d003becc55f008190556001600160a01b03918216608052911660a052919004905542600255610d5e908161017f823960805181818161023b015281816103e80152610503015260a05181818161010a01528181610580015261086c0152f35b631e4fbdf760e01b5f525f60045260245ffd5b5f80fd5b634e487b7160e01b5f52604160045260245ffd5b51906001600160a01b03821682036101525756fe60806040526004361015610011575f80fd5b5f3560e01c8063069ed14314610a4357806331d7a26214610a0c5780633f4ba83a146109a0578063401b21681461094d5780634641257d146107e65780635c975abb146107c25780635d773b2c146107a5578063715018a61461074e57806373bf8ac2146106c4578063745b1439146106a7578063789b4fc91461068a5780638456cb591461062a5780638da5cb5b146106035780638ef4941d14610532578063c7ddc831146104ee578063c8f33c91146104d1578063e4456ecb14610342578063eb37acfc146101c6578063f2fde38b1461013d5763f7c618c1146100f5575f80fd5b34610139575f366003190112610139576040517f00000000000000000000000000000000000000000000000000000000000000006001600160a01b03168152602090f35b5f80fd5b34610139576020366003190112610139576004356001600160a01b038116908190036101395761016b610bba565b80156101b3575f80546001600160a01b03198116831782556001600160a01b0316907f8be0079c531659141344cd1fd0a4f28419497f9722a3daafe3b4186f6b6457e09080a3005b631e4fbdf760e01b5f525f60045260245ffd5b34610139576020366003190112610139576004356101e2610cb3565b6101ea610ceb565b6101f2610bf3565b6003554260025533610315575b61020a811515610b4b565b6040516323b872dd60e01b8152336004820152306024820152604481018290526020816064815f6001600160a01b037f0000000000000000000000000000000000000000000000000000000000000000165af1801561030a57610274915f916102db575b50610b0d565b335f52600560205260405f2061028b828254610bad565b905561029981600454610bad565b6004556040519081527f2da466a7b24304f47e87fa2e1e5a81b9831ce54fec19055ce277ca2f39ba42c460203392a260015f516020610d095f395f51905f5255005b6102fd915060203d602011610303575b6102f58183610ad3565b810190610af5565b8361026e565b503d6102eb565b6040513d5f823e3d90fd5b61031e33610c4e565b335f90815260056020526040902060028101919091556003546001909101556101ff565b346101395760203660031901126101395760043561035e610cb3565b610366610bf3565b60035542600255336104a4575b61037e811515610b4b565b335f5260056020528060405f20541061045f57335f52600560205260405f206103a8828254610b8c565b90556103b681600454610b8c565b600490815560405163a9059cbb60e01b81523391810191909152602481018290526020816044815f6001600160a01b037f0000000000000000000000000000000000000000000000000000000000000000165af1801561030a57610420915f916102db5750610b0d565b6040519081527f7084f5476618d8e60b11ef0d7d3f06914655adb8793e28ff7f018d4c76d505d560203392a260015f516020610d095f395f51905f5255005b60405162461bcd60e51b815260206004820152601a60248201527f496e73756666696369656e74207374616b656420616d6f756e740000000000006044820152606490fd5b6104ad33610c4e565b335f9081526005602052604090206002810191909155600354600190910155610373565b34610139575f366003190112610139576020600254604051908152f35b34610139575f366003190112610139576040517f00000000000000000000000000000000000000000000000000000000000000006001600160a01b03168152602090f35b346101395760203660031901126101395760043561054e610bba565b6040516323b872dd60e01b815233600482015230602482015260448101829052906020826064815f6001600160a01b037f0000000000000000000000000000000000000000000000000000000000000000165af190811561030a576105dd6020927f5a1d4c5b1efe5ce0490c528a3e5f0ab619c45c20bf2246cff594b21788a170e2945f916105e65750610b0d565b604051908152a1005b6105fd9150843d8611610303576102f58183610ad3565b8561026e565b34610139575f366003190112610139575f546040516001600160a01b039091168152602090f35b34610139575f36600319011261013957610642610bba565b61064a610ceb565b5f805460ff60a01b1916600160a01b1790556040513381527f62e78cea01bee320cd4e420270b5ea74000d11b0c9f74754ebdbfc544b05a25890602090a1005b34610139575f366003190112610139576020600454604051908152f35b34610139575f366003190112610139576020600354604051908152f35b34610139576020366003190112610139576004356001600160a01b03811690819003610139575f604080516106f881610aa3565b82815282602082015201525f526005602052606060405f2060405161071c81610aa3565b815491828252604060026001830154926020850193845201549201918252604051928352516020830152516040820152f35b34610139575f36600319011261013957610766610bba565b5f80546001600160a01b0319811682556001600160a01b03167f8be0079c531659141344cd1fd0a4f28419497f9722a3daafe3b4186f6b6457e08280a3005b34610139575f366003190112610139576020600154604051908152f35b34610139575f36600319011261013957602060ff5f5460a01c166040519015158152f35b34610139575f366003190112610139576107fe610cb3565b610806610bf3565b6003554260025533610920575b335f526005602052600260405f20015480156108e357335f8181526005602090815260408083206002018390555163a9059cbb60e01b815260048101939093526024830184905290829060449082906001600160a01b037f0000000000000000000000000000000000000000000000000000000000000000165af1801561030a576108a4915f916102db5750610b0d565b6040519081527f121c5042302bae5fc561fbc64368f297ca60a880878e1e3a7f7e9380377260bf60203392a260015f516020610d095f395f51905f5255005b60405162461bcd60e51b8152602060048201526015602482015274139bc81c995dd85c991cc81d1bc81a185c9d995cdd605a1b6044820152606490fd5b61092933610c4e565b335f9081526005602052604090206002810191909155600354600190910155610813565b34610139576020366003190112610139576004356001600160a01b03811690819003610139575f526005602052606060405f20805490600260018201549101549060405192835260208301526040820152f35b34610139575f366003190112610139576109b8610bba565b5f5460ff8160a01c16156109fd5760ff60a01b19165f556040513381527f5db9ee0a495bf2e6ff9c91a7834c1ba4fdd244a5e8aa4e537bd38aeae4b073aa90602090a1005b638dfc202b60e01b5f5260045ffd5b34610139576020366003190112610139576004356001600160a01b038116810361013957610a3b602091610c4e565b604051908152f35b3461013957602036600319011261013957610a5c610bba565b610a64610bf3565b600355426002557f8b729f2faee3041aca6b3a995dba6af6d50ed7353300c5da5f3412400848f9606020620151806004350480600155604051908152a1005b6060810190811067ffffffffffffffff821117610abf57604052565b634e487b7160e01b5f52604160045260245ffd5b90601f8019910116810190811067ffffffffffffffff821117610abf57604052565b90816020910312610139575180151581036101395790565b15610b1457565b60405162461bcd60e51b815260206004820152600f60248201526e151c985b9cd9995c8819985a5b1959608a1b6044820152606490fd5b15610b5257565b60405162461bcd60e51b81526020600482015260126024820152710416d6f756e74206d757374206265203e20360741b6044820152606490fd5b91908203918211610b9957565b634e487b7160e01b5f52601160045260245ffd5b91908201809211610b9957565b5f546001600160a01b03163303610bcd57565b63118cdaa760e01b5f523360045260245ffd5b81810292918115918404141715610b9957565b6004548015610c4757600354610c17600154610c1160025442610b8c565b90610be0565b91670de0b6b3a7640000830292808404670de0b6b3a76400001490151715610b9957610c44920490610bad565b90565b5060035490565b60018060a01b03165f526005602052610c446040670de0b6b3a7640000610cac825f20610c11845191610c8083610aa3565b80549283815260026001830154926020830193845201549687910152610ca4610bf3565b905190610b8c565b0490610bad565b60025f516020610d095f395f51905f525414610cdc5760025f516020610d095f395f51905f5255565b633ee5aeb560e01b5f5260045ffd5b60ff5f5460a01c16610cf957565b63d93c066560e01b5f5260045ffdfe9b779b17422d0df92223018b32b4d1fa46e071723d6817e2486d003becc55f00a26469706673582212200df97d9507b3e740ac4e24d7e96baa1f0728e14735266a05ed073962a8952b3264736f6c634300081e0033",
  "linkReferences": {},
  "deployedLinkReferences": {}
}