{
  "_format": "hh-sol-artifact-1",
  "contractName": "PointsTracker",
  "sourceName": "contracts/shared/PointsTracker.sol",
  "abi": [
    {
      "inputs": [
        {
          "internalType": "address",
          "name": "_owner",
          "type": "address"
        }
      ],
      "stateMutability": "nonpayable",
      "type": "constructor"
    },
    {
      "inputs": [
        {
          "internalType": "address",
          "name": "owner",
          "type": "address"
        }
      ],
      "name": "OwnableInvalidOwner",
      "type": "error"
    },
    {
      "inputs": [
        {
          "internalType": "address",
          "name": "account",
          "type": "address"
        }
      ],
      "name": "OwnableUnauthorizedAccount",
      "type": "error"
    },
    {
      "inputs": [],
      "name": "ReentrancyGuardReentrantCall",
      "type": "error"
    },
    {
      "anonymous": false,
      "inputs": [
        {
          "indexed": false,
          "internalType": "uint256",
          "name": "newMin",
          "type": "uint256"
        }
      ],
      "name": "CopyMinPointsUpdated",
      "type": "event"
    },
    {
      "anonymous": false,
      "inputs": [
        {
          "indexed": true,
          "internalType": "address",
          "name": "previousOwner",
          "type": "address"
        },
        {
          "indexed": true,
          "internalType": "address",
          "name": "newOwner",
          "type": "address"
        }
      ],
      "name": "OwnershipTransferred",
      "type": "event"
    },
    {
      "anonymous": false,
      "inputs": [
        {
          "indexed": true,
          "internalType": "address",
          "name": "user",
          "type": "address"
        },
        {
          "indexed": false,
          "internalType": "uint256",
          "name": "points",
          "type": "uint256"
        },
        {
          "indexed": false,
          "internalType": "bytes32",
          "name": "source",
          "type": "bytes32"
        },
        {
          "indexed": false,
          "internalType": "uint256",
          "name": "total",
          "type": "uint256"
        }
      ],
      "name": "PointsAwarded",
      "type": "event"
    },
    {
      "anonymous": false,
      "inputs": [
        {
          "indexed": true,
          "internalType": "address",
          "name": "writer",
          "type": "address"
        }
      ],
      "name": "WriterAuthorised",
      "type": "event"
    },
    {
      "anonymous": false,
      "inputs": [
        {
          "indexed": true,
          "internalType": "address",
          "name": "writer",
          "type": "address"
        }
      ],
      "name": "WriterRevoked",
      "type": "event"
    },
    {
      "inputs": [],
      "name": "BRONZE_THRESHOLD",
      "outputs": [
        {
          "internalType": "uint256",
          "name": "",
          "type": "uint256"
        }
      ],
      "stateMutability": "view",
      "type": "function"
    },
    {
      "inputs": [],
      "name": "GOLD_THRESHOLD",
      "outputs": [
        {
          "internalType": "uint256",
          "name": "",
          "type": "uint256"
        }
      ],
      "stateMutability": "view",
      "type": "function"
    },
    {
      "inputs": [],
      "name": "SILVER_THRESHOLD",
      "outputs": [
        {
          "internalType": "uint256",
          "name": "",
          "type": "uint256"
        }
      ],
      "stateMutability": "view",
      "type": "function"
    },
    {
      "inputs": [],
      "name": "SOURCE_COPY_TRADE",
      "outputs": [
        {
          "internalType": "bytes32",
          "name": "",
          "type": "bytes32"
        }
      ],
      "stateMutability": "view",
      "type": "function"
    },
    {
      "inputs": [],
      "name": "SOURCE_DEMO_TRADE",
      "outputs": [
        {
          "internalType": "bytes32",
          "name": "",
          "type": "bytes32"
        }
      ],
      "stateMutability": "view",
      "type": "function"
    },
    {
      "inputs": [],
      "name": "SOURCE_FAUCET",
      "outputs": [
        {
          "internalType": "bytes32",
          "name": "",
          "type": "bytes32"
        }
      ],
      "stateMutability": "view",
      "type": "function"
    },
    {
      "inputs": [
        {
          "internalType": "address",
          "name": "writer",
          "type": "address"
        }
      ],
      "name": "authoriseWriter",
      "outputs": [],
      "stateMutability": "nonpayable",
      "type": "function"
    },
    {
      "inputs": [
        {
          "internalType": "address",
          "name": "",
          "type": "address"
        }
      ],
      "name": "authorisedWriters",
      "outputs": [
        {
          "internalType": "bool",
          "name": "",
          "type": "bool"
        }
      ],
      "stateMutability": "view",
      "type": "function"
    },
    {
      "inputs": [
        {
          "internalType": "address",
          "name": "user",
          "type": "address"
        },
        {
          "internalType": "uint256",
          "name": "points",
          "type": "uint256"
        },
        {
          "internalType": "bytes32",
          "name": "source",
          "type": "bytes32"
        }
      ],
      "name": "awardPoints",
      "outputs": [],
      "stateMutability": "nonpayable",
      "type": "function"
    },
    {
      "inputs": [],
      "name": "copyTradingMinPoints",
      "outputs": [
        {
          "internalType": "uint256",
          "name": "",
          "type": "uint256"
        }
      ],
      "stateMutability": "view",
      "type": "function"
    },
    {
      "inputs": [
        {
          "internalType": "address",
          "name": "user",
          "type": "address"
        }
      ],
      "name": "getAchievementTier",
      "outputs": [
        {
          "internalType": "uint8",
          "name": "",
          "type": "uint8"
        }
      ],
      "stateMutability": "view",
      "type": "function"
    },
    {
      "inputs": [
        {
          "internalType": "uint256",
          "name": "limit",
          "type": "uint256"
        }
      ],
      "name": "getLeaderboard",
      "outputs": [
        {
          "internalType": "address[]",
          "name": "users",
          "type": "address[]"
        },
        {
          "internalType": "uint256[]",
          "name": "points",
          "type": "uint256[]"
        }
      ],
      "stateMutability": "view",
      "type": "function"
    },
    {
      "inputs": [
        {
          "internalType": "address",
          "name": "user",
          "type": "address"
        }
      ],
      "name": "getUserRank",
      "outputs": [
        {
          "internalType": "uint256",
          "name": "rank",
          "type": "uint256"
        }
      ],
      "stateMutability": "view",
      "type": "function"
    },
    {
      "inputs": [
        {
          "internalType": "address",
          "name": "trader",
          "type": "address"
        }
      ],
      "name": "isEligibleForCopyTrading",
      "outputs": [
        {
          "internalType": "bool",
          "name": "",
          "type": "bool"
        }
      ],
      "stateMutability": "view",
      "type": "function"
    },
    {
      "inputs": [
        {
          "internalType": "address",
          "name": "",
          "type": "address"
        }
      ],
      "name": "isOnLeaderboard",
      "outputs": [
        {
          "internalType": "bool",
          "name": "",
          "type": "bool"
        }
      ],
      "stateMutability": "view",
      "type": "function"
    },
    {
      "inputs": [
        {
          "internalType": "uint256",
          "name": "",
          "type": "uint256"
        }
      ],
      "name": "leaderboard",
      "outputs": [
        {
          "internalType": "address",
          "name": "",
          "type": "address"
        }
      ],
      "stateMutability": "view",
      "type": "function"
    },
    {
      "inputs": [],
      "name": "leaderboardLength",
      "outputs": [
        {
          "internalType": "uint256",
          "name": "",
          "type": "uint256"
        }
      ],
      "stateMutability": "view",
      "type": "function"
    },
    {
      "inputs": [],
      "name": "owner",
      "outputs": [
        {
          "internalType": "address",
          "name": "",
          "type": "address"
        }
      ],
      "stateMutability": "view",
      "type": "function"
    },
    {
      "inputs": [
        {
          "internalType": "address",
          "name": "",
          "type": "address"
        },
        {
          "internalType": "bytes32",
          "name": "",
          "type": "bytes32"
        }
      ],
      "name": "pointsBySource",
      "outputs": [
        {
          "internalType": "uint256",
          "name": "",
          "type": "uint256"
        }
      ],
      "stateMutability": "view",
      "type": "function"
    },
    {
      "inputs": [],
      "name": "renounceOwnership",
      "outputs": [],
      "stateMutability": "nonpayable",
      "type": "function"
    },
    {
      "inputs": [
        {
          "internalType": "address",
          "name": "writer",
          "type": "address"
        }
      ],
      "name": "revokeWriter",
      "outputs": [],
      "stateMutability": "nonpayable",
      "type": "function"
    },
    {
      "inputs": [
        {
          "internalType": "uint256",
          "name": "minPoints",
          "type": "uint256"
        }
      ],
      "name": "setCopyTradingMinPoints",
      "outputs": [],
      "stateMutability": "nonpayable",
      "type": "function"
    },
    {
      "inputs": [
        {
          "internalType": "address",
          "name": "newOwner",
          "type": "address"
        }
      ],
      "name": "transferOwnership",
      "outputs": [],
      "stateMutability": "nonpayable",
      "type": "function"
    },
    {
      "inputs": [
        {
          "internalType": "address",
          "name": "",
          "type": "address"
        }
      ],
      "name": "userPoints",
      "outputs": [
        {
          "internalType": "uint256",
          "name": "",
          "type": "uint256"
        }
      ],
      "stateMutability": "view",
      "type": "function"
    }
  ],
  "bytecode": "0x6080346100e657601f610df038819003918201601f19168301916001600160401b038311848410176100ea578084926020946040528339810103126100e657516001600160a01b038116908190036100e65780156100d3575f80546001600160a01b031981168317825560405192916001600160a01b03909116907f8be0079c531659141344cd1fd0a4f28419497f9722a3daafe3b4186f6b6457e09080a360017f9b779b17422d0df92223018b32b4d1fa46e071723d6817e2486d003becc55f005560c8600655610cf190816100ff8239f35b631e4fbdf760e01b5f525f60045260245ffd5b5f80fd5b634e487b7160e01b5f52604160045260245ffdfe60806040526004361015610011575f80fd5b5f3560e01c806306a10eb314610b47578063186ca96914610b2a578063190275b114610af057806323851fb814610ad357806323e284d014610a995780632a50743b14610a5c5780633204a3a4146109f457806340ac75fc146109a85780634ded13bc1461096e578063569739741461095257806369a2f02614610937578063715018a6146108e05780637afe3a121461089c57806385f6f369146105d95780638da5cb5b146105b2578063912d2c1814610575578063a34b46fe1461034e578063b2d1573f146102ab578063bd9e562b1461026e578063bf3683991461022c578063c1a0db3014610210578063cfcfc53c146101e2578063f2fde38b1461015d5763f50ddbc714610121575f80fd5b34610159576020366003190112610159576001600160a01b03610142610bac565b165f526001602052602060405f2054604051908152f35b5f80fd5b3461015957602036600319011261015957610176610bac565b61017e610c95565b6001600160a01b031680156101cf575f80546001600160a01b03198116831782556001600160a01b0316907f8be0079c531659141344cd1fd0a4f28419497f9722a3daafe3b4186f6b6457e09080a3005b631e4fbdf760e01b5f525f60045260245ffd5b34610159576020366003190112610159576020610205610200610bac565b610c4d565b60ff60405191168152f35b34610159575f3660031901126101595760206040516101f48152f35b346101595760203660031901126101595760043560035481101561015957610255602091610bc2565b905460405160039290921b1c6001600160a01b03168152f35b34610159576020366003190112610159576001600160a01b0361028f610bac565b165f526005602052602060ff60405f2054166040519015158152f35b34610159576020366003190112610159576102c4610bac565b6001600160a01b03165f90815260016020819052604082205460035491925b8281106102f557602084604051908152f35b6102fe81610bc2565b60018060a01b0391549060031b1c165f5260016020528160405f205411610328575b6001016102e3565b925f19811461033a5760010192610320565b634e487b7160e01b5f52601160045260245ffd5b34610159576020366003190112610159576003546004358181111561056e57505b61038061037b82610c21565b610bfb565b81815261038c82610c21565b602082019290601f19013684376103a561037b82610c21565b928184526103b282610c21565b602085019290601f19013684375f5b81811061050c57505f5b818110610456575050604051938493604085019060408652518091526060850192905f5b818110610434575050506020908483038286015251918281520191905f5b81811061041b575050500390f35b825184528594506020938401939092019160010161040d565b82516001600160a01b03168552879650602094850194909201916001016103ef565b60018196939495960180821161033a575b82811061047c575060010194939291946103cb565b8061048960019286610c39565b516104948487610c39565b51106104a1575b01610467565b818060a01b036104b1828a610c39565b5116828060a01b036104c3858b610c39565b51166104cf838b610c39565b526104da848a610c39565b526104e58186610c39565b516104f08487610c39565b516104fb8388610c39565b526105068487610c39565b5261049b565b8061051d6001929794959697610bc2565b838060a01b0391549060031b1c166105358289610c39565b5261053f81610bc2565b838060a01b0391549060031b1c165f528160205260405f20546105628286610c39565b520194939291946103c1565b905061036f565b34610159576020366003190112610159576001600160a01b03610596610bac565b165f526004602052602060ff60405f2054166040519015158152f35b34610159575f366003190112610159575f546040516001600160a01b039091168152602090f35b34610159576060366003190112610159576105f2610bac565b6024359060443590335f52600560205260ff60405f2054168015610889575b1561084c5760027f9b779b17422d0df92223018b32b4d1fa46e071723d6817e2486d003becc55f00541461083d5760027f9b779b17422d0df92223018b32b4d1fa46e071723d6817e2486d003becc55f00556001600160a01b03169182156108095780156107cf57825f52600160205260405f20610690828254610bee565b9055825f52600260205260405f20825f5260205260405f206106b3828254610bee565b9055825f52600460205260ff60405f20541615610735575b6060907f871959667b7bb2ee8fa43498bbbab291887da99b1bf90e0969898b211635da9792845f52600160205260405f20549060405192835260208301526040820152a260017f9b779b17422d0df92223018b32b4d1fa46e071723d6817e2486d003becc55f0055005b60035490680100000000000000008210156107bb577f871959667b7bb2ee8fa43498bbbab291887da99b1bf90e0969898b211635da979261077e83600160609501600355610bc2565b81546001600160a01b0360039290921b91821b19169087901b1790555f858152600460205260409020805460ff19166001179055925090506106cb565b634e487b7160e01b5f52604160045260245ffd5b60405162461bcd60e51b81526020600482015260126024820152710506f696e7473206d757374206265203e20360741b6044820152606490fd5b60405162461bcd60e51b815260206004820152600c60248201526b24b73b30b634b2103ab9b2b960a11b6044820152606490fd5b633ee5aeb560e01b5f5260045ffd5b60405162461bcd60e51b81526020600482015260156024820152742737ba1030baba3437b934b9b2b2103bb934ba32b960591b6044820152606490fd5b505f546001600160a01b03163314610611565b34610159576040366003190112610159576001600160a01b036108bd610bac565b165f52600260205260405f206024355f52602052602060405f2054604051908152f35b34610159575f366003190112610159576108f8610c95565b5f80546001600160a01b0319811682556001600160a01b03167f8be0079c531659141344cd1fd0a4f28419497f9722a3daafe3b4186f6b6457e08280a3005b34610159575f36600319011261015957602060405160648152f35b34610159575f3660031901126101595760206040516103e88152f35b34610159575f3660031901126101595760206040517fd961517a8818824e4312f4b33611b60b83db2e49e5edff9beac9a09f62b9864d8152f35b34610159576020366003190112610159577fe564cfad8b45b045d51c714a16725ab5c042a6f4c0b571056f806cc0c05c33b060206004356109e7610c95565b80600655604051908152a1005b3461015957602036600319011261015957610a0d610bac565b610a15610c95565b6001600160a01b03165f818152600560205260408120805460ff191660011790557f5ff9457b35d6f96107d0a9ccb63c7057cf34f02fff4217832e529926b6a3bb339080a2005b34610159576020366003190112610159576001600160a01b03610a7d610bac565b165f526001602052602060405f20546006541115604051908152f35b34610159575f3660031901126101595760206040517fc5bb3462fcb90a2e77ac9eacba8f4a81ea82a248dee96b5ff88138f38efb45f08152f35b34610159575f366003190112610159576020600654604051908152f35b34610159575f3660031901126101595760206040517f53e4891a8d653cbe756d4d0bf110919372a0b2d0b359412e54cdbe04ef5c5cef8152f35b34610159575f366003190112610159576020600354604051908152f35b3461015957602036600319011261015957610b60610bac565b610b68610c95565b6001600160a01b03165f818152600560205260408120805460ff191690557ff38bbe104ea3e2aa830384a3a5faffe8334939e78b8be373cf93c217d99332e39080a2005b600435906001600160a01b038216820361015957565b600354811015610bda5760035f5260205f2001905f90565b634e487b7160e01b5f52603260045260245ffd5b9190820180921161033a57565b6040519190601f01601f1916820167ffffffffffffffff8111838210176107bb57604052565b67ffffffffffffffff81116107bb5760051b60200190565b8051821015610bda5760209160051b010190565b6001600160a01b03165f908152600160205260409020546103e8811015610c8f576101f4811015610c895760641115610c84575f90565b600190565b50600290565b50600390565b5f546001600160a01b03163303610ca857565b63118cdaa760e01b5f523360045260245ffdfea264697066735822122037e2188bf572f92f2fefdaac9944d4d5003a74c0ea37158f3f225016fe42fd0864736f6c634300081e0033",
  "linkReferences": {},
  "deployedLinkReferences": {}
}