{
  "_format": "hh-sol-artifact-1",
  "contractName": "LendingPool",
  "sourceName": "contracts/modules/lending/LendingPool.sol",
  "abi": [
    {
      "inputs": [
        {
          "internalType": "address",
          "name": "_tokenA",
          "type": "address"
        },
        {
          "internalType": "address",
          "name": "_tokenB",
          "type": "address"
        },
        {
          "internalType": "address",
          "name": "_oracle",
          "type": "address"
        },
        {
          "internalType": "address",
          "name": "_owner",
          "type": "address"
        }
      ],
      "stateMutability": "nonpayable",
      "type": "constructor"
    },
    {
      "inputs": [],
      "name": "EnforcedPause",
      "type": "error"
    },
    {
      "inputs": [],
      "name": "ExpectedPause",
      "type": "error"
    },
    {
      "inputs": [
        {
          "internalType": "address",
          "name": "owner",
          "type": "address"
        }
      ],
      "name": "OwnableInvalidOwner",
      "type": "error"
    },
    {
      "inputs": [
        {
          "internalType": "address",
          "name": "account",
          "type": "address"
        }
      ],
      "name": "OwnableUnauthorizedAccount",
      "type": "error"
    },
    {
      "inputs": [],
      "name": "ReentrancyGuardReentrantCall",
      "type": "error"
    },
    {
      "anonymous": false,
      "inputs": [
        {
          "indexed": true,
          "internalType": "address",
          "name": "user",
          "type": "address"
        },
        {
          "indexed": true,
          "internalType": "address",
          "name": "token",
          "type": "address"
        },
        {
          "indexed": false,
          "internalType": "uint256",
          "name": "amount",
          "type": "uint256"
        }
      ],
      "name": "Borrowed",
      "type": "event"
    },
    {
      "anonymous": false,
      "inputs": [
        {
          "indexed": true,
          "internalType": "address",
          "name": "user",
          "type": "address"
        },
        {
          "indexed": true,
          "internalType": "address",
          "name": "token",
          "type": "address"
        },
        {
          "indexed": false,
          "internalType": "uint256",
          "name": "amount",
          "type": "uint256"
        }
      ],
      "name": "Deposited",
      "type": "event"
    },
    {
      "anonymous": false,
      "inputs": [
        {
          "indexed": true,
          "internalType": "address",
          "name": "borrower",
          "type": "address"
        },
        {
          "indexed": true,
          "internalType": "address",
          "name": "debtToken",
          "type": "address"
        },
        {
          "indexed": true,
          "internalType": "address",
          "name": "collateralToken",
          "type": "address"
        },
        {
          "indexed": false,
          "internalType": "uint256",
          "name": "repayAmount",
          "type": "uint256"
        },
        {
          "indexed": false,
          "internalType": "uint256",
          "name": "seizeAmount",
          "type": "uint256"
        }
      ],
      "name": "Liquidated",
      "type": "event"
    },
    {
      "anonymous": false,
      "inputs": [
        {
          "indexed": true,
          "internalType": "address",
          "name": "previousOwner",
          "type": "address"
        },
        {
          "indexed": true,
          "internalType": "address",
          "name": "newOwner",
          "type": "address"
        }
      ],
      "name": "OwnershipTransferred",
      "type": "event"
    },
    {
      "anonymous": false,
      "inputs": [
        {
          "indexed": false,
          "internalType": "address",
          "name": "account",
          "type": "address"
        }
      ],
      "name": "Paused",
      "type": "event"
    },
    {
      "anonymous": false,
      "inputs": [
        {
          "indexed": true,
          "internalType": "address",
          "name": "user",
          "type": "address"
        },
        {
          "indexed": true,
          "internalType": "address",
          "name": "token",
          "type": "address"
        },
        {
          "indexed": false,
          "internalType": "uint256",
          "name": "amount",
          "type": "uint256"
        }
      ],
      "name": "Repaid",
      "type": "event"
    },
    {
      "anonymous": false,
      "inputs": [
        {
          "indexed": false,
          "internalType": "address",
          "name": "account",
          "type": "address"
        }
      ],
      "name": "Unpaused",
      "type": "event"
    },
    {
      "anonymous": false,
      "inputs": [
        {
          "indexed": true,
          "internalType": "address",
          "name": "user",
          "type": "address"
        },
        {
          "indexed": true,
          "internalType": "address",
          "name": "token",
          "type": "address"
        },
        {
          "indexed": false,
          "internalType": "uint256",
          "name": "amount",
          "type": "uint256"
        }
      ],
      "name": "Withdrawn",
      "type": "event"
    },
    {
      "inputs": [],
      "name": "BPS",
      "outputs": [
        {
          "internalType": "uint256",
          "name": "",
          "type": "uint256"
        }
      ],
      "stateMutability": "view",
      "type": "function"
    },
    {
      "inputs": [],
      "name": "LIQUIDATION_BONUS_BPS",
      "outputs": [
        {
          "internalType": "uint256",
          "name": "",
          "type": "uint256"
        }
      ],
      "stateMutability": "view",
      "type": "function"
    },
    {
      "inputs": [],
      "name": "LIQUIDATION_LTV_BPS",
      "outputs": [
        {
          "internalType": "uint256",
          "name": "",
          "type": "uint256"
        }
      ],
      "stateMutability": "view",
      "type": "function"
    },
    {
      "inputs": [],
      "name": "MAX_LTV_BPS",
      "outputs": [
        {
          "internalType": "uint256",
          "name": "",
          "type": "uint256"
        }
      ],
      "stateMutability": "view",
      "type": "function"
    },
    {
      "inputs": [
        {
          "internalType": "address",
          "name": "",
          "type": "address"
        }
      ],
      "name": "accounts",
      "outputs": [
        {
          "internalType": "uint256",
          "name": "depositedA",
          "type": "uint256"
        },
        {
          "internalType": "uint256",
          "name": "depositedB",
          "type": "uint256"
        },
        {
          "internalType": "uint256",
          "name": "borrowedA",
          "type": "uint256"
        },
        {
          "internalType": "uint256",
          "name": "borrowedB",
          "type": "uint256"
        },
        {
          "internalType": "uint256",
          "name": "lastInterestBlock",
          "type": "uint256"
        }
      ],
      "stateMutability": "view",
      "type": "function"
    },
    {
      "inputs": [],
      "name": "baseRatePerBlock",
      "outputs": [
        {
          "internalType": "uint256",
          "name": "",
          "type": "uint256"
        }
      ],
      "stateMutability": "view",
      "type": "function"
    },
    {
      "inputs": [
        {
          "internalType": "address",
          "name": "token",
          "type": "address"
        },
        {
          "internalType": "uint256",
          "name": "amount",
          "type": "uint256"
        }
      ],
      "name": "borrow",
      "outputs": [],
      "stateMutability": "nonpayable",
      "type": "function"
    },
    {
      "inputs": [
        {
          "internalType": "address",
          "name": "token",
          "type": "address"
        },
        {
          "internalType": "uint256",
          "name": "amount",
          "type": "uint256"
        }
      ],
      "name": "deposit",
      "outputs": [],
      "stateMutability": "nonpayable",
      "type": "function"
    },
    {
      "inputs": [
        {
          "internalType": "address",
          "name": "user",
          "type": "address"
        }
      ],
      "name": "getAccount",
      "outputs": [
        {
          "components": [
            {
              "internalType": "uint256",
              "name": "depositedA",
              "type": "uint256"
            },
            {
              "internalType": "uint256",
              "name": "depositedB",
              "type": "uint256"
            },
            {
              "internalType": "uint256",
              "name": "borrowedA",
              "type": "uint256"
            },
            {
              "internalType": "uint256",
              "name": "borrowedB",
              "type": "uint256"
            },
            {
              "internalType": "uint256",
              "name": "lastInterestBlock",
              "type": "uint256"
            }
          ],
          "internalType": "struct LendingPool.UserAccount",
          "name": "",
          "type": "tuple"
        }
      ],
      "stateMutability": "view",
      "type": "function"
    },
    {
      "inputs": [
        {
          "internalType": "address",
          "name": "user",
          "type": "address"
        }
      ],
      "name": "healthFactor",
      "outputs": [
        {
          "internalType": "uint256",
          "name": "",
          "type": "uint256"
        }
      ],
      "stateMutability": "view",
      "type": "function"
    },
    {
      "inputs": [
        {
          "internalType": "address",
          "name": "borrower",
          "type": "address"
        },
        {
          "internalType": "address",
          "name": "debtToken",
          "type": "address"
        },
        {
          "internalType": "uint256",
          "name": "repayAmount",
          "type": "uint256"
        }
      ],
      "name": "liquidate",
      "outputs": [],
      "stateMutability": "nonpayable",
      "type": "function"
    },
    {
      "inputs": [],
      "name": "oracle",
      "outputs": [
        {
          "internalType": "contract MockOracle",
          "name": "",
          "type": "address"
        }
      ],
      "stateMutability": "view",
      "type": "function"
    },
    {
      "inputs": [],
      "name": "owner",
      "outputs": [
        {
          "internalType": "address",
          "name": "",
          "type": "address"
        }
      ],
      "stateMutability": "view",
      "type": "function"
    },
    {
      "inputs": [],
      "name": "pause",
      "outputs": [],
      "stateMutability": "nonpayable",
      "type": "function"
    },
    {
      "inputs": [],
      "name": "paused",
      "outputs": [
        {
          "internalType": "bool",
          "name": "",
          "type": "bool"
        }
      ],
      "stateMutability": "view",
      "type": "function"
    },
    {
      "inputs": [],
      "name": "renounceOwnership",
      "outputs": [],
      "stateMutability": "nonpayable",
      "type": "function"
    },
    {
      "inputs": [
        {
          "internalType": "address",
          "name": "token",
          "type": "address"
        },
        {
          "internalType": "uint256",
          "name": "amount",
          "type": "uint256"
        }
      ],
      "name": "repay",
      "outputs": [],
      "stateMutability": "nonpayable",
      "type": "function"
    },
    {
      "inputs": [
        {
          "internalType": "uint256",
          "name": "base",
          "type": "uint256"
        },
        {
          "internalType": "uint256",
          "name": "slope",
          "type": "uint256"
        }
      ],
      "name": "setInterestRates",
      "outputs": [],
      "stateMutability": "nonpayable",
      "type": "function"
    },
    {
      "inputs": [],
      "name": "slopeRatePerBlock",
      "outputs": [
        {
          "internalType": "uint256",
          "name": "",
          "type": "uint256"
        }
      ],
      "stateMutability": "view",
      "type": "function"
    },
    {
      "inputs": [],
      "name": "tokenA",
      "outputs": [
        {
          "internalType": "contract IERC20",
          "name": "",
          "type": "address"
        }
      ],
      "stateMutability": "view",
      "type": "function"
    },
    {
      "inputs": [],
      "name": "tokenAAddr",
      "outputs": [
        {
          "internalType": "address",
          "name": "",
          "type": "address"
        }
      ],
      "stateMutability": "view",
      "type": "function"
    },
    {
      "inputs": [],
      "name": "tokenB",
      "outputs": [
        {
          "internalType": "contract IERC20",
          "name": "",
          "type": "address"
        }
      ],
      "stateMutability": "view",
      "type": "function"
    },
    {
      "inputs": [],
      "name": "tokenBAddr",
      "outputs": [
        {
          "internalType": "address",
          "name": "",
          "type": "address"
        }
      ],
      "stateMutability": "view",
      "type": "function"
    },
    {
      "inputs": [],
      "name": "totalBorrowedA",
      "outputs": [
        {
          "internalType": "uint256",
          "name": "",
          "type": "uint256"
        }
      ],
      "stateMutability": "view",
      "type": "function"
    },
    {
      "inputs": [],
      "name": "totalBorrowedB",
      "outputs": [
        {
          "internalType": "uint256",
          "name": "",
          "type": "uint256"
        }
      ],
      "stateMutability": "view",
      "type": "function"
    },
    {
      "inputs": [],
      "name": "totalDepositedA",
      "outputs": [
        {
          "internalType": "uint256",
          "name": "",
          "type": "uint256"
        }
      ],
      "stateMutability": "view",
      "type": "function"
    },
    {
      "inputs": [],
      "name": "totalDepositedB",
      "outputs": [
        {
          "internalType": "uint256",
          "name": "",
          "type": "uint256"
        }
      ],
      "stateMutability": "view",
      "type": "function"
    },
    {
      "inputs": [
        {
          "internalType": "address",
          "name": "newOwner",
          "type": "address"
        }
      ],
      "name": "transferOwnership",
      "outputs": [],
      "stateMutability": "nonpayable",
      "type": "function"
    },
    {
      "inputs": [],
      "name": "unpause",
      "outputs": [],
      "stateMutability": "nonpayable",
      "type": "function"
    },
    {
      "inputs": [],
      "name": "utilisationA",
      "outputs": [
        {
          "internalType": "uint256",
          "name": "",
          "type": "uint256"
        }
      ],
      "stateMutability": "view",
      "type": "function"
    },
    {
      "inputs": [],
      "name": "utilisationB",
      "outputs": [
        {
          "internalType": "uint256",
          "name": "",
          "type": "uint256"
        }
      ],
      "stateMutability": "view",
      "type": "function"
    },
    {
      "inputs": [
        {
          "internalType": "address",
          "name": "token",
          "type": "address"
        },
        {
          "internalType": "uint256",
          "name": "amount",
          "type": "uint256"
        }
      ],
      "name": "withdraw",
      "outputs": [],
      "stateMutability": "nonpayable",
      "type": "function"
    }
  ],
  "bytecode": "0x610120346101ac57601f611bc738819003918201601f19168301916001600160401b038311848410176101b0578084926080946040528339810103126101ac57610048816101c4565b610054602083016101c4565b90610061604084016101c4565b926001600160a01b0390610077906060016101c4565b16928315610199575f80546001600160a01b031981168617825560405195916001600160a01b03909116907f8be0079c531659141344cd1fd0a4f28419497f9722a3daafe3b4186f6b6457e09080a360017f9b779b17422d0df92223018b32b4d1fa46e071723d6817e2486d003becc55f00819055805560056002556001600160a01b0382811660805283811660a0521660c05260e052610100526119ee90816101d9823960805181611229015260a051816106ff015260c05181818161061c015281816117870152611882015260e0518181816102a60152818161051801528181610867015281816109de01528181610c770152818161106801526114ef0152610100518181816107e801528181610b5501528181610caf015261151a0152f35b631e4fbdf760e01b5f525f60045260245ffd5b5f80fd5b634e487b7160e01b5f52604160045260245ffd5b51906001600160a01b03821682036101ac5756fe6080806040526004361015610012575f80fd5b5f3560e01c9081630fc63d101461121757508063122e3a03146111fd5780631bfaae1d146111e15780631cc89cc6146111c757806322867d7814611020578063249d39e91461100457806326c0130314610c0d5780633f4ba83a14610ba157806340cd15a514610b8457806347e7ef24146109a25780634b8a3529146108175780635208947f146107d357806352ff5963146107b65780635c975abb146107925780635e5c06e21461072e5780635f64b55b146106ea5780636043188d146106cd5780636ad9f9df146106a2578063715018a61461064b5780637dc0d1d0146106075780638456cb59146105a75780638da5cb5b14610580578063a0edc78614610564578063ac0fad3314610547578063b5bc0e9014610503578063ea6d9139146104e6578063ecd1dae6146104ca578063f14039de146104ad578063f2fde38b14610428578063f3fef3a31461025e578063f9f65de5146102375763fbcbc0f11461017c575f80fd5b3461023357602036600319011261023357610195611258565b5f60806040516101a48161134b565b828152826020820152826040820152826060820152015260018060a01b03165f52600760205260a060405f206040516101dc8161134b565b81549182825260018101546020830190815260028201549060408401918252608060046003850154946060870195865201549401938452604051948552516020850152516040840152516060830152516080820152f35b5f80fd5b3461023357604036600319011261023357610250611955565b600435600155602435600255005b3461023357604036600319011261023357610277611258565b602435906102836115ed565b61028e8215156112fd565b61029733611625565b6001600160a01b0390811691907f00000000000000000000000000000000000000000000000000000000000000001682036103dd57335f5260076020526102e48160405f205410156115aa565b335f52600760205260405f206102fb82825461133e565b90556103098160035461133e565b6003555b610329670de0b6b3a764000061032233611489565b1015611445565b60405163a9059cbb60e01b8152336004820152602481018290526020816044815f875af180156103d257610364915f916103a3575b506113b5565b6040519081527fd1c19fbcd4551a5edfb66d43d2e337c04837afda3482b42bdf569a8fccdae5fb60203392a360015f5160206119995f395f51905f5255005b6103c5915060203d6020116103cb575b6103bd818361137b565b81019061139d565b8461035e565b503d6103b3565b6040513d5f823e3d90fd5b335f5260076020526103f881600160405f20015410156115aa565b335f526007602052600160405f200161041282825461133e565b90556104208160045461133e565b60045561030d565b3461023357602036600319011261023357610441611258565b610449611955565b6001600160a01b0316801561049a575f80546001600160a01b03198116831782556001600160a01b0316907f8be0079c531659141344cd1fd0a4f28419497f9722a3daafe3b4186f6b6457e09080a3005b631e4fbdf760e01b5f525f60045260245ffd5b34610233575f366003190112610233576020600154604051908152f35b34610233575f3660031901126102335760206040516101f48152f35b34610233575f366003190112610233576020600554604051908152f35b34610233575f366003190112610233576040517f00000000000000000000000000000000000000000000000000000000000000006001600160a01b03168152602090f35b34610233575f366003190112610233576020600354604051908152f35b34610233575f366003190112610233576020604051611f408152f35b34610233575f366003190112610233575f546040516001600160a01b039091168152602090f35b34610233575f366003190112610233576105bf611955565b6105c761197b565b5f805460ff60a01b1916600160a01b1790556040513381527f62e78cea01bee320cd4e420270b5ea74000d11b0c9f74754ebdbfc544b05a25890602090a1005b34610233575f366003190112610233576040517f00000000000000000000000000000000000000000000000000000000000000006001600160a01b03168152602090f35b34610233575f36600319011261023357610663611955565b5f80546001600160a01b0319811682556001600160a01b03167f8be0079c531659141344cd1fd0a4f28419497f9722a3daafe3b4186f6b6457e08280a3005b346102335760203660031901126102335760206106c56106c0611258565b611489565b604051908152f35b34610233575f366003190112610233576020600454604051908152f35b34610233575f366003190112610233576040517f00000000000000000000000000000000000000000000000000000000000000006001600160a01b03168152602090f35b34610233576020366003190112610233576001600160a01b0361074f611258565b165f52600760205260a060405f20805490600181015490600281015460046003830154920154926040519485526020850152604084015260608301526080820152f35b34610233575f36600319011261023357602060ff5f5460a01c166040519015158152f35b34610233575f366003190112610233576020600254604051908152f35b34610233575f366003190112610233576040517f00000000000000000000000000000000000000000000000000000000000000006001600160a01b03168152602090f35b3461023357604036600319011261023357610830611258565b6024359061083c6115ed565b61084461197b565b61084f8215156112fd565b61085833611625565b6001600160a01b0390811691907f0000000000000000000000000000000000000000000000000000000000000000168203610960576108a660035461089f836005546113f3565b1115611400565b335f526007602052600260405f20016108c08282546113f3565b90556108ce816005546113f3565b6005555b6108e7670de0b6b3a764000061032233611489565b60405163a9059cbb60e01b8152336004820152602481018290526020816044815f875af180156103d257610921915f916103a357506113b5565b6040519081527f3fc499aeb0bb1cb58b6de8b02b3f86f4e7394e9690bef0110e32ced8a563104560203392a360015f5160206119995f395f51905f5255005b61097260045461089f836006546113f3565b335f526007602052600360405f200161098c8282546113f3565b905561099a816006546113f3565b6006556108d2565b34610233576040366003190112610233576109bb611258565b602435906109c76115ed565b6109cf61197b565b6001600160a01b0390811691907f0000000000000000000000000000000000000000000000000000000000000000168214808015610b52575b15610b1d57610a188215156112fd565b610a2133611625565b6040516323b872dd60e01b8152336004820152306024820152604481018390526020816064815f885af180156103d257610a61915f91610afe57506113b5565b15610ace57335f52600760205260405f20610a7d8282546113f3565b9055610a8b816003546113f3565b6003555b6040519081527f8752a472e571a816aea92eec8dae9baf628e840f4929fbcc2d155e6233ff68a760203392a360015f5160206119995f395f51905f5255005b335f526007602052600160405f2001610ae88282546113f3565b9055610af6816004546113f3565b600455610a8f565b610b17915060203d6020116103cb576103bd818361137b565b8561035e565b60405162461bcd60e51b815260206004820152600d60248201526c24b73b30b634b2103a37b5b2b760991b6044820152606490fd5b507f00000000000000000000000000000000000000000000000000000000000000006001600160a01b03168314610a08565b34610233575f366003190112610233576020600654604051908152f35b34610233575f36600319011261023357610bb9611955565b5f5460ff8160a01c1615610bfe5760ff60a01b19165f556040513381527f5db9ee0a495bf2e6ff9c91a7834c1ba4fdd244a5e8aa4e537bd38aeae4b073aa90602090a1005b638dfc202b60e01b5f5260045ffd5b3461023357606036600319011261023357610c26611258565b602435906001600160a01b0382169081830361023357604435610c476115ed565b6001600160a01b03821691338314610fc757610c6f816106c0670de0b6b3a764000093611625565b1015610f8f577f00000000000000000000000000000000000000000000000000000000000000006001600160a01b0381169490848614908115610f8957507f0000000000000000000000000000000000000000000000000000000000000000915b8115610f7457845f526007602052600260405f2001545b60011c8411610f37576040516323b872dd60e01b815233600482015230602482015260448101859052906020826064815f8b5af19081156103d257610d378692610d3c945f91610f1857506113b5565b611760565b6129048102908082046129041490151715610f0457612710610d5f910483611861565b6001600160a01b03909216958614908115610eef57845f52600760205260405f20545b808411610ee7575b5015610eb757835f526007602052600260405f2001610daa84825461133e565b9055610db88360055461133e565b6005555b15610e8757825f52600760205260405f20610dd882825461133e565b9055610de68160035461133e565b6003555b60405163a9059cbb60e01b815233600482015260248101829052916020836044815f8a5af19182156103d257610e4a6040937fd1ef587d13fefe63f9bc582e973aad46877ef08cfe790838721bd521c53caf56955f91610e6857506113b5565b82519182526020820152a460015f5160206119995f395f51905f5255005b610e81915060203d6020116103cb576103bd818361137b565b8961035e565b825f526007602052600160405f2001610ea182825461133e565b9055610eaf8160045461133e565b600455610dea565b835f526007602052600360405f2001610ed184825461133e565b9055610edf8360065461133e565b600655610dbc565b925087610d8a565b845f526007602052600160405f200154610d82565b634e487b7160e01b5f52601160045260245ffd5b610f31915060203d6020116103cb576103bd818361137b565b8b61035e565b60405162461bcd60e51b81526020600482015260156024820152740a4cae0c2f240c2dadeeadce840e8dede40d0d2ced605b1b6044820152606490fd5b845f526007602052600360405f200154610ce7565b91610cd0565b60405162461bcd60e51b815260206004820152601060248201526f4e6f74206c6971756964617461626c6560801b6044820152606490fd5b60405162461bcd60e51b815260206004820152601560248201527421b0b73737ba103634b8bab4b230ba329039b2b63360591b6044820152606490fd5b34610233575f3660031901126102335760206040516127108152f35b3461023357604036600319011261023357611039611258565b602435906110456115ed565b6110508215156112fd565b61105933611625565b6001600160a01b0390811691907f000000000000000000000000000000000000000000000000000000000000000016820361116857335f526007602052600260405f20015481115f146111635750335f526007602052600260405f2001545b6110e081335f526007602052600260405f20016110d682825461133e565b905560055461133e565b6005555b6040516323b872dd60e01b8152336004820152306024820152604481018290526020816064815f875af180156103d257611124915f916103a357506113b5565b6040519081527f0a3fbbea70e93f2daafa3102f5c9a1b8315e6d7a1e43e4bc020bc1162327470a60203392a360015f5160206119995f395f51905f5255005b6110b8565b335f526007602052600360405f20015481115f146111c25750335f526007602052600360405f2001545b6111ba81335f526007602052600360405f20016111b082825461133e565b905560065461133e565b6006556110e4565b611192565b34610233575f3660031901126102335760206106c56112d2565b34610233575f366003190112610233576020604051611d4c8152f35b34610233575f3660031901126102335760206106c561129f565b34610233575f366003190112610233577f00000000000000000000000000000000000000000000000000000000000000006001600160a01b03168152602090f35b600435906001600160a01b038216820361023357565b81810292918115918404141715610f0457565b811561128b570490565b634e487b7160e01b5f52601260045260245ffd5b60035480156112cd57600554906127108202918083046127101490151715610f04576112ca91611281565b90565b505f90565b60045480156112cd57600654906127108202918083046127101490151715610f04576112ca91611281565b1561130457565b60405162461bcd60e51b81526020600482015260126024820152710416d6f756e74206d757374206265203e20360741b6044820152606490fd5b91908203918211610f0457565b60a0810190811067ffffffffffffffff82111761136757604052565b634e487b7160e01b5f52604160045260245ffd5b90601f8019910116810190811067ffffffffffffffff82111761136757604052565b90816020910312610233575180151581036102335790565b156113bc57565b60405162461bcd60e51b815260206004820152600f60248201526e151c985b9cd9995c8819985a5b1959608a1b6044820152606490fd5b91908201809211610f0457565b1561140757565b60405162461bcd60e51b8152602060048201526016602482015275496e73756666696369656e74206c697175696469747960501b6044820152606490fd5b1561144c57565b60405162461bcd60e51b81526020600482015260156024820152744865616c746820666163746f7220746f6f206c6f7760581b6044820152606490fd5b60018060a01b03165f52600760205260405f20611557604051916114ac8361134b565b611541815480855261154f6001840154916020870192835260028501549660408101978852608060046003880154976060840198895201549101526115476115157f00000000000000000000000000000000000000000000000000000000000000009283611760565b6115417f0000000000000000000000000000000000000000000000000000000000000000955186611760565b906113f3565b965190611760565b925190611760565b9081156115a357611f40810290808204611f401490151715610f0457612710900490670de0b6b3a7640000820291808304670de0b6b3a76400001490151715610f04576112ca91611281565b50505f1990565b156115b157565b60405162461bcd60e51b8152602060048201526014602482015273496e73756666696369656e742062616c616e636560601b6044820152606490fd5b60025f5160206119995f395f51905f5254146116165760025f5160206119995f395f51905f5255565b633ee5aeb560e01b5f5260045ffd5b60018060a01b03165f52600760205260405f20600481019061164882544361133e565b9081158015611731575b61172a576003600154918361169c600254946127106116956116868261167f61167961129f565b8b61126e565b04846113f3565b9761168f6112d2565b9061126e565b04906113f3565b9360028301805491826116fc575b5050505001805491826116c1575b50505050439055565b620f42406116de6116f0956116d96116e6948761126e565b61126e565b0480936113f3565b90556006546113f3565b6006555f8080806116b8565b620f42406116de61171e956116d9611714948761126e565b90556005546113f3565b600555835f80806116aa565b5050439055565b5060028101541580156116525750600381015415611652565b9190826040910312610233576020825192015190565b811561185b57604051634f129c5360e01b81526001600160a01b03918216600482018190527f00000000000000000000000000000000000000000000000000000000000000009092169190602081602481865afa9081156103d2575f9161183c575b50156118375760409060248251809481936341976e0960e01b835260048301525afa80156103d2576305f5e10092611801925f92611805575b5061126e565b0490565b61182891925060403d604011611830575b611820818361137b565b81019061174a565b50905f6117fb565b503d611816565b505090565b611855915060203d6020116103cb576103bd818361137b565b5f6117c2565b50505f90565b604051634f129c5360e01b81526001600160a01b03918216600482018190527f00000000000000000000000000000000000000000000000000000000000000009092169190602081602481865afa9081156103d2575f91611936575b50156118375760409060248251809481936341976e0960e01b835260048301525afa9081156103d2575f91611916575b50801561185b576305f5e1008202918083046305f5e1001490151715610f04576112ca91611281565b61192f915060403d60401161183057611820818361137b565b505f6118ed565b61194f915060203d6020116103cb576103bd818361137b565b5f6118bd565b5f546001600160a01b0316330361196857565b63118cdaa760e01b5f523360045260245ffd5b60ff5f5460a01c1661198957565b63d93c066560e01b5f5260045ffdfe9b779b17422d0df92223018b32b4d1fa46e071723d6817e2486d003becc55f00a26469706673582212200c38a122acbe6d01f4eb67471e653dadc7c652ededf78c80401e61515f450ddd64736f6c634300081e0033",
  "linkReferences": {},
  "deployedLinkReferences": {}
}