{
  "_format": "hh-sol-artifact-1",
  "contractName": "DemoTrading",
  "sourceName": "contracts/modules/demoTrading/DemoTrading.sol",
  "abi": [
    {
      "inputs": [
        {
          "internalType": "address",
          "name": "_tokenA",
          "type": "address"
        },
        {
          "internalType": "address",
          "name": "_tokenB",
          "type": "address"
        },
        {
          "internalType": "address",
          "name": "_oracle",
          "type": "address"
        },
        {
          "internalType": "address",
          "name": "_pointsTracker",
          "type": "address"
        },
        {
          "internalType": "address",
          "name": "_owner",
          "type": "address"
        }
      ],
      "stateMutability": "nonpayable",
      "type": "constructor"
    },
    {
      "inputs": [],
      "name": "EnforcedPause",
      "type": "error"
    },
    {
      "inputs": [],
      "name": "ExpectedPause",
      "type": "error"
    },
    {
      "inputs": [
        {
          "internalType": "address",
          "name": "owner",
          "type": "address"
        }
      ],
      "name": "OwnableInvalidOwner",
      "type": "error"
    },
    {
      "inputs": [
        {
          "internalType": "address",
          "name": "account",
          "type": "address"
        }
      ],
      "name": "OwnableUnauthorizedAccount",
      "type": "error"
    },
    {
      "inputs": [],
      "name": "ReentrancyGuardReentrantCall",
      "type": "error"
    },
    {
      "anonymous": false,
      "inputs": [
        {
          "indexed": true,
          "internalType": "address",
          "name": "asset",
          "type": "address"
        }
      ],
      "name": "DemoAssetAdded",
      "type": "event"
    },
    {
      "anonymous": false,
      "inputs": [
        {
          "indexed": true,
          "internalType": "address",
          "name": "previousOwner",
          "type": "address"
        },
        {
          "indexed": true,
          "internalType": "address",
          "name": "newOwner",
          "type": "address"
        }
      ],
      "name": "OwnershipTransferred",
      "type": "event"
    },
    {
      "anonymous": false,
      "inputs": [
        {
          "indexed": false,
          "internalType": "address",
          "name": "account",
          "type": "address"
        }
      ],
      "name": "Paused",
      "type": "event"
    },
    {
      "anonymous": false,
      "inputs": [
        {
          "indexed": true,
          "internalType": "uint256",
          "name": "positionId",
          "type": "uint256"
        },
        {
          "indexed": true,
          "internalType": "address",
          "name": "trader",
          "type": "address"
        },
        {
          "indexed": false,
          "internalType": "int256",
          "name": "pnlTokenA",
          "type": "int256"
        },
        {
          "indexed": false,
          "internalType": "uint256",
          "name": "pointsAwarded",
          "type": "uint256"
        }
      ],
      "name": "PositionClosed",
      "type": "event"
    },
    {
      "anonymous": false,
      "inputs": [
        {
          "indexed": true,
          "internalType": "uint256",
          "name": "positionId",
          "type": "uint256"
        },
        {
          "indexed": true,
          "internalType": "address",
          "name": "trader",
          "type": "address"
        },
        {
          "indexed": false,
          "internalType": "address",
          "name": "dAsset",
          "type": "address"
        },
        {
          "indexed": false,
          "internalType": "uint256",
          "name": "marginTokenA",
          "type": "uint256"
        },
        {
          "indexed": false,
          "internalType": "bool",
          "name": "isLong",
          "type": "bool"
        }
      ],
      "name": "PositionOpened",
      "type": "event"
    },
    {
      "anonymous": false,
      "inputs": [
        {
          "indexed": false,
          "internalType": "uint256",
          "name": "amount",
          "type": "uint256"
        }
      ],
      "name": "RewardFunded",
      "type": "event"
    },
    {
      "anonymous": false,
      "inputs": [
        {
          "indexed": false,
          "internalType": "uint256",
          "name": "newPrice",
          "type": "uint256"
        }
      ],
      "name": "TokenAUsdPriceUpdated",
      "type": "event"
    },
    {
      "anonymous": false,
      "inputs": [
        {
          "indexed": false,
          "internalType": "address",
          "name": "account",
          "type": "address"
        }
      ],
      "name": "Unpaused",
      "type": "event"
    },
    {
      "inputs": [],
      "name": "MAX_POINTS_TRADE",
      "outputs": [
        {
          "internalType": "uint256",
          "name": "",
          "type": "uint256"
        }
      ],
      "stateMutability": "view",
      "type": "function"
    },
    {
      "inputs": [],
      "name": "MIN_HOLD_SECONDS",
      "outputs": [
        {
          "internalType": "uint256",
          "name": "",
          "type": "uint256"
        }
      ],
      "stateMutability": "view",
      "type": "function"
    },
    {
      "inputs": [],
      "name": "MIN_MARGIN_USD8",
      "outputs": [
        {
          "internalType": "uint256",
          "name": "",
          "type": "uint256"
        }
      ],
      "stateMutability": "view",
      "type": "function"
    },
    {
      "inputs": [],
      "name": "MIN_PROFIT_BPS",
      "outputs": [
        {
          "internalType": "uint256",
          "name": "",
          "type": "uint256"
        }
      ],
      "stateMutability": "view",
      "type": "function"
    },
    {
      "inputs": [],
      "name": "ORACLE_STALENESS",
      "outputs": [
        {
          "internalType": "uint256",
          "name": "",
          "type": "uint256"
        }
      ],
      "stateMutability": "view",
      "type": "function"
    },
    {
      "inputs": [
        {
          "internalType": "address",
          "name": "asset",
          "type": "address"
        }
      ],
      "name": "addDemoAsset",
      "outputs": [],
      "stateMutability": "nonpayable",
      "type": "function"
    },
    {
      "inputs": [
        {
          "internalType": "uint256",
          "name": "positionId",
          "type": "uint256"
        }
      ],
      "name": "closePosition",
      "outputs": [],
      "stateMutability": "nonpayable",
      "type": "function"
    },
    {
      "inputs": [
        {
          "internalType": "uint256",
          "name": "",
          "type": "uint256"
        }
      ],
      "name": "demoAssets",
      "outputs": [
        {
          "internalType": "address",
          "name": "",
          "type": "address"
        }
      ],
      "stateMutability": "view",
      "type": "function"
    },
    {
      "inputs": [
        {
          "internalType": "uint256",
          "name": "amount",
          "type": "uint256"
        }
      ],
      "name": "fundRewardReserve",
      "outputs": [],
      "stateMutability": "nonpayable",
      "type": "function"
    },
    {
      "inputs": [],
      "name": "getDemoAssets",
      "outputs": [
        {
          "internalType": "address[]",
          "name": "",
          "type": "address[]"
        }
      ],
      "stateMutability": "view",
      "type": "function"
    },
    {
      "inputs": [
        {
          "internalType": "uint256",
          "name": "positionId",
          "type": "uint256"
        }
      ],
      "name": "getOpenPnL",
      "outputs": [
        {
          "internalType": "int256",
          "name": "pnlTokenA",
          "type": "int256"
        },
        {
          "internalType": "uint256",
          "name": "profitBps",
          "type": "uint256"
        }
      ],
      "stateMutability": "view",
      "type": "function"
    },
    {
      "inputs": [
        {
          "internalType": "uint256",
          "name": "positionId",
          "type": "uint256"
        }
      ],
      "name": "getPosition",
      "outputs": [
        {
          "components": [
            {
              "internalType": "address",
              "name": "trader",
              "type": "address"
            },
            {
              "internalType": "address",
              "name": "dAsset",
              "type": "address"
            },
            {
              "internalType": "uint256",
              "name": "marginTokenA",
              "type": "uint256"
            },
            {
              "internalType": "uint256",
              "name": "entryPrice",
              "type": "uint256"
            },
            {
              "internalType": "uint256",
              "name": "openTime",
              "type": "uint256"
            },
            {
              "internalType": "bool",
              "name": "isLong",
              "type": "bool"
            },
            {
              "internalType": "bool",
              "name": "isOpen",
              "type": "bool"
            }
          ],
          "internalType": "struct DemoTrading.Position",
          "name": "",
          "type": "tuple"
        }
      ],
      "stateMutability": "view",
      "type": "function"
    },
    {
      "inputs": [
        {
          "internalType": "address",
          "name": "user",
          "type": "address"
        }
      ],
      "name": "getUserPositions",
      "outputs": [
        {
          "internalType": "uint256[]",
          "name": "",
          "type": "uint256[]"
        }
      ],
      "stateMutability": "view",
      "type": "function"
    },
    {
      "inputs": [
        {
          "internalType": "address",
          "name": "",
          "type": "address"
        }
      ],
      "name": "isDemoAsset",
      "outputs": [
        {
          "internalType": "bool",
          "name": "",
          "type": "bool"
        }
      ],
      "stateMutability": "view",
      "type": "function"
    },
    {
      "inputs": [],
      "name": "nextPositionId",
      "outputs": [
        {
          "internalType": "uint256",
          "name": "",
          "type": "uint256"
        }
      ],
      "stateMutability": "view",
      "type": "function"
    },
    {
      "inputs": [
        {
          "internalType": "address",
          "name": "dAsset",
          "type": "address"
        },
        {
          "internalType": "uint256",
          "name": "marginTokenA",
          "type": "uint256"
        },
        {
          "internalType": "bool",
          "name": "isLong",
          "type": "bool"
        }
      ],
      "name": "openPosition",
      "outputs": [
        {
          "internalType": "uint256",
          "name": "positionId",
          "type": "uint256"
        }
      ],
      "stateMutability": "nonpayable",
      "type": "function"
    },
    {
      "inputs": [],
      "name": "oracle",
      "outputs": [
        {
          "internalType": "contract MockOracle",
          "name": "",
          "type": "address"
        }
      ],
      "stateMutability": "view",
      "type": "function"
    },
    {
      "inputs": [],
      "name": "owner",
      "outputs": [
        {
          "internalType": "address",
          "name": "",
          "type": "address"
        }
      ],
      "stateMutability": "view",
      "type": "function"
    },
    {
      "inputs": [],
      "name": "pause",
      "outputs": [],
      "stateMutability": "nonpayable",
      "type": "function"
    },
    {
      "inputs": [],
      "name": "paused",
      "outputs": [
        {
          "internalType": "bool",
          "name": "",
          "type": "bool"
        }
      ],
      "stateMutability": "view",
      "type": "function"
    },
    {
      "inputs": [],
      "name": "pointsTracker",
      "outputs": [
        {
          "internalType": "contract PointsTracker",
          "name": "",
          "type": "address"
        }
      ],
      "stateMutability": "view",
      "type": "function"
    },
    {
      "inputs": [
        {
          "internalType": "uint256",
          "name": "",
          "type": "uint256"
        }
      ],
      "name": "positions",
      "outputs": [
        {
          "internalType": "address",
          "name": "trader",
          "type": "address"
        },
        {
          "internalType": "address",
          "name": "dAsset",
          "type": "address"
        },
        {
          "internalType": "uint256",
          "name": "marginTokenA",
          "type": "uint256"
        },
        {
          "internalType": "uint256",
          "name": "entryPrice",
          "type": "uint256"
        },
        {
          "internalType": "uint256",
          "name": "openTime",
          "type": "uint256"
        },
        {
          "internalType": "bool",
          "name": "isLong",
          "type": "bool"
        },
        {
          "internalType": "bool",
          "name": "isOpen",
          "type": "bool"
        }
      ],
      "stateMutability": "view",
      "type": "function"
    },
    {
      "inputs": [],
      "name": "renounceOwnership",
      "outputs": [],
      "stateMutability": "nonpayable",
      "type": "function"
    },
    {
      "inputs": [],
      "name": "rewardReserve",
      "outputs": [
        {
          "internalType": "uint256",
          "name": "",
          "type": "uint256"
        }
      ],
      "stateMutability": "view",
      "type": "function"
    },
    {
      "inputs": [
        {
          "internalType": "uint256",
          "name": "price8",
          "type": "uint256"
        }
      ],
      "name": "setTokenAUsdPrice",
      "outputs": [],
      "stateMutability": "nonpayable",
      "type": "function"
    },
    {
      "inputs": [],
      "name": "tokenA",
      "outputs": [
        {
          "internalType": "contract IERC20",
          "name": "",
          "type": "address"
        }
      ],
      "stateMutability": "view",
      "type": "function"
    },
    {
      "inputs": [],
      "name": "tokenAUsdPrice8",
      "outputs": [
        {
          "internalType": "uint256",
          "name": "",
          "type": "uint256"
        }
      ],
      "stateMutability": "view",
      "type": "function"
    },
    {
      "inputs": [],
      "name": "tokenB",
      "outputs": [
        {
          "internalType": "contract IERC20",
          "name": "",
          "type": "address"
        }
      ],
      "stateMutability": "view",
      "type": "function"
    },
    {
      "inputs": [
        {
          "internalType": "address",
          "name": "newOwner",
          "type": "address"
        }
      ],
      "name": "transferOwnership",
      "outputs": [],
      "stateMutability": "nonpayable",
      "type": "function"
    },
    {
      "inputs": [],
      "name": "unpause",
      "outputs": [],
      "stateMutability": "nonpayable",
      "type": "function"
    },
    {
      "inputs": [
        {
          "internalType": "address",
          "name": "",
          "type": "address"
        },
        {
          "internalType": "uint256",
          "name": "",
          "type": "uint256"
        }
      ],
      "name": "userPositions",
      "outputs": [
        {
          "internalType": "uint256",
          "name": "",
          "type": "uint256"
        }
      ],
      "stateMutability": "view",
      "type": "function"
    }
  ],
  "bytecode": "0x610100346101a357601f611cf938819003918201601f19168301916001600160401b038311848410176101a75780849260a0946040528339810103126101a357610048816101bb565b90610055602082016101bb565b610061604083016101bb565b9061006e606084016101bb565b926001600160a01b0390610084906080016101bb565b16938415610190575f80546001600160a01b031981168717825560405196916001600160a01b03909116907f8be0079c531659141344cd1fd0a4f28419497f9722a3daafe3b4186f6b6457e09080a360017f9b779b17422d0df92223018b32b4d1fa46e071723d6817e2486d003becc55f008190556305f5e10081556007556001600160a01b0390811660805290811660a05290811660c0521660e052611b2990816101d0823960805181818161045d01528181610a77015261184f015260a05181818161089901528181610b860152611485015260c0518181816103da015281816109cd015281816110600152818161122701526112b1015260e051818181610bf501526116070152f35b631e4fbdf760e01b5f525f60045260245ffd5b5f80fd5b634e487b7160e01b5f52604160045260245ffd5b51906001600160a01b03821682036101a35756fe6080806040526004361015610012575f80fd5b5f905f3560e01c9081630c056b301461187e575080630fc63d101461183a57806327703fc0146117b25780632a6bc2dd146116fe5780632bd9171f14611636578063398472f2146115f25780633c6a6420146115d75780633d9f8652146115b85780633f4ba83a1461154c578063507a2291146115305780635c975abb1461150c5780635e1b4d99146114b45780635f64b55b14611470578063715018a614611419578063728e6a49146112565780637dc0d1d014611212578063836c64c4146111d05780638456cb59146111705780638925ddb114610f9e578063899346c714610f815780638da5cb5b14610f5a57806399fbab8814610ed7578063a126d6011461092f578063a611972d1461084b578063c55bc4561461080c578063cab64bcd146107ee578063cee9446314610335578063eb02c30114610235578063f06d920214610218578063f2fde38b146101925763ffc7817614610173575f80fd5b3461018f578060031936011261018f5760206040516102588152f35b80fd5b503461018f57602036600319011261018f576101ac611898565b6101b4611a58565b6001600160a01b031680156102045781546001600160a01b03198116821783556001600160a01b03167f8be0079c531659141344cd1fd0a4f28419497f9722a3daafe3b4186f6b6457e08380a380f35b631e4fbdf760e01b82526004829052602482fd5b503461018f578060031936011261018f576020604051610e108152f35b503461018f57602036600319011261018f5760408160e09260c0835161025a816118ef565b82815282602082015282858201528260608201528260808201528260a08201520152600435815260056020522060405190610294826118ef565b60018060a01b038154169182815260018060a01b0360018301541691602082019283526002810154604083019081526003820154906060840191825260056004840154936080860194855201549460ff60c060a087019682891615158852019660081c161515865260405196875260018060a01b03905116602087015251604086015251606085015251608084015251151560a083015251151560c0820152f35b503461018f57606036600319011261018f5761034f611898565b60243590604435908115158092036107ea57610369611a7e565b610371611ab6565b6001600160a01b03168084526003602052604084205490919060ff16156107b457821561077e57600154808402908482040361076a57670de0b6b3a76400006402540be40091041061073457604080516341976e0960e01b8152600481018490529390846024817f00000000000000000000000000000000000000000000000000000000000000006001600160a01b03165afa801561072957859486916106ed575b50610421610e109142611a0d565b116106b3578315610678576040516323b872dd60e01b815233600482015230602482015260448101829052602081606481896001600160a01b037f0000000000000000000000000000000000000000000000000000000000000000165af1801561066d5761049691879161063e575b50611a1a565b600754935f19851461062a57600185016007556040516104b5816118ef565b33815260056020820191868352604081019385855260608201908152608082019042825260a083019588875260c0840195600187528b8d528560205260408d209460018060a01b039060018060a01b03905116166bffffffffffffffffffffffff60a01b86541617855560018060a01b03905116600185019060018060a01b03166bffffffffffffffffffffffff60a01b825416179055516002840155516003830155516004820155019151151560ff8019845416911617825551151561ff0082549160081b169061ff001916179055338552600660205260408520805495600160401b8710156106165750856105b39160016020980181556118da565b81549060031b9086821b915f19901b1916179055604051928352848301526040820152817f59d6d4d19006e229c7e8c430c5ade011c7e387a20e547c9b01c8ff06edbea5fc60603393a360015f516020611ad45f395f51905f5255604051908152f35b634e487b7160e01b81526041600452602490fd5b634e487b7160e01b86526011600452602486fd5b610660915060203d602011610666575b610658818361190b565b81019061192d565b5f610490565b503d61064e565b6040513d88823e3d90fd5b60405162461bcd60e51b8152602060048201526013602482015272496e76616c696420656e74727920707269636560681b6044820152606490fd5b60405162461bcd60e51b81526020600482015260126024820152714f7261636c65207072696365207374616c6560701b6044820152606490fd5b6104219550610e1091506107189060403d604011610722575b610710818361190b565b810190611985565b9590959150610413565b503d610706565b6040513d87823e3d90fd5b60405162461bcd60e51b815260206004820152600e60248201526d4d617267696e20746f6f206c6f7760901b6044820152606490fd5b634e487b7160e01b85526011600452602485fd5b60405162461bcd60e51b815260206004820152600e60248201526d24b73b30b634b21036b0b933b4b760911b6044820152606490fd5b60405162461bcd60e51b815260206004820152600e60248201526d139bdd0819195b5bc8185cdcd95d60921b6044820152606490fd5b8380fd5b503461018f578060031936011261018f576020600254604051908152f35b503461018f57602036600319011261018f5760209060ff906040906001600160a01b03610837611898565b168152600384522054166040519015158152f35b503461018f57602036600319011261018f57600435610868611a58565b6040516323b872dd60e01b815233600482015230602482015260448101829052602081606481866001600160a01b037f0000000000000000000000000000000000000000000000000000000000000000165af18015610924576108d191849161063e5750611a1a565b600254818101809111610910577f76c9bc8833024bf1e2c4a1a44523e5ea3530d2c673af92a0fb9522c03acbfe8b91602091600255604051908152a180f35b634e487b7160e01b83526011600452602483fd5b6040513d85823e3d90fd5b5034610c93576020366003190112610c935760043561094c611a7e565b610954611ab6565b805f52600560205260405f20906005820180549061097760ff8360081c16611945565b83546001600160a01b03163303610e9d5760048401546102588101809111610cd9574210610e62576001840154604080516341976e0960e01b81526001600160a01b0392831660048201529291839060249082907f0000000000000000000000000000000000000000000000000000000000000000165afa918215610c88575f92610e40575b508115610e065761ff001983169055610a429160ff1615610df2576003840154610a269161199b565b925b6003610a39600283015495866119b3565b910154906119d5565b915f5f84139182610dc4575b60405163a9059cbb60e01b8152336004820152602481019190915260208180604481015b03815f7f00000000000000000000000000000000000000000000000000000000000000006001600160a01b03165af1908115610c88575f91610da5575b5015610d69575f9180610d5d575b80610d52575b610b0e575b5060405192835260208301527f7a0db93fde80eea902af70e15fa590136ec8ea44fbc9de1a71175446513213f560403393a360015f516020611ad45f395f51905f525580f35b9050670de0b6b3a76400008302838104670de0b6b3a76400001484151715610cd9576020610b42610b819260015490611a03565b600254808211610d4a575b81610b5791611a0d565b60025560405163a9059cbb60e01b8152336004820152602481019190915291829081906044820190565b03815f7f00000000000000000000000000000000000000000000000000000000000000006001600160a01b03165af1908115610c88575f91610d2b575b5015610ced576103e7198101908111610cd957606490046032811015610cd1575b8015610cc9575b60405163190275b160e01b81527f00000000000000000000000000000000000000000000000000000000000000006001600160a01b031690602081600481855afa908115610c88575f91610c97575b50813b15610c93575f916064839260405194859384926385f6f36960e01b845233600485015288602485015260448401525af18015610c885715610ac857610c809194505f9061190b565b5f925f610ac8565b6040513d5f823e3d90fd5b5f80fd5b90506020813d602011610cc1575b81610cb26020938361190b565b81010312610c9357515f610c35565b3d9150610ca5565b506001610be6565b506032610bdf565b634e487b7160e01b5f52601160045260245ffd5b60405162461bcd60e51b815260206004820152601660248201527514995dd85c99081d1c985b9cd9995c8819985a5b195960521b6044820152606490fd5b610d44915060203d60201161066657610658818361190b565b5f610bbe565b905080610b4d565b506002541515610ac3565b506103e8811015610abd565b60405162461bcd60e51b815260206004820152601460248201527313585c99da5b881c995d1d5c9b8819985a5b195960621b6044820152606490fd5b610dbe915060203d60201161066657610658818361190b565b5f610aaf565b905061271084028481046127101485151715610cd9576020610de983610a7293611a03565b92915050610a4e565b610e0090600385015461199b565b92610a28565b60405162461bcd60e51b8152602060048201526012602482015271496e76616c6964206578697420707269636560701b6044820152606490fd5b610e5a91925060403d60401161072257610710818361190b565b50905f6109fd565b60405162461bcd60e51b8152602060048201526013602482015272121bdb19081d1a5b59481d1bdbc81cda1bdc9d606a1b6044820152606490fd5b60405162461bcd60e51b81526020600482015260126024820152712737ba103837b9b4ba34b7b71037bbb732b960711b6044820152606490fd5b34610c93576020366003190112610c93576004355f52600560205260e060405f2060ff60018060a01b038254169160018060a01b0360018201541690600281015460038201549060056004840154930154936040519687526020870152604086015260608501526080840152818116151560a084015260081c16151560c0820152f35b34610c93575f366003190112610c93575f546040516001600160a01b039091168152602090f35b34610c93575f366003190112610c93576020600754604051908152f35b34610c93576020366003190112610c93576004355f52600560205260405f20604051610fc9816118ef565b60018060a01b03825416815260018060a01b0360018301541691602082019283526002810154926040830193845261103660c06005600385015494606087019586526004810154608088015201549460ff60a08201968181161515885260081c1615159182910152611945565b51604080516341976e0960e01b81526001600160a01b0392831660048201529391849060249082907f0000000000000000000000000000000000000000000000000000000000000000165afa928315610c88575f9361114e575b50821561111157516110bf926110b791156111015782516110b09161199b565b84516119b3565b9051906119d5565b5f5f82136110d8575b6040809350519182526020820152f35b506127108102918183046127101482151715610cd9576040926110fc915190611a03565b6110c8565b61110c90835161199b565b6110b0565b60405162461bcd60e51b8152602060048201526015602482015274496e76616c69642063757272656e7420707269636560581b6044820152606490fd5b61116891935060403d60401161072257610710818361190b565b509184611090565b34610c93575f366003190112610c9357611188611a58565b611190611ab6565b5f805460ff60a01b1916600160a01b1790556040513381527f62e78cea01bee320cd4e420270b5ea74000d11b0c9f74754ebdbfc544b05a25890602090a1005b34610c93576020366003190112610c9357600435600454811015610c93576111f96020916118ae565b905460405160039290921b1c6001600160a01b03168152f35b34610c93575f366003190112610c93576040517f00000000000000000000000000000000000000000000000000000000000000006001600160a01b03168152602090f35b34610c93576020366003190112610c935761126f611898565b611277611a58565b6001600160a01b03165f8181526003602052604090205460ff166113df57604051634f129c5360e01b8152600481018290526020816024817f00000000000000000000000000000000000000000000000000000000000000006001600160a01b03165afa908115610c88575f916113c0575b501561137b57805f52600360205260405f20600160ff19825416179055600454600160401b8110156113675780600161132592016004556118ae565b81546001600160a01b0360039290921b91821b19169083901b1790557ff3e1753b88dc979d8c50dc7486eb32d507ff3085d48c496233442151b979499c5f80a2005b634e487b7160e01b5f52604160045260245ffd5b60405162461bcd60e51b815260206004820152601760248201527f4e6f7420737570706f72746564206279206f7261636c650000000000000000006044820152606490fd5b6113d9915060203d60201161066657610658818361190b565b826112e9565b60405162461bcd60e51b8152602060048201526012602482015271105b1c9958591e4819195b5bc8185cdcd95d60721b6044820152606490fd5b34610c93575f366003190112610c9357611431611a58565b5f80546001600160a01b0319811682556001600160a01b03167f8be0079c531659141344cd1fd0a4f28419497f9722a3daafe3b4186f6b6457e08280a3005b34610c93575f366003190112610c93576040517f00000000000000000000000000000000000000000000000000000000000000006001600160a01b03168152602090f35b34610c93576040366003190112610c93576114cd611898565b6001600160a01b03165f90815260066020526040902080546024359190821015610c93576020916114fd916118da565b90549060031b1c604051908152f35b34610c93575f366003190112610c9357602060ff5f5460a01c166040519015158152f35b34610c93575f366003190112610c935760206040516103e88152f35b34610c93575f366003190112610c9357611564611a58565b5f5460ff8160a01c16156115a95760ff60a01b19165f556040513381527f5db9ee0a495bf2e6ff9c91a7834c1ba4fdd244a5e8aa4e537bd38aeae4b073aa90602090a1005b638dfc202b60e01b5f5260045ffd5b34610c93575f366003190112610c935760206040516402540be4008152f35b34610c93575f366003190112610c9357602060405160328152f35b34610c93575f366003190112610c93576040517f00000000000000000000000000000000000000000000000000000000000000006001600160a01b03168152602090f35b34610c93575f366003190112610c93576040518060206004549283815201809260045f527f8a35acfbc15ff81a39ae7d344fd709f28e8600b4aa8c65c6b64bfe7fe36bd19b905f5b8181106116df575050508161169491038261190b565b604051918291602083019060208452518091526040830191905f5b8181106116bd575050500390f35b82516001600160a01b03168452859450602093840193909201916001016116af565b82546001600160a01b031684526020909301926001928301920161167e565b34610c93576020366003190112610c93576001600160a01b0361171f611898565b165f52600660205260405f20604051806020835491828152019081935f5260205f20905f5b81811061179c575050508161175a91038261190b565b604051918291602083019060208452518091526040830191905f5b818110611783575050500390f35b8251845285945060209384019390920191600101611775565b8254845260209093019260019283019201611744565b34610c93576020366003190112610c93576004356117ce611a58565b8015611805576020817fa554c9b48016d4c4c6e512edc9976a6f405ab9c7a5f8cd2886fbd158a26f9b8992600155604051908152a1005b60405162461bcd60e51b815260206004820152600d60248201526c496e76616c696420707269636560981b6044820152606490fd5b34610c93575f366003190112610c93576040517f00000000000000000000000000000000000000000000000000000000000000006001600160a01b03168152602090f35b34610c93575f366003190112610c93576020906001548152f35b600435906001600160a01b0382168203610c9357565b6004548110156118c65760045f5260205f2001905f90565b634e487b7160e01b5f52603260045260245ffd5b80548210156118c6575f5260205f2001905f90565b60e0810190811067ffffffffffffffff82111761136757604052565b90601f8019910116810190811067ffffffffffffffff82111761136757604052565b90816020910312610c9357518015158103610c935790565b1561194c57565b60405162461bcd60e51b81526020600482015260116024820152702837b9b4ba34b7b7103737ba1037b832b760791b6044820152606490fd5b9190826040910312610c93576020825192015190565b81810392915f138015828513169184121617610cd957565b81810292915f8212600160ff1b821416610cd9578184051490151715610cd957565b81156119ef57600160ff1b81145f19831416610cd9570590565b634e487b7160e01b5f52601260045260245ffd5b81156119ef570490565b91908203918211610cd957565b15611a2157565b60405162461bcd60e51b815260206004820152600f60248201526e151c985b9cd9995c8819985a5b1959608a1b6044820152606490fd5b5f546001600160a01b03163303611a6b57565b63118cdaa760e01b5f523360045260245ffd5b60025f516020611ad45f395f51905f525414611aa75760025f516020611ad45f395f51905f5255565b633ee5aeb560e01b5f5260045ffd5b60ff5f5460a01c16611ac457565b63d93c066560e01b5f5260045ffdfe9b779b17422d0df92223018b32b4d1fa46e071723d6817e2486d003becc55f00a2646970667358221220b83d052a5d306d84321edc43ed2552893281aae93a3ff946f14ade582c4d24d964736f6c634300081e0033",
  "linkReferences": {},
  "deployedLinkReferences": {}
}