{
  "_format": "hh-sol-artifact-1",
  "contractName": "StakingRewards",
  "sourceName": "contracts/modules/staking/StakingRewards.sol",
  "abi": [
    {
      "inputs": [
        {
          "internalType": "address",
          "name": "_stakingToken",
          "type": "address"
        },
        {
          "internalType": "address",
          "name": "_rewardToken",
          "type": "address"
        },
        {
          "internalType": "uint256",
          "name": "_rewardRatePerDay",
          "type": "uint256"
        },
        {
          "internalType": "address",
          "name": "_owner",
          "type": "address"
        }
      ],
      "stateMutability": "nonpayable",
      "type": "constructor"
    },
    {
      "inputs": [],
      "name": "EnforcedPause",
      "type": "error"
    },
    {
      "inputs": [],
      "name": "ExpectedPause",
      "type": "error"
    },
    {
      "inputs": [
        {
          "internalType": "address",
          "name": "owner",
          "type": "address"
        }
      ],
      "name": "OwnableInvalidOwner",
      "type": "error"
    },
    {
      "inputs": [
        {
          "internalType": "address",
          "name": "account",
          "type": "address"
        }
      ],
      "name": "OwnableUnauthorizedAccount",
      "type": "error"
    },
    {
      "inputs": [],
      "name": "ReentrancyGuardReentrantCall",
      "type": "error"
    },
    {
      "anonymous": false,
      "inputs": [
        {
          "indexed": true,
          "internalType": "address",
          "name": "previousOwner",
          "type": "address"
        },
        {
          "indexed": true,
          "internalType": "address",
          "name": "newOwner",
          "type": "address"
        }
      ],
      "name": "OwnershipTransferred",
      "type": "event"
    },
    {
      "anonymous": false,
      "inputs": [
        {
          "indexed": false,
          "internalType": "address",
          "name": "account",
          "type": "address"
        }
      ],
      "name": "Paused",
      "type": "event"
    },
    {
      "anonymous": false,
      "inputs": [
        {
          "indexed": true,
          "internalType": "address",
          "name": "user",
          "type": "address"
        },
        {
          "indexed": false,
          "internalType": "uint256",
          "name": "reward",
          "type": "uint256"
        }
      ],
      "name": "RewardClaimed",
      "type": "event"
    },
    {
      "anonymous": false,
      "inputs": [
        {
          "indexed": false,
          "internalType": "uint256",
          "name": "amount",
          "type": "uint256"
        }
      ],
      "name": "RewardFunded",
      "type": "event"
    },
    {
      "anonymous": false,
      "inputs": [
        {
          "indexed": false,
          "internalType": "uint256",
          "name": "newRatePerSecond",
          "type": "uint256"
        }
      ],
      "name": "RewardRateUpdated",
      "type": "event"
    },
    {
      "anonymous": false,
      "inputs": [
        {
          "indexed": true,
          "internalType": "address",
          "name": "user",
          "type": "address"
        },
        {
          "indexed": false,
          "internalType": "uint256",
          "name": "amount",
          "type": "uint256"
        },
        {
          "indexed": false,
          "internalType": "uint8",
          "name": "lockPeriod",
          "type": "uint8"
        },
        {
          "indexed": false,
          "internalType": "uint256",
          "name": "lockEnd",
          "type": "uint256"
        }
      ],
      "name": "Staked",
      "type": "event"
    },
    {
      "anonymous": false,
      "inputs": [
        {
          "indexed": false,
          "internalType": "address",
          "name": "account",
          "type": "address"
        }
      ],
      "name": "Unpaused",
      "type": "event"
    },
    {
      "anonymous": false,
      "inputs": [
        {
          "indexed": true,
          "internalType": "address",
          "name": "user",
          "type": "address"
        },
        {
          "indexed": false,
          "internalType": "uint256",
          "name": "amount",
          "type": "uint256"
        },
        {
          "indexed": false,
          "internalType": "bool",
          "name": "earlyExit",
          "type": "bool"
        },
        {
          "indexed": false,
          "internalType": "uint256",
          "name": "penalty",
          "type": "uint256"
        }
      ],
      "name": "Unstaked",
      "type": "event"
    },
    {
      "inputs": [],
      "name": "EARLY_EXIT_PENALTY_BPS",
      "outputs": [
        {
          "internalType": "uint256",
          "name": "",
          "type": "uint256"
        }
      ],
      "stateMutability": "view",
      "type": "function"
    },
    {
      "inputs": [],
      "name": "LOCK_180D",
      "outputs": [
        {
          "internalType": "uint256",
          "name": "",
          "type": "uint256"
        }
      ],
      "stateMutability": "view",
      "type": "function"
    },
    {
      "inputs": [],
      "name": "LOCK_30D",
      "outputs": [
        {
          "internalType": "uint256",
          "name": "",
          "type": "uint256"
        }
      ],
      "stateMutability": "view",
      "type": "function"
    },
    {
      "inputs": [],
      "name": "LOCK_90D",
      "outputs": [
        {
          "internalType": "uint256",
          "name": "",
          "type": "uint256"
        }
      ],
      "stateMutability": "view",
      "type": "function"
    },
    {
      "inputs": [],
      "name": "MULT_180D",
      "outputs": [
        {
          "internalType": "uint256",
          "name": "",
          "type": "uint256"
        }
      ],
      "stateMutability": "view",
      "type": "function"
    },
    {
      "inputs": [],
      "name": "MULT_30D",
      "outputs": [
        {
          "internalType": "uint256",
          "name": "",
          "type": "uint256"
        }
      ],
      "stateMutability": "view",
      "type": "function"
    },
    {
      "inputs": [],
      "name": "MULT_90D",
      "outputs": [
        {
          "internalType": "uint256",
          "name": "",
          "type": "uint256"
        }
      ],
      "stateMutability": "view",
      "type": "function"
    },
    {
      "inputs": [],
      "name": "MULT_BASE",
      "outputs": [
        {
          "internalType": "uint256",
          "name": "",
          "type": "uint256"
        }
      ],
      "stateMutability": "view",
      "type": "function"
    },
    {
      "inputs": [],
      "name": "claimRewards",
      "outputs": [],
      "stateMutability": "nonpayable",
      "type": "function"
    },
    {
      "inputs": [
        {
          "internalType": "address",
          "name": "user",
          "type": "address"
        }
      ],
      "name": "earned",
      "outputs": [
        {
          "internalType": "uint256",
          "name": "",
          "type": "uint256"
        }
      ],
      "stateMutability": "view",
      "type": "function"
    },
    {
      "inputs": [
        {
          "internalType": "uint256",
          "name": "amount",
          "type": "uint256"
        }
      ],
      "name": "fundRewards",
      "outputs": [],
      "stateMutability": "nonpayable",
      "type": "function"
    },
    {
      "inputs": [
        {
          "internalType": "address",
          "name": "user",
          "type": "address"
        }
      ],
      "name": "getStakeInfo",
      "outputs": [
        {
          "components": [
            {
              "internalType": "uint256",
              "name": "amount",
              "type": "uint256"
            },
            {
              "internalType": "uint256",
              "name": "lockEnd",
              "type": "uint256"
            },
            {
              "internalType": "uint256",
              "name": "multiplierBps",
              "type": "uint256"
            },
            {
              "internalType": "uint256",
              "name": "rewardPerTokenPaid",
              "type": "uint256"
            },
            {
              "internalType": "uint256",
              "name": "pendingRewards",
              "type": "uint256"
            }
          ],
          "internalType": "struct StakingRewards.StakeInfo",
          "name": "",
          "type": "tuple"
        }
      ],
      "stateMutability": "view",
      "type": "function"
    },
    {
      "inputs": [],
      "name": "lastUpdateTime",
      "outputs": [
        {
          "internalType": "uint256",
          "name": "",
          "type": "uint256"
        }
      ],
      "stateMutability": "view",
      "type": "function"
    },
    {
      "inputs": [],
      "name": "owner",
      "outputs": [
        {
          "internalType": "address",
          "name": "",
          "type": "address"
        }
      ],
      "stateMutability": "view",
      "type": "function"
    },
    {
      "inputs": [],
      "name": "pause",
      "outputs": [],
      "stateMutability": "nonpayable",
      "type": "function"
    },
    {
      "inputs": [],
      "name": "paused",
      "outputs": [
        {
          "internalType": "bool",
          "name": "",
          "type": "bool"
        }
      ],
      "stateMutability": "view",
      "type": "function"
    },
    {
      "inputs": [],
      "name": "renounceOwnership",
      "outputs": [],
      "stateMutability": "nonpayable",
      "type": "function"
    },
    {
      "inputs": [],
      "name": "rewardPerTokenStored",
      "outputs": [
        {
          "internalType": "uint256",
          "name": "",
          "type": "uint256"
        }
      ],
      "stateMutability": "view",
      "type": "function"
    },
    {
      "inputs": [],
      "name": "rewardRatePerSecond",
      "outputs": [
        {
          "internalType": "uint256",
          "name": "",
          "type": "uint256"
        }
      ],
      "stateMutability": "view",
      "type": "function"
    },
    {
      "inputs": [],
      "name": "rewardToken",
      "outputs": [
        {
          "internalType": "contract IERC20",
          "name": "",
          "type": "address"
        }
      ],
      "stateMutability": "view",
      "type": "function"
    },
    {
      "inputs": [
        {
          "internalType": "uint256",
          "name": "tokenBPerDay",
          "type": "uint256"
        }
      ],
      "name": "setRewardRatePerDay",
      "outputs": [],
      "stateMutability": "nonpayable",
      "type": "function"
    },
    {
      "inputs": [
        {
          "internalType": "uint256",
          "name": "amount",
          "type": "uint256"
        },
        {
          "internalType": "uint8",
          "name": "lockPeriod",
          "type": "uint8"
        }
      ],
      "name": "stake",
      "outputs": [],
      "stateMutability": "nonpayable",
      "type": "function"
    },
    {
      "inputs": [
        {
          "internalType": "address",
          "name": "",
          "type": "address"
        }
      ],
      "name": "stakes",
      "outputs": [
        {
          "internalType": "uint256",
          "name": "amount",
          "type": "uint256"
        },
        {
          "internalType": "uint256",
          "name": "lockEnd",
          "type": "uint256"
        },
        {
          "internalType": "uint256",
          "name": "multiplierBps",
          "type": "uint256"
        },
        {
          "internalType": "uint256",
          "name": "rewardPerTokenPaid",
          "type": "uint256"
        },
        {
          "internalType": "uint256",
          "name": "pendingRewards",
          "type": "uint256"
        }
      ],
      "stateMutability": "view",
      "type": "function"
    },
    {
      "inputs": [],
      "name": "stakingToken",
      "outputs": [
        {
          "internalType": "contract IERC20",
          "name": "",
          "type": "address"
        }
      ],
      "stateMutability": "view",
      "type": "function"
    },
    {
      "inputs": [],
      "name": "totalStaked",
      "outputs": [
        {
          "internalType": "uint256",
          "name": "",
          "type": "uint256"
        }
      ],
      "stateMutability": "view",
      "type": "function"
    },
    {
      "inputs": [
        {
          "internalType": "address",
          "name": "newOwner",
          "type": "address"
        }
      ],
      "name": "transferOwnership",
      "outputs": [],
      "stateMutability": "nonpayable",
      "type": "function"
    },
    {
      "inputs": [],
      "name": "unpause",
      "outputs": [],
      "stateMutability": "nonpayable",
      "type": "function"
    },
    {
      "inputs": [],
      "name": "unstake",
      "outputs": [],
      "stateMutability": "nonpayable",
      "type": "function"
    }
  ],
  "bytecode": "0x60c03461015257601f61123738819003918201601f19168301916001600160401b0383118484101761015657808492608094604052833981010312610152576100478161016a565b6100536020830161016a565b604083015190926001600160a01b039061006f9060600161016a565b1692831561013f575f80546001600160a01b03198116861782556040519562015180959290916001600160a01b0316907f8be0079c531659141344cd1fd0a4f28419497f9722a3daafe3b4186f6b6457e09080a360017f9b779b17422d0df92223018b32b4d1fa46e071723d6817e2486d003becc55f008190556001600160a01b03918216608052911660a0529190049055426002556110b8908161017f823960805181818161054c0152818161096e0152610bb2015260a051818181610160015281816103ba01526107830152f35b631e4fbdf760e01b5f525f60045260245ffd5b5f80fd5b634e487b7160e01b5f52604160045260245ffd5b51906001600160a01b03821682036101525756fe60806040526004361015610011575f80fd5b5f3560e01c80628cc26214610dc6578062cf7a421461034a57806310087fb114610b0d57806316934fc414610aa55780632def662014610876578063372500ab146106fb5780633f4ba83a1461068f5780634a84ca5c1461062f5780635c82a112146106135780635c975abb146105ef5780635d773b2c146105d2578063715018a61461057b57806372f702f314610537578063766748571461051a578063817b1cd2146104fd5780638456cb591461049d5780638a5f651a146104805780638da5cb5b1461045957806393707a191461036c5780639f6e78e81461034f578063aa3ee8ba1461034a578063c20a723f1461032e578063c293233c14610312578063c345315314610256578063c8f33c9114610239578063df136d651461021c578063f2fde38b146101935763f7c618c11461014b575f80fd5b3461018f575f36600319011261018f576040517f00000000000000000000000000000000000000000000000000000000000000006001600160a01b03168152602090f35b5f80fd5b3461018f57602036600319011261018f576004356001600160a01b0381169081900361018f576101c161103c565b8015610209575f80546001600160a01b03198116831782556001600160a01b0316907f8be0079c531659141344cd1fd0a4f28419497f9722a3daafe3b4186f6b6457e09080a3005b631e4fbdf760e01b5f525f60045260245ffd5b3461018f575f36600319011261018f576020600354604051908152f35b3461018f575f36600319011261018f576020600254604051908152f35b3461018f57602036600319011261018f576004356001600160a01b0381169081900361018f575f608060405161028b81610e19565b82815282602082015282604082015282606082015201525f52600560205260a060405f206040516102bb81610e19565b81549182825260018101546020830190815260028201549060408401918252608060046003850154946060870195865201549401938452604051948552516020850152516040840152516060830152516080820152f35b3461018f575f36600319011261018f576020604051614e208152f35b3461018f575f36600319011261018f576020604051613a988152f35b610dfd565b3461018f575f36600319011261018f57602060405162ed4e008152f35b3461018f57602036600319011261018f5760043561038861103c565b6040516323b872dd60e01b815233600482015230602482015260448101829052906020826064815f6001600160a01b037f0000000000000000000000000000000000000000000000000000000000000000165af190811561044e576104186020927f76c9bc8833024bf1e2c4a1a44523e5ea3530d2c673af92a0fb9522c03acbfe8b945f91610421575b50610e83565b604051908152a1005b6104419150843d8611610447575b6104398183610e49565b810190610e6b565b85610412565b503d61042f565b6040513d5f823e3d90fd5b3461018f575f36600319011261018f575f546040516001600160a01b039091168152602090f35b3461018f575f36600319011261018f5760206040516276a7008152f35b3461018f575f36600319011261018f576104b561103c565b6104bd610fcd565b5f805460ff60a01b1916600160a01b1790556040513381527f62e78cea01bee320cd4e420270b5ea74000d11b0c9f74754ebdbfc544b05a25890602090a1005b3461018f575f36600319011261018f576020600454604051908152f35b3461018f575f36600319011261018f57602060405162278d008152f35b3461018f575f36600319011261018f576040517f00000000000000000000000000000000000000000000000000000000000000006001600160a01b03168152602090f35b3461018f575f36600319011261018f5761059361103c565b5f80546001600160a01b0319811682556001600160a01b03167f8be0079c531659141344cd1fd0a4f28419497f9722a3daafe3b4186f6b6457e08280a3005b3461018f575f36600319011261018f576020600154604051908152f35b3461018f575f36600319011261018f57602060ff5f5460a01c166040519015158152f35b3461018f575f36600319011261018f5760206040516107d08152f35b3461018f57602036600319011261018f5761064861103c565b610650610fea565b600355426002557f41d466ebd06fb97e7786086ac8b69b7eb7da798592036251291d34e9791cde016020620151806004350480600155604051908152a1005b3461018f575f36600319011261018f576106a761103c565b5f5460ff8160a01c16156106ec5760ff60a01b19165f556040513381527f5db9ee0a495bf2e6ff9c91a7834c1ba4fdd244a5e8aa4e537bd38aeae4b073aa90602090a1005b638dfc202b60e01b5f5260045ffd5b3461018f575f36600319011261018f57610713610f95565b61071b610fea565b600355426002553361084b575b335f526005602052600460405f200154801561081957335f8181526005602090815260408083206004908101849055905163a9059cbb60e01b8152908101939093526024830184905290829060449082906001600160a01b037f0000000000000000000000000000000000000000000000000000000000000000165af1801561044e576107bb915f916107fa5750610e83565b6040519081527f106f923f993c2149d49b4255ff723acafa1f2d94393f561d3eda32ae348f724160203392a260015f5160206110635f395f51905f5255005b610813915060203d602011610447576104398183610e49565b83610412565b60405162461bcd60e51b815260206004820152600a6024820152694e6f207265776172647360b01b6044820152606490fd5b61085433610eee565b335f908152600560205260409020600481019190915560038054910155610728565b3461018f575f36600319011261018f5761088e610f95565b610896610fea565b6003554260025533610a7a575b335f52600560205260405f20604051906108bc82610e19565b805480835260046001830154926020850193845260028101546040860152600381015460608601520154608084015215610a4a5751421080915f91610a12575b6109098151600454610ee1565b600455335f5260056020525f60046040822082815582600182015582600282015582600382015501556109696020610942848451610ee1565b60405163a9059cbb60e01b8152336004820152602481019190915291829081906044820190565b03815f7f00000000000000000000000000000000000000000000000000000000000000006001600160a01b03165af1801561044e576109ae915f916109f95750610e83565b5191604051928352602083015260408201527fb870217905665894c8434c46e122702ec5e8a7f6c5f6751b58ee4d4668c7ad8560603392a260015f5160206110635f395f51905f5255005b610441915060203d602011610447576104398183610e49565b809150516107d08102908082046107d01490151715610a36576127109004906108fc565b634e487b7160e01b5f52601160045260245ffd5b60405162461bcd60e51b81526020600482015260086024820152674e6f207374616b6560c01b6044820152606490fd5b610a8333610eee565b335f9081526005602052604090206004810191909155600380549101556108a3565b3461018f57602036600319011261018f576004356001600160a01b0381169081900361018f575f52600560205260a060405f20805490600181015490600281015460046003830154920154926040519485526020850152604084015260608301526080820152f35b3461018f57604036600319011261018f5760043560243560ff811680910361018f57610b37610f95565b610b3f610fcd565b610b47610fea565b6003554260025533610d9b575b8115610d6157335f52600560205260405f2054610d2a5760028111610cef5780610ccf5761271062278d005b6040516323b872dd60e01b815233600482015230602482015260448101859052916020836064815f6001600160a01b037f0000000000000000000000000000000000000000000000000000000000000000165af192831561044e57610c6693610bef915f91610cb05750610e83565b6004610bfb8342610ec1565b60035460405193610c0b85610e19565b88855260208501928352604085019081526060850191825260808501925f8452335f52600560205260405f209551865551600186015551600285015551600384015551910155610c5d84600454610ec1565b60045542610ec1565b90604051928352602083015260408201527fbde7f0ba1630d25515c7ab99ba47d5640b7ffb4c673b2a5464ae67919558929860603392a260015f5160206110635f395f51905f5255005b610cc9915060203d602011610447576104398183610e49565b87610412565b60018103610ce357613a986276a700610b80565b614e2062ed4e00610b80565b60405162461bcd60e51b8152602060048201526013602482015272125b9d985b1a59081b1bd8dac81c195c9a5bd9606a1b6044820152606490fd5b60405162461bcd60e51b815260206004820152600f60248201526e416c7265616479207374616b696e6760881b6044820152606490fd5b60405162461bcd60e51b81526020600482015260126024820152710416d6f756e74206d757374206265203e20360741b6044820152606490fd5b610da433610eee565b335f908152600560205260409020600481019190915560038054910155610b54565b3461018f57602036600319011261018f576004356001600160a01b038116810361018f57610df5602091610eee565b604051908152f35b3461018f575f36600319011261018f5760206040516127108152f35b60a0810190811067ffffffffffffffff821117610e3557604052565b634e487b7160e01b5f52604160045260245ffd5b90601f8019910116810190811067ffffffffffffffff821117610e3557604052565b9081602091031261018f5751801515810361018f5790565b15610e8a57565b60405162461bcd60e51b815260206004820152600f60248201526e151c985b9cd9995c8819985a5b1959608a1b6044820152606490fd5b91908201809211610a3657565b81810292918115918404141715610a3657565b91908203918211610a3657565b60018060a01b03165f52600560205260405f2060405190610f0e82610e19565b805480835260018201546020840152600282015490816040850152608060046003850154946060870195865201549401938085528115610f8d5750610f8a93610f7d612710610f69670de0b6b3a764000095610f8395610ece565b04915194610f75610fea565b905190610ee1565b90610ece565b0490610ec1565b90565b935050505090565b60025f5160206110635f395f51905f525414610fbe5760025f5160206110635f395f51905f5255565b633ee5aeb560e01b5f5260045ffd5b60ff5f5460a01c16610fdb57565b63d93c066560e01b5f5260045ffd5b600454801561103557600354611008600154610f7d60025442610ee1565b91670de0b6b3a7640000830292808404670de0b6b3a76400001490151715610a3657610f8a920490610ec1565b5060035490565b5f546001600160a01b0316330361104f57565b63118cdaa760e01b5f523360045260245ffdfe9b779b17422d0df92223018b32b4d1fa46e071723d6817e2486d003becc55f00a264697066735822122045312f03b2f886ec49f616e76b4729a35f0382c28e9a6f2c39d1c47e69e5879864736f6c634300081e0033",
  "linkReferences": {},
  "deployedLinkReferences": {}
}