{
  "_format": "hh-sol-artifact-1",
  "contractName": "Factory",
  "sourceName": "contracts/dex/Factory.sol",
  "abi": [
    {
      "inputs": [],
      "stateMutability": "nonpayable",
      "type": "constructor"
    },
    {
      "inputs": [
        {
          "internalType": "address",
          "name": "owner",
          "type": "address"
        }
      ],
      "name": "OwnableInvalidOwner",
      "type": "error"
    },
    {
      "inputs": [
        {
          "internalType": "address",
          "name": "account",
          "type": "address"
        }
      ],
      "name": "OwnableUnauthorizedAccount",
      "type": "error"
    },
    {
      "anonymous": false,
      "inputs": [
        {
          "indexed": false,
          "internalType": "uint256",
          "name": "newFee",
          "type": "uint256"
        }
      ],
      "name": "FeeUpdated",
      "type": "event"
    },
    {
      "anonymous": false,
      "inputs": [
        {
          "indexed": true,
          "internalType": "address",
          "name": "previousOwner",
          "type": "address"
        },
        {
          "indexed": true,
          "internalType": "address",
          "name": "newOwner",
          "type": "address"
        }
      ],
      "name": "OwnershipTransferred",
      "type": "event"
    },
    {
      "anonymous": false,
      "inputs": [
        {
          "indexed": true,
          "internalType": "address",
          "name": "token0",
          "type": "address"
        },
        {
          "indexed": true,
          "internalType": "address",
          "name": "token1",
          "type": "address"
        },
        {
          "indexed": true,
          "internalType": "address",
          "name": "poolAddress",
          "type": "address"
        },
        {
          "indexed": false,
          "internalType": "bool",
          "name": "isStable",
          "type": "bool"
        },
        {
          "indexed": false,
          "internalType": "uint256",
          "name": "poolCount",
          "type": "uint256"
        }
      ],
      "name": "PoolCreated",
      "type": "event"
    },
    {
      "inputs": [],
      "name": "BPS_DENOMINATOR",
      "outputs": [
        {
          "internalType": "uint256",
          "name": "",
          "type": "uint256"
        }
      ],
      "stateMutability": "view",
      "type": "function"
    },
    {
      "inputs": [],
      "name": "DEFAULT_FEE",
      "outputs": [
        {
          "internalType": "uint256",
          "name": "",
          "type": "uint256"
        }
      ],
      "stateMutability": "view",
      "type": "function"
    },
    {
      "inputs": [
        {
          "internalType": "uint256",
          "name": "",
          "type": "uint256"
        }
      ],
      "name": "allPools",
      "outputs": [
        {
          "internalType": "address",
          "name": "",
          "type": "address"
        }
      ],
      "stateMutability": "view",
      "type": "function"
    },
    {
      "inputs": [],
      "name": "allPoolsLength",
      "outputs": [
        {
          "internalType": "uint256",
          "name": "",
          "type": "uint256"
        }
      ],
      "stateMutability": "view",
      "type": "function"
    },
    {
      "inputs": [
        {
          "internalType": "address",
          "name": "token0_",
          "type": "address"
        },
        {
          "internalType": "address",
          "name": "token1_",
          "type": "address"
        },
        {
          "internalType": "bool",
          "name": "isStable",
          "type": "bool"
        },
        {
          "internalType": "uint256",
          "name": "fee",
          "type": "uint256"
        }
      ],
      "name": "createPool",
      "outputs": [
        {
          "internalType": "address",
          "name": "",
          "type": "address"
        }
      ],
      "stateMutability": "nonpayable",
      "type": "function"
    },
    {
      "inputs": [],
      "name": "defaultFee",
      "outputs": [
        {
          "internalType": "uint256",
          "name": "",
          "type": "uint256"
        }
      ],
      "stateMutability": "view",
      "type": "function"
    },
    {
      "inputs": [
        {
          "internalType": "address",
          "name": "token0",
          "type": "address"
        },
        {
          "internalType": "address",
          "name": "token1",
          "type": "address"
        },
        {
          "internalType": "bool",
          "name": "isStable",
          "type": "bool"
        }
      ],
      "name": "getPool",
      "outputs": [
        {
          "internalType": "address",
          "name": "",
          "type": "address"
        }
      ],
      "stateMutability": "view",
      "type": "function"
    },
    {
      "inputs": [
        {
          "internalType": "address",
          "name": "token0",
          "type": "address"
        },
        {
          "internalType": "address",
          "name": "token1",
          "type": "address"
        },
        {
          "internalType": "bool",
          "name": "isStable",
          "type": "bool"
        }
      ],
      "name": "getPoolKey",
      "outputs": [
        {
          "internalType": "bytes32",
          "name": "",
          "type": "bytes32"
        }
      ],
      "stateMutability": "pure",
      "type": "function"
    },
    {
      "inputs": [],
      "name": "owner",
      "outputs": [
        {
          "internalType": "address",
          "name": "",
          "type": "address"
        }
      ],
      "stateMutability": "view",
      "type": "function"
    },
    {
      "inputs": [
        {
          "internalType": "bytes32",
          "name": "",
          "type": "bytes32"
        }
      ],
      "name": "pools",
      "outputs": [
        {
          "internalType": "address",
          "name": "",
          "type": "address"
        }
      ],
      "stateMutability": "view",
      "type": "function"
    },
    {
      "inputs": [
        {
          "internalType": "address",
          "name": "",
          "type": "address"
        },
        {
          "internalType": "uint256",
          "name": "",
          "type": "uint256"
        }
      ],
      "name": "poolsByCreator",
      "outputs": [
        {
          "internalType": "address",
          "name": "token0",
          "type": "address"
        },
        {
          "internalType": "address",
          "name": "token1",
          "type": "address"
        },
        {
          "internalType": "bool",
          "name": "isStable",
          "type": "bool"
        },
        {
          "internalType": "address",
          "name": "poolAddress",
          "type": "address"
        },
        {
          "internalType": "uint256",
          "name": "fee",
          "type": "uint256"
        }
      ],
      "stateMutability": "view",
      "type": "function"
    },
    {
      "inputs": [],
      "name": "renounceOwnership",
      "outputs": [],
      "stateMutability": "nonpayable",
      "type": "function"
    },
    {
      "inputs": [
        {
          "internalType": "uint256",
          "name": "newFee",
          "type": "uint256"
        }
      ],
      "name": "setFee",
      "outputs": [],
      "stateMutability": "nonpayable",
      "type": "function"
    },
    {
      "inputs": [
        {
          "internalType": "address",
          "name": "newOwner",
          "type": "address"
        }
      ],
      "name": "transferOwnership",
      "outputs": [],
      "stateMutability": "nonpayable",
      "type": "function"
    }
  ],
  "bytecode": "0x6080806040523460765733156063575f8054336001600160a01b0319821681178355916001600160a01b03909116907f8be0079c531659141344cd1fd0a4f28419497f9722a3daafe3b4186f6b6457e09080a36019600455612407908161007b8239f35b631e4fbdf760e01b5f525f60045260245ffd5b5f80fdfe60806040526004361015610011575f80fd5b5f3560e01c806341d1de97146106835780634fcc1def146106685780635a6c72d01461064b5780636441d09d1461062557806369fe0e2d1461059b578063715018a61461054457806378a95b4d146102b557806379bc57d5146102655780638da5cb5b1461023e578063b5217bb41461020c578063e1a45218146101f0578063efde4e64146101d3578063f2fde38b1461014e5763fcbf570b146100b3575f80fd5b3461014a57604036600319011261014a576100cc6106f1565b6001600160a01b03165f9081526002602052604090208054602435919082101561014a5760a0916100fc9161072c565b50600180831b038154169060018101549060ff6003600180871b0360028401541692015492604051948552600180871b0381166020860152851c161515604084015260608301526080820152f35b5f80fd5b3461014a57602036600319011261014a576101676106f1565b61016f6107fb565b6001600160a01b031680156101c0575f80546001600160a01b03198116831782556001600160a01b0316907f8be0079c531659141344cd1fd0a4f28419497f9722a3daafe3b4186f6b6457e09080a3005b631e4fbdf760e01b5f525f60045260245ffd5b3461014a575f36600319011261014a576020600354604051908152f35b3461014a575f36600319011261014a5760206040516127108152f35b3461014a57602036600319011261014a576004355f526001602052602060018060a01b0360405f205416604051908152f35b3461014a575f36600319011261014a575f546040516001600160a01b039091168152602090f35b3461014a57606036600319011261014a576102976102816106f1565b610289610707565b61029161071d565b91610745565b5f526001602052602060018060a01b0360405f205416604051908152f35b3461014a57608036600319011261014a576102ce6106f1565b6102d6610707565b6102de61071d565b90606435926102ee838383610745565b5f818152600160205260409020549093906001600160a01b031661051157604051611bb0928382019382851067ffffffffffffffff8611176104df57608091839161082283396001600160a01b0390811680875296166020860181905260408601899052306060870152940301905ff080156105065760018060a01b0316935f52600160205260405f2060018060a01b0385166001600160601b0360a01b825416179055335f52600260205260405f20946040519060a0820182811067ffffffffffffffff8211176104df57604052848252602082019684885260408301931515978885526060840191888352608085019384528054600160401b8110156104df576103ff9160018201815561072c565b9590956104f357935185546001600160a01b039182166001600160a01b03199182161787559151600187018054965160ff60a01b90151560a01b169183166001600160a81b03199097169690961717909455905160028501805491909416911617909155516003918201555491600160401b8310156104df577f1f00463a8653354cfb7addf7960c9b679d4ae19afdcd36488a162dec79ceaea260406020966104af8660018998016003556106c5565b8154600391821b89811b6001600160a01b0390911b199091161790915554825191825288820152a4604051908152f35b634e487b7160e01b5f52604160045260245ffd5b634e487b7160e01b5f525f60045260245ffd5b6040513d5f823e3d90fd5b60405162461bcd60e51b815260206004820152600b60248201526a506f6f6c2065786973747360a81b6044820152606490fd5b3461014a575f36600319011261014a5761055c6107fb565b5f80546001600160a01b0319811682556001600160a01b03167f8be0079c531659141344cd1fd0a4f28419497f9722a3daafe3b4186f6b6457e08280a3005b3461014a57602036600319011261014a576004356105b76107fb565b6127108110156105f2576020817f8c4d35e54a3f2ef1134138fd8ea3daee6a3c89e10d2665996babdf70261e2c7692600455604051908152a1005b60405162461bcd60e51b815260206004820152600b60248201526a496e76616c69642066656560a81b6044820152606490fd5b3461014a57606036600319011261014a5760206106436102816106f1565b604051908152f35b3461014a575f36600319011261014a576020600454604051908152f35b3461014a575f36600319011261014a57602060405160198152f35b3461014a57602036600319011261014a5760043560035481101561014a576106ac6020916106c5565b905460405160039290921b1c6001600160a01b03168152f35b6003548110156106dd5760035f5260205f2001905f90565b634e487b7160e01b5f52603260045260245ffd5b600435906001600160a01b038216820361014a57565b602435906001600160a01b038216820361014a57565b60443590811515820361014a57565b80548210156106dd575f5260205f209060021b01905f90565b916001600160a01b038281169084168082146107c357116107bb575b6040519160208301936001600160601b03199060601b1684526001600160601b03199060601b166034830152151560f81b6048820152602981526060810181811067ffffffffffffffff8211176104df5760405251902090565b919091610761565b60405162461bcd60e51b815260206004820152601060248201526f4964656e746963616c20746f6b656e7360801b6044820152606490fd5b5f546001600160a01b0316330361080e57565b63118cdaa760e01b5f523360045260245ffdfe60806040523461047c57611bb06080813803918261001c81610480565b93849283398101031261047c57610032816104a5565b9061003f602082016104a5565b916100516060604084015193016104a5565b9261005c6040610480565b600c81526b0417263686974656374204c560a41b602082015261007f6040610480565b60038152620614c560ec1b6020820152815190916001600160401b03821161037f5760035490600182811c92168015610472575b60208310146103615781601f849311610404575b50602090601f831160011461039e575f92610393575b50508160011b915f199060031b1c1916176003555b8051906001600160401b03821161037f5760045490600182811c92168015610375575b60208310146103615781601f8493116102f3575b50602090601f831160011461028d575f92610282575b50508160011b915f199060031b1c1916176004555b60017f9b779b17422d0df92223018b32b4d1fa46e071723d6817e2486d003becc55f0055331561026f5760058054610100600160a81b0319811633600881811b610100600160a81b031692909217909355604051939291901c6001600160a01b03167f8be0079c531659141344cd1fd0a4f28419497f9722a3daafe3b4186f6b6457e05f80a36001600160a01b0390811692169081831461023a575060018060a01b0319600654161760065560018060a01b0319600754161760075560095560018060a01b031660018060a01b031960085416176008556040516116f690816104ba8239f35b62461bcd60e51b815260206004820152601060248201526f4964656e746963616c20746f6b656e7360801b6044820152606490fd5b631e4fbdf760e01b5f525f60045260245ffd5b015190505f8061013f565b60045f9081528281209350601f198516905b8181106102db57509084600195949392106102c3575b505050811b01600455610154565b01515f1960f88460031b161c191690555f80806102b5565b9293602060018192878601518155019501930161029f565b60045f529091507f8a35acfbc15ff81a39ae7d344fd709f28e8600b4aa8c65c6b64bfe7fe36bd19b601f840160051c81019160208510610357575b90601f859493920160051c01905b8181106103495750610129565b5f815584935060010161033c565b909150819061032e565b634e487b7160e01b5f52602260045260245ffd5b91607f1691610115565b634e487b7160e01b5f52604160045260245ffd5b015190505f806100dd565b60035f9081528281209350601f198516905b8181106103ec57509084600195949392106103d4575b505050811b016003556100f2565b01515f1960f88460031b161c191690555f80806103c6565b929360206001819287860151815501950193016103b0565b60035f529091507fc2575a0e9e593c00f959f8c92f12db2869c3395a3b0502d05e2516446f71f85b601f840160051c81019160208510610468575b90601f859493920160051c01905b81811061045a57506100c7565b5f815584935060010161044d565b909150819061043f565b91607f16916100b3565b5f80fd5b6040519190601f01601f191682016001600160401b0381118382101761037f57604052565b51906001600160a01b038216820361047c5756fe60806040526004361015610011575f80fd5b5f3560e01c806305fe138b14610f4657806306fdde0314610e8b5780630902f1ac14610e67578063095ea7b314610de55780630dfe168114610dbd57806318160ddd14610da057806323b872dd14610cc1578063313ce56714610ca65780633f4ba83a14610c33578063443cb4bc14610c165780635a76f25e14610bf95780635c975abb14610bd757806369fe0e2d14610b4057806370085be0146108b957806370a0823114610882578063715018a6146108235780638456cb59146107bd57806387b21efc146104795780638da5cb5b1461044d57806395d89b4114610349578063a9059cbb14610318578063b8606eef146102fb578063ba9a7a56146102df578063c45a0155146102b7578063d21220a71461028f578063dd62ed3e1461023f578063e1a4521814610223578063f140a35a146101f55763f2fde38b14610158575f80fd5b346101f15760203660031901126101f1576101716111ee565b61017961160c565b6001600160a01b0381169081156101de5760058054610100600160a81b03198116600893841b610100600160a81b031617909155901c6001600160a01b03167f8be0079c531659141344cd1fd0a4f28419497f9722a3daafe3b4186f6b6457e05f80a3005b631e4fbdf760e01b5f525f60045260245ffd5b5f80fd5b346101f15760403660031901126101f157602061021b6102136111d8565b6004356112e6565b604051908152f35b346101f1575f3660031901126101f15760206040516127108152f35b346101f15760403660031901126101f1576102586111ee565b6102606111d8565b6001600160a01b039182165f908152600160209081526040808320949093168252928352819020549051908152f35b346101f1575f3660031901126101f1576007546040516001600160a01b039091168152602090f35b346101f1575f3660031901126101f1576008546040516001600160a01b039091168152602090f35b346101f1575f3660031901126101f15760206040516103e88152f35b346101f1575f3660031901126101f1576020600954604051908152f35b346101f15760403660031901126101f15761033e6103346111ee565b6024359033611562565b602060405160018152f35b346101f1575f3660031901126101f1576040515f6004548060011c90600181168015610443575b60208310811461042f5782855290811561040b57506001146103ad575b6103a98361039d81850382611275565b6040519182918261121a565b0390f35b91905060045f527f8a35acfbc15ff81a39ae7d344fd709f28e8600b4aa8c65c6b64bfe7fe36bd19b915f905b8082106103f15750909150810160200161039d61038d565b9192600181602092548385880101520191019092916103d9565b60ff191660208086019190915291151560051b8401909101915061039d905061038d565b634e487b7160e01b5f52602260045260245ffd5b91607f1691610370565b346101f1575f3660031901126101f15760055460405160089190911c6001600160a01b03168152602090f35b346101f15760603660031901126101f157602435600435610498611204565b906104a16113c2565b6104a96113fa565b801515806107b4575b1561077d57600254806106e457506104ca8382611244565b915f60038411156106d55750828060011c600181018091116106c157905b8482106106a25750505b826103e881106106495761050591611636565b6006546040516370a0823160e01b815230600482015290602090829060249082906001600160a01b03165afa801561060b575f90610616575b6007546040516370a0823160e01b81523060048201529250602090839060249082906001600160a01b03165afa91821561060b575f926105d6575b50600a55600b5560408051918252602080830194909452810182905233907fb4c03061fb5b7fed76389d5af8f2e0ddb09f8c70d1333abbb62582835e10accb90606090a260015f5160206116a15f395f51905f5255604051908152f35b9091506020813d602011610603575b816105f260209383611275565b810103126101f15751906020610579565b3d91506105e5565b6040513d5f823e3d90fd5b506020813d602011610641575b8161063060209383611275565b810103126101f1576024905161053e565b3d9150610623565b60405162461bcd60e51b815260206004820152602b60248201527f506f6f6c3a20494e53554646494349454e545f494e495449414c5f4c4951554960448201526a1112551657d3525395115160aa1b6064820152608490fd5b9093506106b8846106b38184611257565b611693565b60011c906104e8565b634e487b7160e01b5f52601160045260245ffd5b92156104f257600192506104f2565b6107106107076107006106f78486611244565b600a5490611257565b9286611244565b600b5490611257565b808210156107755750915b8280156107305761072b91611636565b610505565b60405162461bcd60e51b815260206004820152601d60248201527f496e73756666696369656e74206c6971756964697479206d696e7465640000006044820152606490fd5b90509161071b565b60405162461bcd60e51b815260206004820152600f60248201526e496e76616c696420616d6f756e747360881b6044820152606490fd5b508215156104b2565b346101f1575f3660031901126101f1576107e260018060a01b036008541633146112ab565b6107ea6113fa565b600160ff1960055416176005557f62e78cea01bee320cd4e420270b5ea74000d11b0c9f74754ebdbfc544b05a2586020604051338152a1005b346101f1575f3660031901126101f15761083b61160c565b60058054610100600160a81b031981169091555f9060081c6001600160a01b03167f8be0079c531659141344cd1fd0a4f28419497f9722a3daafe3b4186f6b6457e08280a3005b346101f15760203660031901126101f1576001600160a01b036108a36111ee565b165f525f602052602060405f2054604051908152f35b346101f15760803660031901126101f1576004356108d56111d8565b906108de611204565b6108e66113c2565b6108ee6113fa565b8115610b0e576006546001600160a01b038481169116818114808015610afa575b15610ac35715610ab957506007546001600160a01b031693610932905b846112e6565b926064358410610a83576024946001600160a01b03169261095590859085611415565b6006546040516370a0823160e01b81523060048201529560209187919082906001600160a01b03165afa801561060b575f90610a50575b6007546040516370a0823160e01b81523060048201529650602090879060249082906001600160a01b03165afa90811561060b575f91610a1b575b60209650600a55600b5560405190815283858201527f5380cf97d8f645d3c4896da60c053458dca03a3a31cec642ac80e1ddf0d8d02a60403392a460015f5160206116a15f395f51905f5255604051908152f35b90506020863d602011610a48575b81610a3660209383611275565b810103126101f15760209551906109c7565b3d9150610a29565b506020853d602011610a7b575b81610a6a60209383611275565b810103126101f1576024945161098c565b3d9150610a5d565b60405162461bcd60e51b815260206004820152600e60248201526d14db1a5c1c1859d9481b1a5b5a5d60921b6044820152606490fd5b610932909461092c565b60405162461bcd60e51b815260206004820152600f60248201526e24b73b30b634b2103a37b5b2b724b760891b6044820152606490fd5b506007546001600160a01b0316831461090f565b60405162461bcd60e51b815260206004820152600a60248201526916995c9bc81a5b9c1d5d60b21b6044820152606490fd5b346101f15760203660031901126101f157600435610b6960018060a01b036008541633146112ab565b612710811015610ba4576020817f8c4d35e54a3f2ef1134138fd8ea3daee6a3c89e10d2665996babdf70261e2c7692600955604051908152a1005b60405162461bcd60e51b815260206004820152600b60248201526a496e76616c69642066656560a81b6044820152606490fd5b346101f1575f3660031901126101f157602060ff600554166040519015158152f35b346101f1575f3660031901126101f1576020600b54604051908152f35b346101f1575f3660031901126101f1576020600a54604051908152f35b346101f1575f3660031901126101f157610c5860018060a01b036008541633146112ab565b60055460ff811615610c975760ff19166005557f5db9ee0a495bf2e6ff9c91a7834c1ba4fdd244a5e8aa4e537bd38aeae4b073aa6020604051338152a1005b638dfc202b60e01b5f5260045ffd5b346101f1575f3660031901126101f157602060405160128152f35b346101f15760603660031901126101f157610cda6111ee565b610ce26111d8565b6001600160a01b0382165f818152600160209081526040808320338452909152902054909260443592915f198110610d20575b5061033e9350611562565b838110610d85578415610d72573315610d5f5761033e945f52600160205260405f2060018060a01b0333165f526020528360405f209103905584610d15565b634a1406b160e11b5f525f60045260245ffd5b63e602df0560e01b5f525f60045260245ffd5b8390637dc7a0d960e11b5f523360045260245260445260645ffd5b346101f1575f3660031901126101f1576020600254604051908152f35b346101f1575f3660031901126101f1576006546040516001600160a01b039091168152602090f35b346101f15760403660031901126101f157610dfe6111ee565b602435903315610d72576001600160a01b0316908115610d5f57335f52600160205260405f20825f526020528060405f20556040519081527f8c5be1e5ebec7d5bd14f71427d1e84f3dd0314c0f7b2291e5b200ac8c7c3b92560203392a3602060405160018152f35b346101f1575f3660031901126101f1576040600a54600b5482519182526020820152f35b346101f1575f3660031901126101f1576040515f6003548060011c90600181168015610f3c575b60208310811461042f5782855290811561040b5750600114610ede576103a98361039d81850382611275565b91905060035f527fc2575a0e9e593c00f959f8c92f12db2869c3395a3b0502d05e2516446f71f85b915f905b808210610f225750909150810160200161039d61038d565b919260018160209254838588010152019101909291610f0a565b91607f1691610eb2565b346101f15760403660031901126101f157600435610f626111d8565b610f6a6113c2565b610f726113fa565b81156111a55760025490610fa1610f9483610f8f86600a54611244565b611257565b92610f8f85600b54611244565b90331561119257335f525f60205260405f20548481106111775782859260249661103193335f525f6020520360405f205583600254036002555f6040518581527fddf252ad1be2c89b69c2b068fc378daa952ba7f163c4a11628f55a4df523b3ef60203392a360065461102090879083906001600160a01b0316611415565b6007546001600160a01b0316611415565b6006546040516370a0823160e01b81523060048201529460209186919082906001600160a01b03165afa801561060b575f90611144575b6007546040516370a0823160e01b81523060048201529550602090869060249082906001600160a01b03165afa90811561060b575f9161110f575b60409550600a55600b557f743033787f4738ff4d6a7225ce2bd0977ee5f86b91a902a58f5e4d0b297b46448451806110ef33948688846040919493926060820195825260208201520152565b0390a260015f5160206116a15f395f51905f525582519182526020820152f35b90506020853d60201161113c575b8161112a60209383611275565b810103126101f15760409451906110a3565b3d915061111d565b506020843d60201161116f575b8161115e60209383611275565b810103126101f15760249351611068565b3d9150611151565b849063391434e360e21b5f523360045260245260445260645ffd5b634b637e8f60e11b5f525f60045260245ffd5b60405162461bcd60e51b815260206004820152600b60248201526a5a65726f2073686172657360a81b6044820152606490fd5b602435906001600160a01b03821682036101f157565b600435906001600160a01b03821682036101f157565b604435906001600160a01b03821682036101f157565b602060409281835280519182918282860152018484015e5f828201840152601f01601f1916010190565b818102929181159184041417156106c157565b8115611261570490565b634e487b7160e01b5f52601260045260245ffd5b90601f8019910116810190811067ffffffffffffffff82111761129757604052565b634e487b7160e01b5f52604160045260245ffd5b156112b257565b60405162461bcd60e51b815260206004820152600c60248201526b4f6e6c7920666163746f727960a01b6044820152606490fd5b908115611388576006546001600160a01b0391821691160361137c57600a5490600b545b82151580611373575b1561133557611332926127109260095484030292839102019102611257565b90565b60405162461bcd60e51b8152602060048201526016602482015275496e73756666696369656e74206c697175696469747960501b6044820152606490fd5b50801515611313565b600b5490600a5461130a565b60405162461bcd60e51b8152602060048201526012602482015271125b9cdd59999a58da595b9d081a5b9c1d5d60721b6044820152606490fd5b60025f5160206116a15f395f51905f5254146113eb5760025f5160206116a15f395f51905f5255565b633ee5aeb560e01b5f5260045ffd5b60ff6005541661140657565b63d93c066560e01b5f5260045ffd5b5f929183809360405190602082019363a9059cbb60e01b855260018060a01b0316602483015260448201526044815261144f606482611275565b51926001600160a01b03165af13d1561155a573d9067ffffffffffffffff8211611297576040519161148b601f8201601f191660200184611275565b82523d5f602084013e5b15611515578051806114a5575050565b81602091810103126101f157602001518015908115036101f1576114c557565b60405162461bcd60e51b815260206004820152602260248201527f5361666545524332303a207472616e736665722072657475726e65642066616c604482015261736560f01b6064820152608490fd5b60405162461bcd60e51b815260206004820152601a60248201527f5361666545524332303a207472616e73666572206661696c65640000000000006044820152606490fd5b606090611495565b6001600160a01b0316908115611192576001600160a01b03169182156115f957815f525f60205260405f20548181106115e057817fddf252ad1be2c89b69c2b068fc378daa952ba7f163c4a11628f55a4df523b3ef92602092855f525f84520360405f2055845f525f825260405f20818154019055604051908152a3565b8263391434e360e21b5f5260045260245260445260645ffd5b63ec442f0560e01b5f525f60045260245ffd5b60055460081c6001600160a01b0316330361162357565b63118cdaa760e01b5f523360045260245ffd5b6001600160a01b03169081156115f9577fddf252ad1be2c89b69c2b068fc378daa952ba7f163c4a11628f55a4df523b3ef6020826116775f94600254611693565b60025584845283825260408420818154019055604051908152a3565b919082018092116106c15756fe9b779b17422d0df92223018b32b4d1fa46e071723d6817e2486d003becc55f00a26469706673582212202eae92865c0419b72bd101cb5c590808118d1e10c9d8e9d73efcd8222ca95bb964736f6c634300081e0033a2646970667358221220d7382fd853b778a65717231424c79d8e442fc04ddbfb2d466ecb90263322e58064736f6c634300081e0033",
  "linkReferences": {},
  "deployedLinkReferences": {}
}