{
  "_format": "hh-sol-artifact-1",
  "contractName": "CopyTrading",
  "sourceName": "contracts/modules/copyTrading/CopyTrading.sol",
  "abi": [
    {
      "inputs": [
        {
          "internalType": "address",
          "name": "_tokenA",
          "type": "address"
        },
        {
          "internalType": "address",
          "name": "_tokenB",
          "type": "address"
        },
        {
          "internalType": "address",
          "name": "_pointsTracker",
          "type": "address"
        },
        {
          "internalType": "address",
          "name": "_keeper",
          "type": "address"
        },
        {
          "internalType": "address",
          "name": "_owner",
          "type": "address"
        }
      ],
      "stateMutability": "nonpayable",
      "type": "constructor"
    },
    {
      "inputs": [],
      "name": "EnforcedPause",
      "type": "error"
    },
    {
      "inputs": [],
      "name": "ExpectedPause",
      "type": "error"
    },
    {
      "inputs": [
        {
          "internalType": "address",
          "name": "owner",
          "type": "address"
        }
      ],
      "name": "OwnableInvalidOwner",
      "type": "error"
    },
    {
      "inputs": [
        {
          "internalType": "address",
          "name": "account",
          "type": "address"
        }
      ],
      "name": "OwnableUnauthorizedAccount",
      "type": "error"
    },
    {
      "inputs": [],
      "name": "ReentrancyGuardReentrantCall",
      "type": "error"
    },
    {
      "anonymous": false,
      "inputs": [
        {
          "indexed": true,
          "internalType": "uint256",
          "name": "relationId",
          "type": "uint256"
        },
        {
          "indexed": true,
          "internalType": "address",
          "name": "copier",
          "type": "address"
        },
        {
          "indexed": true,
          "internalType": "address",
          "name": "trader",
          "type": "address"
        },
        {
          "indexed": false,
          "internalType": "uint256",
          "name": "allocation",
          "type": "uint256"
        }
      ],
      "name": "CopyStarted",
      "type": "event"
    },
    {
      "anonymous": false,
      "inputs": [
        {
          "indexed": true,
          "internalType": "uint256",
          "name": "relationId",
          "type": "uint256"
        }
      ],
      "name": "CopyStopped",
      "type": "event"
    },
    {
      "anonymous": false,
      "inputs": [
        {
          "indexed": true,
          "internalType": "uint256",
          "name": "copyTradeId",
          "type": "uint256"
        },
        {
          "indexed": false,
          "internalType": "int256",
          "name": "pnlTokenA",
          "type": "int256"
        },
        {
          "indexed": false,
          "internalType": "uint256",
          "name": "traderFee",
          "type": "uint256"
        }
      ],
      "name": "CopyTradeClosed",
      "type": "event"
    },
    {
      "anonymous": false,
      "inputs": [
        {
          "indexed": true,
          "internalType": "uint256",
          "name": "copyTradeId",
          "type": "uint256"
        },
        {
          "indexed": true,
          "internalType": "uint256",
          "name": "relationId",
          "type": "uint256"
        },
        {
          "indexed": false,
          "internalType": "uint256",
          "name": "masterPositionId",
          "type": "uint256"
        }
      ],
      "name": "CopyTradeOpened",
      "type": "event"
    },
    {
      "anonymous": false,
      "inputs": [
        {
          "indexed": true,
          "internalType": "address",
          "name": "newKeeper",
          "type": "address"
        }
      ],
      "name": "KeeperUpdated",
      "type": "event"
    },
    {
      "anonymous": false,
      "inputs": [
        {
          "indexed": true,
          "internalType": "address",
          "name": "previousOwner",
          "type": "address"
        },
        {
          "indexed": true,
          "internalType": "address",
          "name": "newOwner",
          "type": "address"
        }
      ],
      "name": "OwnershipTransferred",
      "type": "event"
    },
    {
      "anonymous": false,
      "inputs": [
        {
          "indexed": false,
          "internalType": "address",
          "name": "account",
          "type": "address"
        }
      ],
      "name": "Paused",
      "type": "event"
    },
    {
      "anonymous": false,
      "inputs": [
        {
          "indexed": true,
          "internalType": "address",
          "name": "trader",
          "type": "address"
        },
        {
          "indexed": false,
          "internalType": "uint256",
          "name": "amount",
          "type": "uint256"
        }
      ],
      "name": "TraderFeesClaimed",
      "type": "event"
    },
    {
      "anonymous": false,
      "inputs": [
        {
          "indexed": false,
          "internalType": "address",
          "name": "account",
          "type": "address"
        }
      ],
      "name": "Unpaused",
      "type": "event"
    },
    {
      "inputs": [],
      "name": "BPS",
      "outputs": [
        {
          "internalType": "uint256",
          "name": "",
          "type": "uint256"
        }
      ],
      "stateMutability": "view",
      "type": "function"
    },
    {
      "inputs": [],
      "name": "PERFORMANCE_FEE_BPS",
      "outputs": [
        {
          "internalType": "uint256",
          "name": "",
          "type": "uint256"
        }
      ],
      "stateMutability": "view",
      "type": "function"
    },
    {
      "inputs": [
        {
          "internalType": "address",
          "name": "",
          "type": "address"
        },
        {
          "internalType": "address",
          "name": "",
          "type": "address"
        }
      ],
      "name": "activeRelation",
      "outputs": [
        {
          "internalType": "uint256",
          "name": "",
          "type": "uint256"
        }
      ],
      "stateMutability": "view",
      "type": "function"
    },
    {
      "inputs": [],
      "name": "claimTraderFees",
      "outputs": [],
      "stateMutability": "nonpayable",
      "type": "function"
    },
    {
      "inputs": [
        {
          "internalType": "uint256",
          "name": "copyTradeId",
          "type": "uint256"
        },
        {
          "internalType": "uint256",
          "name": "exitPrice",
          "type": "uint256"
        }
      ],
      "name": "closeCopyTrade",
      "outputs": [],
      "stateMutability": "nonpayable",
      "type": "function"
    },
    {
      "inputs": [
        {
          "internalType": "uint256",
          "name": "",
          "type": "uint256"
        }
      ],
      "name": "copyTrades",
      "outputs": [
        {
          "internalType": "uint256",
          "name": "relationId",
          "type": "uint256"
        },
        {
          "internalType": "uint256",
          "name": "masterPositionId",
          "type": "uint256"
        },
        {
          "internalType": "uint256",
          "name": "marginUsed",
          "type": "uint256"
        },
        {
          "internalType": "uint256",
          "name": "entryPrice",
          "type": "uint256"
        },
        {
          "internalType": "bool",
          "name": "isLong",
          "type": "bool"
        },
        {
          "internalType": "bool",
          "name": "isOpen",
          "type": "bool"
        }
      ],
      "stateMutability": "view",
      "type": "function"
    },
    {
      "inputs": [
        {
          "internalType": "uint256",
          "name": "relationId",
          "type": "uint256"
        },
        {
          "internalType": "uint256",
          "name": "masterPositionId",
          "type": "uint256"
        },
        {
          "internalType": "bool",
          "name": "isLong",
          "type": "bool"
        },
        {
          "internalType": "uint256",
          "name": "entryPrice",
          "type": "uint256"
        },
        {
          "internalType": "uint256",
          "name": "marginProportion",
          "type": "uint256"
        }
      ],
      "name": "executeCopyTrade",
      "outputs": [],
      "stateMutability": "nonpayable",
      "type": "function"
    },
    {
      "inputs": [
        {
          "internalType": "uint256",
          "name": "amount",
          "type": "uint256"
        }
      ],
      "name": "fundRewardReserve",
      "outputs": [],
      "stateMutability": "nonpayable",
      "type": "function"
    },
    {
      "inputs": [
        {
          "internalType": "uint256",
          "name": "copyTradeId",
          "type": "uint256"
        }
      ],
      "name": "getCopyTrade",
      "outputs": [
        {
          "components": [
            {
              "internalType": "uint256",
              "name": "relationId",
              "type": "uint256"
            },
            {
              "internalType": "uint256",
              "name": "masterPositionId",
              "type": "uint256"
            },
            {
              "internalType": "uint256",
              "name": "marginUsed",
              "type": "uint256"
            },
            {
              "internalType": "uint256",
              "name": "entryPrice",
              "type": "uint256"
            },
            {
              "internalType": "bool",
              "name": "isLong",
              "type": "bool"
            },
            {
              "internalType": "bool",
              "name": "isOpen",
              "type": "bool"
            }
          ],
          "internalType": "struct CopyTrading.CopyTrade",
          "name": "",
          "type": "tuple"
        }
      ],
      "stateMutability": "view",
      "type": "function"
    },
    {
      "inputs": [
        {
          "internalType": "uint256",
          "name": "limit",
          "type": "uint256"
        }
      ],
      "name": "getEligibleTraders",
      "outputs": [
        {
          "internalType": "address[]",
          "name": "traders",
          "type": "address[]"
        },
        {
          "internalType": "uint256[]",
          "name": "pts",
          "type": "uint256[]"
        }
      ],
      "stateMutability": "view",
      "type": "function"
    },
    {
      "inputs": [
        {
          "internalType": "uint256",
          "name": "relationId",
          "type": "uint256"
        }
      ],
      "name": "getRelation",
      "outputs": [
        {
          "components": [
            {
              "internalType": "address",
              "name": "copier",
              "type": "address"
            },
            {
              "internalType": "address",
              "name": "trader",
              "type": "address"
            },
            {
              "internalType": "uint256",
              "name": "tokenAAllocation",
              "type": "uint256"
            },
            {
              "internalType": "uint256",
              "name": "maxLossBps",
              "type": "uint256"
            },
            {
              "internalType": "bool",
              "name": "active",
              "type": "bool"
            }
          ],
          "internalType": "struct CopyTrading.CopyRelation",
          "name": "",
          "type": "tuple"
        }
      ],
      "stateMutability": "view",
      "type": "function"
    },
    {
      "inputs": [],
      "name": "keeper",
      "outputs": [
        {
          "internalType": "address",
          "name": "",
          "type": "address"
        }
      ],
      "stateMutability": "view",
      "type": "function"
    },
    {
      "inputs": [],
      "name": "nextCopyTradeId",
      "outputs": [
        {
          "internalType": "uint256",
          "name": "",
          "type": "uint256"
        }
      ],
      "stateMutability": "view",
      "type": "function"
    },
    {
      "inputs": [],
      "name": "nextRelationId",
      "outputs": [
        {
          "internalType": "uint256",
          "name": "",
          "type": "uint256"
        }
      ],
      "stateMutability": "view",
      "type": "function"
    },
    {
      "inputs": [],
      "name": "owner",
      "outputs": [
        {
          "internalType": "address",
          "name": "",
          "type": "address"
        }
      ],
      "stateMutability": "view",
      "type": "function"
    },
    {
      "inputs": [],
      "name": "pause",
      "outputs": [],
      "stateMutability": "nonpayable",
      "type": "function"
    },
    {
      "inputs": [],
      "name": "paused",
      "outputs": [
        {
          "internalType": "bool",
          "name": "",
          "type": "bool"
        }
      ],
      "stateMutability": "view",
      "type": "function"
    },
    {
      "inputs": [],
      "name": "pointsTracker",
      "outputs": [
        {
          "internalType": "contract PointsTracker",
          "name": "",
          "type": "address"
        }
      ],
      "stateMutability": "view",
      "type": "function"
    },
    {
      "inputs": [
        {
          "internalType": "uint256",
          "name": "",
          "type": "uint256"
        }
      ],
      "name": "relations",
      "outputs": [
        {
          "internalType": "address",
          "name": "copier",
          "type": "address"
        },
        {
          "internalType": "address",
          "name": "trader",
          "type": "address"
        },
        {
          "internalType": "uint256",
          "name": "tokenAAllocation",
          "type": "uint256"
        },
        {
          "internalType": "uint256",
          "name": "maxLossBps",
          "type": "uint256"
        },
        {
          "internalType": "bool",
          "name": "active",
          "type": "bool"
        }
      ],
      "stateMutability": "view",
      "type": "function"
    },
    {
      "inputs": [],
      "name": "renounceOwnership",
      "outputs": [],
      "stateMutability": "nonpayable",
      "type": "function"
    },
    {
      "inputs": [],
      "name": "rewardReserve",
      "outputs": [
        {
          "internalType": "uint256",
          "name": "",
          "type": "uint256"
        }
      ],
      "stateMutability": "view",
      "type": "function"
    },
    {
      "inputs": [
        {
          "internalType": "address",
          "name": "_keeper",
          "type": "address"
        }
      ],
      "name": "setKeeper",
      "outputs": [],
      "stateMutability": "nonpayable",
      "type": "function"
    },
    {
      "inputs": [
        {
          "internalType": "address",
          "name": "trader",
          "type": "address"
        },
        {
          "internalType": "uint256",
          "name": "tokenAAlloc",
          "type": "uint256"
        },
        {
          "internalType": "uint256",
          "name": "maxLossBps",
          "type": "uint256"
        }
      ],
      "name": "startCopying",
      "outputs": [],
      "stateMutability": "nonpayable",
      "type": "function"
    },
    {
      "inputs": [
        {
          "internalType": "address",
          "name": "trader",
          "type": "address"
        }
      ],
      "name": "stopCopying",
      "outputs": [],
      "stateMutability": "nonpayable",
      "type": "function"
    },
    {
      "inputs": [],
      "name": "tokenA",
      "outputs": [
        {
          "internalType": "contract IERC20",
          "name": "",
          "type": "address"
        }
      ],
      "stateMutability": "view",
      "type": "function"
    },
    {
      "inputs": [],
      "name": "tokenB",
      "outputs": [
        {
          "internalType": "contract IERC20",
          "name": "",
          "type": "address"
        }
      ],
      "stateMutability": "view",
      "type": "function"
    },
    {
      "inputs": [
        {
          "internalType": "address",
          "name": "",
          "type": "address"
        }
      ],
      "name": "traderFees",
      "outputs": [
        {
          "internalType": "uint256",
          "name": "",
          "type": "uint256"
        }
      ],
      "stateMutability": "view",
      "type": "function"
    },
    {
      "inputs": [
        {
          "internalType": "address",
          "name": "newOwner",
          "type": "address"
        }
      ],
      "name": "transferOwnership",
      "outputs": [],
      "stateMutability": "nonpayable",
      "type": "function"
    },
    {
      "inputs": [],
      "name": "unpause",
      "outputs": [],
      "stateMutability": "nonpayable",
      "type": "function"
    }
  ],
  "bytecode": "0x60e03461019d57601f611d9038819003918201601f19168301916001600160401b038311848410176101a15780849260a09460405283398101031261019d57610047816101b5565b90610054602082016101b5565b610060604083016101b5565b9061006d606084016101b5565b926001600160a01b0390610083906080016101b5565b1693841561018a575f80546001600160a01b031981168717825560405196916001600160a01b03909116907f8be0079c531659141344cd1fd0a4f28419497f9722a3daafe3b4186f6b6457e09080a360017f9b779b17422d0df92223018b32b4d1fa46e071723d6817e2486d003becc55f00819055600281905560038190556001600160a01b0391821660805291811660a05291821660c05280546001600160a01b03191692909116919091179055611bc690816101ca823960805181818161099f01528181611281015281816118790152611933015260a051818181610b38015281816111330152611691015260c0518181816102fa0152818161121201526115db0152f35b631e4fbdf760e01b5f525f60045260245ffd5b5f80fd5b634e487b7160e01b5f52604160045260245ffd5b51906001600160a01b038216820361019d5756fe6080806040526004361015610012575f80fd5b5f3560e01c9081630fc63d1014611921575080631b25fa15146117565780631fd1e6d114611626578063249d39e91461160a578063398472f2146115c65780633e6a90ec146115a95780633f4ba83a1461153d5780635b01e374146115215780635b88b19f146111865780635c975abb146111625780635f64b55b1461111e578063715018a6146110c7578063748747e61461106157806375b9b02f14610e1b5780637e6e2a4b14610dbe5780638456cb5914610d5e5780638da5cb5b14610d375780638ffe634314610c705780639b73c0cd14610ba1578063a611972d14610aea578063aced166114610ac2578063cab64bcd14610aa5578063d53ab48a146106d7578063d60fe9401461069f578063f1d7a89f146102d2578063f2fde38b1461024d578063f6af804014610230578063fa16860c146101c85763fd9b2dd21461015b575f80fd5b346101c45760203660031901126101c4576004355f52600560205260a060405f20600180831b0381541690600180841b0360018201541690600281015460ff60046003840154930154169260405194855260208501526040840152606083015215156080820152f35b5f80fd5b346101c45760203660031901126101c4576004355f52600660205260c060405f2060ff815491600181015490600281015460046003830154920154926040519586526020860152604085015260608401528181161515608084015260081c16151560a0820152f35b346101c4575f3660031901126101c4576020600354604051908152f35b346101c45760203660031901126101c457610266611962565b61026e611b2d565b6001600160a01b031680156102bf575f80546001600160a01b03198116831782556001600160a01b0316907f8be0079c531659141344cd1fd0a4f28419497f9722a3daafe3b4186f6b6457e09080a3005b631e4fbdf760e01b5f525f60045260245ffd5b346101c45760203660031901126101c4576040516351a5a37f60e11b815260048035908201527f00000000000000000000000000000000000000000000000000000000000000006001600160a01b0316905f81602481855afa9081156103d7575f905f9261058c575b505f905f5b81518110156103e2576001600160a01b0361035b8284611acd565b51604051632a50743b60e01b815291166004820152602081602481895afa9081156103d7575f916103a9575b50610395575b600101610340565b916103a1600191611a3c565b92905061038d565b6103ca915060203d81116103d0575b6103c281836119c4565b8101906119e6565b86610387565b503d6103b8565b6040513d5f823e3d90fd5b5092906103ee81611ab5565b906103fc60405192836119c4565b80825261040881611ab5565b602083019490601f190136863761043761042183611ab5565b9261042f60405194856119c4565b808452611ab5565b602083019390601f19013685375f935f5b8851811015610505576001600160a01b03610463828b611acd565b51604051632a50743b60e01b8152911660048201526020816024818b5afa9081156103d7575f916104e7575b5061049d575b600101610448565b946001906104df906001600160a01b036104b7898d611acd565b51166104c38287611acd565b526104ce8887611acd565b516104d98289611acd565b52611a3c565b959050610495565b6104ff915060203d81116103d0576103c281836119c4565b8a61048f565b5090839187604051938493604085019060408652518091526060850192905f5b81811061056a575050506020908483038286015251918281520191905f5b818110610551575050500390f35b8251845285945060209384019390920191600101610543565b82516001600160a01b0316855287965060209485019490920191600101610525565b9150503d805f833e61059e81836119c4565b8101906040818303126101c457805167ffffffffffffffff81116101c45781019082601f830112156101c45781516105d581611ab5565b926105e360405194856119c4565b81845260208085019260051b820101908582116101c457602001915b81831061067f5750505060208101519067ffffffffffffffff82116101c457019180601f840112156101c457825161063681611ab5565b9361064460405195866119c4565b81855260208086019260051b8201019283116101c457602001905b82821061066f575050508361033b565b815181526020918201910161065f565b82516001600160a01b03811681036101c4578152602092830192016105ff565b346101c45760203660031901126101c4576001600160a01b036106c0611962565b165f526008602052602060405f2054604051908152f35b346101c45760403660031901126101c45760043560243560018060a01b036001541633148015610a92575b61070b90611a4a565b610713611af5565b815f52600660205260ff600460405f20015460081c1615610a5c57815f52600660205260405f20600481019182549261ff00198416905581545f52600560205260ff60405f2093165f14610a4857600382015461076f91611a90565b905b600281015490828202905f8312600160ff1b85141661088d578215938383051484171561088d5760030154908115610a3457600160ff1b81145f1983141661088d5705915f91828413156108a1575050506103e88102908082046103e8148115171561088d576004547f1bb343de2548ea251c7aac699967f4f0fb2b5b61c1b9ad20bba81968bff911dd9360409361271090049182116108785761081782600454611aa8565b60045560018060a01b036001820154165f526008602052835f2061083c838254611a83565b9055610857600261084d8486611aa8565b9201918254611a83565b90555b82519182526020820152a260015f516020611b715f395f51905f5255005b600201610886838254611a83565b905561085a565b634e487b7160e01b5f52601160045260245ffd5b600160ff95929394951b851461088d57845f0392612710840290848204612710148715171561088d57610a3457046108e68360028401948554809111610a2c57611aa8565b835560038201541061091f575b50507f1bb343de2548ea251c7aac699967f4f0fb2b5b61c1b9ad20bba81968bff911dd9160409161085a565b60048101805460ff1916905580546001600160a01b039081165f908152600760209081526040808320600186015490941683529290529081205581549182610968575b506108f3565b5f90555460405163a9059cbb60e01b81526001600160a01b039091166004820152602481019190915291602083806044810103815f7f00000000000000000000000000000000000000000000000000000000000000006001600160a01b03165af19182156103d757610a056040937f1bb343de2548ea251c7aac699967f4f0fb2b5b61c1b9ad20bba81968bff911dd955f91610a0d575b506119fe565b918193610962565b610a26915060203d6020116103d0576103c281836119c4565b876109ff565b905080611aa8565b634e487b7160e01b5f52601260045260245ffd5b610a56906003830154611a90565b90610771565b60405162461bcd60e51b815260206004820152600e60248201526d2a3930b232903737ba1037b832b760911b6044820152606490fd5b505f546001600160a01b03163314610702565b346101c4575f3660031901126101c4576020600454604051908152f35b346101c4575f3660031901126101c4576001546040516001600160a01b039091168152602090f35b346101c45760203660031901126101c457600435610b06611b2d565b6040516323b872dd60e01b815233600482015230602482015260448101829052906020826064815f6001600160a01b037f0000000000000000000000000000000000000000000000000000000000000000165af19182156103d757610b7d92610b75915f91610b8257506119fe565b600454611a83565b600455005b610b9b915060203d6020116103d0576103c281836119c4565b846109ff565b346101c45760203660031901126101c4575f60a0604051610bc1816119a8565b82815282602082015282604082015282606082015282608082015201526004355f52600660205260c060405f2060405190610bfb826119a8565b8054918281526001820154916020820192835260028101546040830190815260046003830154926060850193845201549360ff60a0608086019582881615158752019560081c1615158552604051958652516020860152516040850152516060840152511515608083015251151560a0820152f35b346101c45760203660031901126101c4575f6080604051610c9081611978565b82815282602082015282604082015282606082015201526004355f52600560205260a060405f20604051610cc381611978565b600180841b0382541691828252600180851b036001820154166020830190815260028201549060408401918252608060ff60046003860154956060880196875201541694019315158452604051948552600180871b0390511660208501525160408401525160608301525115156080820152f35b346101c4575f3660031901126101c4575f546040516001600160a01b039091168152602090f35b346101c4575f3660031901126101c457610d76611b2d565b610d7e611b53565b5f805460ff60a01b1916600160a01b1790556040513381527f62e78cea01bee320cd4e420270b5ea74000d11b0c9f74754ebdbfc544b05a25890602090a1005b346101c45760403660031901126101c457610dd7611962565b602435906001600160a01b03821682036101c45760018060a01b03165f52600760205260405f209060018060a01b03165f52602052602060405f2054604051908152f35b346101c45760a03660031901126101c457600435602435604435908115158092036101c45760843560018060a01b03600154163314801561104e575b610e6090611a4a565b610e68611af5565b835f52600560205260ff600460405f20015416156110135780151580611007575b15610fcd57835f526005602052600260405f20015481810291818304149015171561088d576127109004918215610f92577f9513ac394a8c4592548b538fa0adff85536a0c283e0b80bd8626411378e25cfa9160209160035494610eec86611a3c565b600355610f636004604051610f00816119a8565b8981528681019386855260408201908152606082019060643582526080830196875260a0830195600187528b5f5260068a5260405f20935184555160018401555160028301555160038201550192511515839060ff801983541691151516179055565b51815461ff00191690151560081b61ff0016179055604051908152a360015f516020611b715f395f51905f5255005b60405162461bcd60e51b815260206004820152601360248201527224b739bab33334b1b4b2b73a1036b0b933b4b760691b6044820152606490fd5b60405162461bcd60e51b815260206004820152601260248201527124b73b30b634b210383937b837b93a34b7b760711b6044820152606490fd5b50612710811115610e89565b60405162461bcd60e51b815260206004820152601360248201527252656c6174696f6e206e6f742061637469766560681b6044820152606490fd5b505f546001600160a01b03163314610e57565b346101c45760203660031901126101c45761107a611962565b611082611b2d565b600180546001600160a01b0319166001600160a01b039290921691821790557f0425bcd291db1d48816f2a98edc7ecaf6dd5c64b973d9e4b3b6b750763dc6c2e5f80a2005b346101c4575f3660031901126101c4576110df611b2d565b5f80546001600160a01b0319811682556001600160a01b03167f8be0079c531659141344cd1fd0a4f28419497f9722a3daafe3b4186f6b6457e08280a3005b346101c4575f3660031901126101c4576040517f00000000000000000000000000000000000000000000000000000000000000006001600160a01b03168152602090f35b346101c4575f3660031901126101c457602060ff5f5460a01c166040519015158152f35b346101c45760603660031901126101c45761119f611962565b602435604435916111ae611af5565b6111b6611b53565b6001600160a01b0316913383146114e95781156114af57801515806114a3575b1561146b57335f52600760205260405f20835f5260205260405f205461143457604051632a50743b60e01b8152600481018490526020816024817f00000000000000000000000000000000000000000000000000000000000000006001600160a01b03165afa9081156103d7575f91611415575b50156113da576040516323b872dd60e01b8152336004820152306024820152604481018390526020816064815f6001600160a01b037f0000000000000000000000000000000000000000000000000000000000000000165af180156103d7576112b9915f916113bb57506119fe565b611364600254916112c983611a3c565b6002556004604051916112db83611978565b33835260208084018881526040808601898152606087019485526001608088018181525f8b8152600590965292909420965187546001600160a01b039182166001600160a01b0319918216178955935194880180549590911694909316939093179091559051600285015590516003840155519101805460ff191691151560ff16919091179055565b335f52600760205260405f20835f526020528060405f20556040519182527fedf1facd0552d1226260f40c408fd74a261e2c567cb3f67b90030fc05f3ceaa060203393a460015f516020611b715f395f51905f5255005b6113d4915060203d6020116103d0576103c281836119c4565b856109ff565b60405162461bcd60e51b8152602060048201526013602482015272547261646572206e6f7420656c696769626c6560681b6044820152606490fd5b61142e915060203d6020116103d0576103c281836119c4565b8461124a565b60405162461bcd60e51b815260206004820152600f60248201526e416c726561647920636f7079696e6760881b6044820152606490fd5b60405162461bcd60e51b815260206004820152601060248201526f496e76616c6964206d6178206c6f737360801b6044820152606490fd5b506127108111156111d6565b60405162461bcd60e51b815260206004820152601260248201527124b73b30b634b21030b63637b1b0ba34b7b760711b6044820152606490fd5b60405162461bcd60e51b815260206004820152601060248201526f21b0b73737ba1031b7b83c9039b2b63360811b6044820152606490fd5b346101c4575f3660031901126101c45760206040516103e88152f35b346101c4575f3660031901126101c457611555611b2d565b5f5460ff8160a01c161561159a5760ff60a01b19165f556040513381527f5db9ee0a495bf2e6ff9c91a7834c1ba4fdd244a5e8aa4e537bd38aeae4b073aa90602090a1005b638dfc202b60e01b5f5260045ffd5b346101c4575f3660031901126101c4576020600254604051908152f35b346101c4575f3660031901126101c4576040517f00000000000000000000000000000000000000000000000000000000000000006001600160a01b03168152602090f35b346101c4575f3660031901126101c45760206040516127108152f35b346101c4575f3660031901126101c45761163e611af5565b335f52600860205260405f2054801561172757335f8181526008602090815260408083208390555163a9059cbb60e01b815260048101939093526024830184905290829060449082906001600160a01b037f0000000000000000000000000000000000000000000000000000000000000000165af180156103d7576116c9915f9161170857506119fe565b6040519081527f2f83e2020e7a501e1fc2d14d786a362bf2dba300c44cc97d4c03e42af041bdbd60203392a260015f516020611b715f395f51905f5255005b611721915060203d6020116103d0576103c281836119c4565b836109ff565b60405162461bcd60e51b81526020600482015260076024820152664e6f206665657360c81b6044820152606490fd5b346101c45760203660031901126101c45761176f611962565b611777611af5565b335f52600760205260405f2060018060a01b0382165f5260205260405f20549081156118ee57815f52600560205260ff600460405f20015416156118b7575f82815260056020818152604080842060048101805460ff19169055338552600783528185206001600160a01b03909616855294825283208390559184905290526002015480611838575b507feab9f99664e862f74930a9a4f3c7a24aadaca9c46b2430548b25ba9c8cae82205f80a260015f516020611b715f395f51905f5255005b5f8281526005602090815260408083206002018390555163a9059cbb60e01b8152336004820152602481019390935290829060449082906001600160a01b037f0000000000000000000000000000000000000000000000000000000000000000165af180156103d7576118b1915f9161170857506119fe565b81611800565b60405162461bcd60e51b815260206004820152600f60248201526e105b1c9958591e481cdd1bdc1c1959608a1b6044820152606490fd5b60405162461bcd60e51b815260206004820152600b60248201526a4e6f7420636f7079696e6760a81b6044820152606490fd5b346101c4575f3660031901126101c4577f00000000000000000000000000000000000000000000000000000000000000006001600160a01b03168152602090f35b600435906001600160a01b03821682036101c457565b60a0810190811067ffffffffffffffff82111761199457604052565b634e487b7160e01b5f52604160045260245ffd5b60c0810190811067ffffffffffffffff82111761199457604052565b90601f8019910116810190811067ffffffffffffffff82111761199457604052565b908160209103126101c4575180151581036101c45790565b15611a0557565b60405162461bcd60e51b815260206004820152600f60248201526e151c985b9cd9995c8819985a5b1959608a1b6044820152606490fd5b5f19811461088d5760010190565b15611a5157565b60405162461bcd60e51b815260206004820152600a6024820152692737ba1035b2b2b832b960b11b6044820152606490fd5b9190820180921161088d57565b81810392915f13801582851316918412161761088d57565b9190820391821161088d57565b67ffffffffffffffff81116119945760051b60200190565b8051821015611ae15760209160051b010190565b634e487b7160e01b5f52603260045260245ffd5b60025f516020611b715f395f51905f525414611b1e5760025f516020611b715f395f51905f5255565b633ee5aeb560e01b5f5260045ffd5b5f546001600160a01b03163303611b4057565b63118cdaa760e01b5f523360045260245ffd5b60ff5f5460a01c16611b6157565b63d93c066560e01b5f5260045ffdfe9b779b17422d0df92223018b32b4d1fa46e071723d6817e2486d003becc55f00a26469706673582212209bef6c77a97869c2378d931c44882c07831a3d13cda715198738c3db16f8505a64736f6c634300081e0033",
  "linkReferences": {},
  "deployedLinkReferences": {}
}