{
  "_format": "hh-sol-artifact-1",
  "contractName": "CCIPBridge",
  "sourceName": "contracts/bridge/CCIPBridge.sol",
  "abi": [
    {
      "inputs": [
        {
          "internalType": "address",
          "name": "initialOwner",
          "type": "address"
        }
      ],
      "stateMutability": "nonpayable",
      "type": "constructor"
    },
    {
      "inputs": [],
      "name": "EnforcedPause",
      "type": "error"
    },
    {
      "inputs": [],
      "name": "ExpectedPause",
      "type": "error"
    },
    {
      "inputs": [
        {
          "internalType": "address",
          "name": "owner",
          "type": "address"
        }
      ],
      "name": "OwnableInvalidOwner",
      "type": "error"
    },
    {
      "inputs": [
        {
          "internalType": "address",
          "name": "account",
          "type": "address"
        }
      ],
      "name": "OwnableUnauthorizedAccount",
      "type": "error"
    },
    {
      "anonymous": false,
      "inputs": [
        {
          "indexed": false,
          "internalType": "bytes32",
          "name": "messageId",
          "type": "bytes32"
        },
        {
          "indexed": true,
          "internalType": "address",
          "name": "sender",
          "type": "address"
        },
        {
          "indexed": false,
          "internalType": "uint256",
          "name": "amount",
          "type": "uint256"
        }
      ],
      "name": "MessageReceived",
      "type": "event"
    },
    {
      "anonymous": false,
      "inputs": [
        {
          "indexed": true,
          "internalType": "address",
          "name": "sender",
          "type": "address"
        },
        {
          "indexed": true,
          "internalType": "uint256",
          "name": "nonce",
          "type": "uint256"
        },
        {
          "indexed": false,
          "internalType": "uint64",
          "name": "destinationChain",
          "type": "uint64"
        },
        {
          "indexed": false,
          "internalType": "uint256",
          "name": "amount",
          "type": "uint256"
        }
      ],
      "name": "MessageSent",
      "type": "event"
    },
    {
      "anonymous": false,
      "inputs": [
        {
          "indexed": true,
          "internalType": "address",
          "name": "previousOwner",
          "type": "address"
        },
        {
          "indexed": true,
          "internalType": "address",
          "name": "newOwner",
          "type": "address"
        }
      ],
      "name": "OwnershipTransferred",
      "type": "event"
    },
    {
      "anonymous": false,
      "inputs": [
        {
          "indexed": false,
          "internalType": "address",
          "name": "account",
          "type": "address"
        }
      ],
      "name": "Paused",
      "type": "event"
    },
    {
      "anonymous": false,
      "inputs": [
        {
          "indexed": true,
          "internalType": "address",
          "name": "user",
          "type": "address"
        },
        {
          "indexed": false,
          "internalType": "uint256",
          "name": "maxPerDay",
          "type": "uint256"
        }
      ],
      "name": "RateLimitUpdated",
      "type": "event"
    },
    {
      "anonymous": false,
      "inputs": [
        {
          "indexed": false,
          "internalType": "address",
          "name": "account",
          "type": "address"
        }
      ],
      "name": "Unpaused",
      "type": "event"
    },
    {
      "inputs": [],
      "name": "RATE_LIMIT_WINDOW",
      "outputs": [
        {
          "internalType": "uint256",
          "name": "",
          "type": "uint256"
        }
      ],
      "stateMutability": "view",
      "type": "function"
    },
    {
      "inputs": [],
      "name": "defaultMaxPerDay",
      "outputs": [
        {
          "internalType": "uint256",
          "name": "",
          "type": "uint256"
        }
      ],
      "stateMutability": "view",
      "type": "function"
    },
    {
      "inputs": [],
      "name": "defaultMaxPerTransaction",
      "outputs": [
        {
          "internalType": "uint256",
          "name": "",
          "type": "uint256"
        }
      ],
      "stateMutability": "view",
      "type": "function"
    },
    {
      "inputs": [
        {
          "internalType": "address",
          "name": "",
          "type": "address"
        }
      ],
      "name": "nonces",
      "outputs": [
        {
          "internalType": "uint256",
          "name": "",
          "type": "uint256"
        }
      ],
      "stateMutability": "view",
      "type": "function"
    },
    {
      "inputs": [],
      "name": "owner",
      "outputs": [
        {
          "internalType": "address",
          "name": "",
          "type": "address"
        }
      ],
      "stateMutability": "view",
      "type": "function"
    },
    {
      "inputs": [],
      "name": "paused",
      "outputs": [
        {
          "internalType": "bool",
          "name": "",
          "type": "bool"
        }
      ],
      "stateMutability": "view",
      "type": "function"
    },
    {
      "inputs": [
        {
          "internalType": "bytes32",
          "name": "",
          "type": "bytes32"
        }
      ],
      "name": "processedMessages",
      "outputs": [
        {
          "internalType": "bool",
          "name": "",
          "type": "bool"
        }
      ],
      "stateMutability": "view",
      "type": "function"
    },
    {
      "inputs": [
        {
          "internalType": "address",
          "name": "",
          "type": "address"
        }
      ],
      "name": "rateLimits",
      "outputs": [
        {
          "internalType": "uint256",
          "name": "maxPerTransaction",
          "type": "uint256"
        },
        {
          "internalType": "uint256",
          "name": "maxPerDay",
          "type": "uint256"
        },
        {
          "internalType": "uint256",
          "name": "currentDayAmount",
          "type": "uint256"
        },
        {
          "internalType": "uint256",
          "name": "lastUpdateDay",
          "type": "uint256"
        }
      ],
      "stateMutability": "view",
      "type": "function"
    },
    {
      "inputs": [
        {
          "internalType": "bytes32",
          "name": "messageId",
          "type": "bytes32"
        },
        {
          "internalType": "address",
          "name": "sender",
          "type": "address"
        },
        {
          "internalType": "uint256",
          "name": "amount",
          "type": "uint256"
        }
      ],
      "name": "receiveMessage",
      "outputs": [],
      "stateMutability": "nonpayable",
      "type": "function"
    },
    {
      "inputs": [],
      "name": "renounceOwnership",
      "outputs": [],
      "stateMutability": "nonpayable",
      "type": "function"
    },
    {
      "inputs": [
        {
          "internalType": "uint64",
          "name": "destinationChain",
          "type": "uint64"
        },
        {
          "internalType": "address",
          "name": "",
          "type": "address"
        },
        {
          "internalType": "uint256",
          "name": "amount",
          "type": "uint256"
        }
      ],
      "name": "sendMessage",
      "outputs": [
        {
          "internalType": "uint256",
          "name": "",
          "type": "uint256"
        }
      ],
      "stateMutability": "nonpayable",
      "type": "function"
    },
    {
      "inputs": [
        {
          "internalType": "address",
          "name": "user",
          "type": "address"
        },
        {
          "internalType": "uint256",
          "name": "maxPerDay",
          "type": "uint256"
        }
      ],
      "name": "setRateLimitForUser",
      "outputs": [],
      "stateMutability": "nonpayable",
      "type": "function"
    },
    {
      "inputs": [
        {
          "internalType": "address",
          "name": "newOwner",
          "type": "address"
        }
      ],
      "name": "transferOwnership",
      "outputs": [],
      "stateMutability": "nonpayable",
      "type": "function"
    }
  ],
  "bytecode": "0x60803460d357601f61078538819003918201601f19168301916001600160401b0383118484101760d75780849260209460405283398101031260d357516001600160a01b0381169081900360d357801560c0575f80546001600160a01b031981168317825560405192916001600160a01b03909116907f8be0079c531659141344cd1fd0a4f28419497f9722a3daafe3b4186f6b6457e09080a3683635c9adc5dea0000060045569010f0cf064dd5920000060055561069990816100ec8239f35b631e4fbdf760e01b5f525f60045260245ffd5b5f80fd5b634e487b7160e01b5f52604160045260245ffdfe60806040526004361015610011575f80fd5b5f3560e01c8063083bf006146104f15780631d9c0305146104d45780635c975abb146104b05780635dc094b7146104935780636f16cbc4146104265780637130dfc914610409578063715018a6146103b25780637a14c7d2146103585780637b2bf168146101bf5780637ecebe001461018757806388ba16ab146101585780638da5cb5b146101315763f2fde38b146100a8575f80fd5b3461012d57602036600319011261012d576100c16105e6565b6100c961063d565b6001600160a01b0316801561011a575f80546001600160a01b03198116831782556001600160a01b0316907f8be0079c531659141344cd1fd0a4f28419497f9722a3daafe3b4186f6b6457e09080a3005b631e4fbdf760e01b5f525f60045260245ffd5b5f80fd5b3461012d575f36600319011261012d575f546040516001600160a01b039091168152602090f35b3461012d57602036600319011261012d576004355f526001602052602060ff60405f2054166040519015158152f35b3461012d57602036600319011261012d576001600160a01b036101a86105e6565b165f526003602052602060405f2054604051908152f35b3461012d57606036600319011261012d5760043567ffffffffffffffff811680910361012d576101ed6105d0565b506044359060ff5f5460a01c16610349576102098215156105fc565b600454821161030f57335f52600260205260405f2060038101908154916201518083018093116102b257600292421015610301575b50018054908382018092116102b257819055600554106102c657335f52600360205260405f208054915f1983146102b2576020938392600184019055604051918252848201527fee65c2933e6265d11beeb0e11b7e0da11e2270d3c9a64f613d84ea68566d74b260403392a3604051908152f35b634e487b7160e01b5f52601160045260245ffd5b60405162461bcd60e51b8152602060048201526013602482015272115e18d959591cc819185a5b1e481b1a5b5a5d606a1b6044820152606490fd5b5f838301554290558461023e565b60405162461bcd60e51b815260206004820152601260248201527108af0c6cacac8e640dac2f040e0cae440e8f60731b6044820152606490fd5b63d93c066560e01b5f5260045ffd5b3461012d57602036600319011261012d576001600160a01b036103796105e6565b165f526002602052608060405f208054906001810154906003600282015491015491604051938452602084015260408301526060820152f35b3461012d575f36600319011261012d576103ca61063d565b5f80546001600160a01b0319811682556001600160a01b03167f8be0079c531659141344cd1fd0a4f28419497f9722a3daafe3b4186f6b6457e08280a3005b3461012d575f36600319011261012d576020604051620151808152f35b3461012d57604036600319011261012d5761043f6105e6565b7fc5f291321b52c0a880f53a520482ae7920b1e570181bea4971307e9ba13026de60206024359261046e61063d565b6001600160a01b03165f818152600283526040908190206001018590555193845292a2005b3461012d575f36600319011261012d576020600454604051908152f35b3461012d575f36600319011261012d57602060ff5f5460a01c166040519015158152f35b3461012d575f36600319011261012d576020600554604051908152f35b3461012d57606036600319011261012d5760043561050d6105d0565b60443561051861063d565b825f52600160205260ff60405f20541661058b577f4ad8286366216a121ffbecdd11163a134fc364cdf7cc99aae4cc3221d8d92269918161055c60409315156105fc565b5f8581526001602081815291859020805460ff1916909117905583519586528501526001600160a01b031692a2005b60405162461bcd60e51b815260206004820152601960248201527f4d65737361676520616c72656164792070726f636573736564000000000000006044820152606490fd5b602435906001600160a01b038216820361012d57565b600435906001600160a01b038216820361012d57565b1561060357565b60405162461bcd60e51b81526020600482015260126024820152710416d6f756e74206d757374206265203e20360741b6044820152606490fd5b5f546001600160a01b0316330361065057565b63118cdaa760e01b5f523360045260245ffdfea26469706673582212205fe9ef9d083895d619becf0689f6d0a905fa6186ee8ff9f529883786dae6345a64736f6c634300081e0033",
  "linkReferences": {},
  "deployedLinkReferences": {}
}