{
  "_format": "hh-sol-artifact-1",
  "contractName": "MockOracle",
  "sourceName": "contracts/modules/demoTrading/MockOracle.sol",
  "abi": [
    {
      "inputs": [
        {
          "internalType": "address",
          "name": "_owner",
          "type": "address"
        }
      ],
      "stateMutability": "nonpayable",
      "type": "constructor"
    },
    {
      "inputs": [
        {
          "internalType": "address",
          "name": "owner",
          "type": "address"
        }
      ],
      "name": "OwnableInvalidOwner",
      "type": "error"
    },
    {
      "inputs": [
        {
          "internalType": "address",
          "name": "account",
          "type": "address"
        }
      ],
      "name": "OwnableUnauthorizedAccount",
      "type": "error"
    },
    {
      "anonymous": false,
      "inputs": [
        {
          "indexed": true,
          "internalType": "address",
          "name": "asset",
          "type": "address"
        },
        {
          "indexed": false,
          "internalType": "string",
          "name": "symbol",
          "type": "string"
        },
        {
          "indexed": false,
          "internalType": "uint256",
          "name": "initialPrice",
          "type": "uint256"
        }
      ],
      "name": "AssetAdded",
      "type": "event"
    },
    {
      "anonymous": false,
      "inputs": [
        {
          "indexed": true,
          "internalType": "address",
          "name": "previousOwner",
          "type": "address"
        },
        {
          "indexed": true,
          "internalType": "address",
          "name": "newOwner",
          "type": "address"
        }
      ],
      "name": "OwnershipTransferred",
      "type": "event"
    },
    {
      "anonymous": false,
      "inputs": [
        {
          "indexed": true,
          "internalType": "address",
          "name": "asset",
          "type": "address"
        },
        {
          "indexed": false,
          "internalType": "uint256",
          "name": "price",
          "type": "uint256"
        },
        {
          "indexed": false,
          "internalType": "uint256",
          "name": "updatedAt",
          "type": "uint256"
        }
      ],
      "name": "PriceUpdated",
      "type": "event"
    },
    {
      "anonymous": false,
      "inputs": [
        {
          "indexed": true,
          "internalType": "address",
          "name": "updater",
          "type": "address"
        },
        {
          "indexed": false,
          "internalType": "bool",
          "name": "authorised",
          "type": "bool"
        }
      ],
      "name": "UpdaterSet",
      "type": "event"
    },
    {
      "inputs": [
        {
          "internalType": "address",
          "name": "asset",
          "type": "address"
        },
        {
          "internalType": "string",
          "name": "symbol",
          "type": "string"
        },
        {
          "internalType": "uint256",
          "name": "initialPriceUsd8",
          "type": "uint256"
        }
      ],
      "name": "addAsset",
      "outputs": [],
      "stateMutability": "nonpayable",
      "type": "function"
    },
    {
      "inputs": [
        {
          "internalType": "address[]",
          "name": "assets",
          "type": "address[]"
        },
        {
          "internalType": "uint256[]",
          "name": "prices",
          "type": "uint256[]"
        }
      ],
      "name": "batchUpdatePrices",
      "outputs": [],
      "stateMutability": "nonpayable",
      "type": "function"
    },
    {
      "inputs": [
        {
          "internalType": "address",
          "name": "",
          "type": "address"
        }
      ],
      "name": "feeds",
      "outputs": [
        {
          "internalType": "uint256",
          "name": "price",
          "type": "uint256"
        },
        {
          "internalType": "uint256",
          "name": "updatedAt",
          "type": "uint256"
        },
        {
          "internalType": "string",
          "name": "symbol",
          "type": "string"
        }
      ],
      "stateMutability": "view",
      "type": "function"
    },
    {
      "inputs": [
        {
          "internalType": "address",
          "name": "asset",
          "type": "address"
        }
      ],
      "name": "getPrice",
      "outputs": [
        {
          "internalType": "uint256",
          "name": "price",
          "type": "uint256"
        },
        {
          "internalType": "uint256",
          "name": "updatedAt",
          "type": "uint256"
        }
      ],
      "stateMutability": "view",
      "type": "function"
    },
    {
      "inputs": [],
      "name": "getSupportedAssets",
      "outputs": [
        {
          "internalType": "address[]",
          "name": "",
          "type": "address[]"
        }
      ],
      "stateMutability": "view",
      "type": "function"
    },
    {
      "inputs": [
        {
          "internalType": "address",
          "name": "",
          "type": "address"
        }
      ],
      "name": "isSupported",
      "outputs": [
        {
          "internalType": "bool",
          "name": "",
          "type": "bool"
        }
      ],
      "stateMutability": "view",
      "type": "function"
    },
    {
      "inputs": [],
      "name": "owner",
      "outputs": [
        {
          "internalType": "address",
          "name": "",
          "type": "address"
        }
      ],
      "stateMutability": "view",
      "type": "function"
    },
    {
      "inputs": [],
      "name": "renounceOwnership",
      "outputs": [],
      "stateMutability": "nonpayable",
      "type": "function"
    },
    {
      "inputs": [
        {
          "internalType": "address",
          "name": "updater",
          "type": "address"
        },
        {
          "internalType": "bool",
          "name": "authorised",
          "type": "bool"
        }
      ],
      "name": "setUpdater",
      "outputs": [],
      "stateMutability": "nonpayable",
      "type": "function"
    },
    {
      "inputs": [
        {
          "internalType": "uint256",
          "name": "",
          "type": "uint256"
        }
      ],
      "name": "supportedAssets",
      "outputs": [
        {
          "internalType": "address",
          "name": "",
          "type": "address"
        }
      ],
      "stateMutability": "view",
      "type": "function"
    },
    {
      "inputs": [
        {
          "internalType": "address",
          "name": "newOwner",
          "type": "address"
        }
      ],
      "name": "transferOwnership",
      "outputs": [],
      "stateMutability": "nonpayable",
      "type": "function"
    },
    {
      "inputs": [
        {
          "internalType": "address",
          "name": "asset",
          "type": "address"
        },
        {
          "internalType": "uint256",
          "name": "priceUsd8",
          "type": "uint256"
        }
      ],
      "name": "updatePrice",
      "outputs": [],
      "stateMutability": "nonpayable",
      "type": "function"
    },
    {
      "inputs": [
        {
          "internalType": "address",
          "name": "",
          "type": "address"
        }
      ],
      "name": "updaters",
      "outputs": [
        {
          "internalType": "bool",
          "name": "",
          "type": "bool"
        }
      ],
      "stateMutability": "view",
      "type": "function"
    }
  ],
  "bytecode": "0x60803460ce57601f610ddf38819003918201601f19168301916001600160401b0383118484101760d25780849260209460405283398101031260ce57516001600160a01b0381169081900360ce57801560bb575f80546001600160a01b0319811683178255604051929182916001600160a01b0316907f8be0079c531659141344cd1fd0a4f28419497f9722a3daafe3b4186f6b6457e09080a35f52600460205260405f20600160ff19825416179055610cf890816100e78239f35b631e4fbdf760e01b5f525f60045260245ffd5b5f80fd5b634e487b7160e01b5f52604160045260245ffdfe60806040526004361015610011575f80fd5b5f3560e01c80631a153391146109db5780632fba4aa914610976578063364b28671461064857806341976e09146105c8578063457972de1461050a5780634f129c53146104cd57806354a055c114610490578063715018a6146104395780638da5cb5b14610412578063b6f9c0c71461023b578063c68dbb37146101f9578063e5406dbf146101315763f2fde38b146100a8575f80fd5b3461012d57602036600319011261012d576100c1610a58565b6100c9610c9c565b6001600160a01b0316801561011a575f80546001600160a01b03198116831782556001600160a01b0316907f8be0079c531659141344cd1fd0a4f28419497f9722a3daafe3b4186f6b6457e09080a3005b631e4fbdf760e01b5f525f60045260245ffd5b5f80fd5b3461012d575f36600319011261012d576040518060206002549283815201809260025f527f405787fa12a823e0f2b7631cc41b3ba8828b3321ca811111fa75cd3aa3bb5ace905f5b8181106101da575050508161018f910382610ac2565b604051918291602083019060208452518091526040830191905f5b8181106101b8575050500390f35b82516001600160a01b03168452859450602093840193909201916001016101aa565b82546001600160a01b0316845260209093019260019283019201610179565b3461012d57602036600319011261012d5760043560025481101561012d57610222602091610bd9565b905460405160039290921b1c6001600160a01b03168152f35b3461012d57604036600319011261012d5760043567ffffffffffffffff811161012d5761026c903690600401610ba8565b9060243567ffffffffffffffff811161012d5761028d903690600401610ba8565b9092335f52600460205260ff60405f20541680156103ff575b6102af90610c47565b8181036103c2575f5b8181106102c157005b6102cc818386610c8c565b356001600160a01b038116919082900361012d576102eb818588610c8c565b3591335f52600460205260ff60405f20541680156103af575b61030d90610c47565b805f52600360205261032560ff60405f205416610c05565b821561037a575f8181526001602081815260409283902086815542908301819055835196875290860152937fb556fac599c3c70efb9ab1fa725ecace6c81cc48d1455f886607def065f3e0c09190a2016102b8565b60405162461bcd60e51b815260206004820152600d60248201526c496e76616c696420707269636560981b6044820152606490fd5b505f546001600160a01b03163314610304565b60405162461bcd60e51b8152602060048201526015602482015274082e4e4c2f240d8cadccee8d040dad2e6dac2e8c6d605b1b6044820152606490fd5b505f546001600160a01b031633146102a6565b3461012d575f36600319011261012d575f546040516001600160a01b039091168152602090f35b3461012d575f36600319011261012d57610451610c9c565b5f80546001600160a01b0319811682556001600160a01b03167f8be0079c531659141344cd1fd0a4f28419497f9722a3daafe3b4186f6b6457e08280a3005b3461012d57602036600319011261012d576001600160a01b036104b1610a58565b165f526004602052602060ff60405f2054166040519015158152f35b3461012d57602036600319011261012d576001600160a01b036104ee610a58565b165f526003602052602060ff60405f2054166040519015158152f35b3461012d57604036600319011261012d57610523610a58565b60243590335f52600460205260ff60405f20541680156105b5575b61054790610c47565b60018060a01b031690815f52600360205261056860ff60405f205416610c05565b801561037a575f8281526001602081815260409283902084815542920182905582519384528301527fb556fac599c3c70efb9ab1fa725ecace6c81cc48d1455f886607def065f3e0c091a2005b505f546001600160a01b0316331461053e565b3461012d57602036600319011261012d576001600160a01b036105e9610a58565b16805f52600360205261060260ff60405f205416610c05565b5f5260016020526040805f20815161061981610aa6565b8154815261063560026001840154936020840194855201610ae4565b8382015251905182519182526020820152f35b3461012d57606036600319011261012d57610661610a58565b6024359067ffffffffffffffff821161012d573660238301121561012d57816004013567ffffffffffffffff811161082257604051926106ab601f8301601f191660200185610ac2565b818452366024838301011161012d57815f926024602093018387013784010152604435906106d7610c9c565b6001600160a01b03165f8181526003602052604090205490929060ff166109315782156108f45760405161070a81610aa6565b828152600260208201914283526040810192848452865f52600160205260405f209151825551600182015501905180519067ffffffffffffffff82116108225781906107568454610a6e565b601f81116108a4575b50602090601f8311600114610841575f92610836575b50508160011b915f199060031b1c19161790555b6002549068010000000000000000821015610822577fc71623dba9c8fcac1192535a2fa1a56f0f64f794a83d7d419c59839d3d9a7397926107d38360016108179501600255610bd9565b81549060031b9087821b9160018060a01b03901b1916179055845f52600360205260405f20600160ff19825416179055604051928392604084526040840190610b84565b9060208301520390a2005b634e487b7160e01b5f52604160045260245ffd5b015190508680610775565b5f8581528281209350601f198516905b81811061088c5750908460019594939210610874575b505050811b019055610789565b01515f1960f88460031b161c19169055868080610867565b92936020600181928786015181550195019301610851565b909150835f5260205f20601f840160051c810191602085106108ea575b90601f859493920160051c01905b8181106108dc575061075f565b5f81558493506001016108cf565b90915081906108c1565b60405162461bcd60e51b8152602060048201526015602482015274496e76616c6964206173736574206164647265737360581b6044820152606490fd5b60405162461bcd60e51b815260206004820152601760248201527f417373657420616c726561647920737570706f727465640000000000000000006044820152606490fd5b3461012d57602036600319011261012d576001600160a01b03610997610a58565b165f52600160205260405f2080546109d76109b9600260018501549401610ae4565b60405193849384526020840152606060408401526060830190610b84565b0390f35b3461012d57604036600319011261012d576109f4610a58565b6024359081151580920361012d5760207f9e0f3fc17a5f47bd46f3cab56d4d8a9ea9f32ad817657c3ea8e5dff28da3e3e791610a2e610c9c565b60018060a01b031692835f526004825260405f2060ff1981541660ff8316179055604051908152a2005b600435906001600160a01b038216820361012d57565b90600182811c92168015610a9c575b6020831014610a8857565b634e487b7160e01b5f52602260045260245ffd5b91607f1691610a7d565b6060810190811067ffffffffffffffff82111761082257604052565b90601f8019910116810190811067ffffffffffffffff82111761082257604052565b9060405191825f825492610af784610a6e565b8084529360018116908115610b625750600114610b1e575b50610b1c92500383610ac2565b565b90505f9291925260205f20905f915b818310610b46575050906020610b1c928201015f610b0f565b6020919350806001915483858901015201910190918492610b2d565b905060209250610b1c94915060ff191682840152151560051b8201015f610b0f565b805180835260209291819084018484015e5f828201840152601f01601f1916010190565b9181601f8401121561012d5782359167ffffffffffffffff831161012d576020808501948460051b01011161012d57565b600254811015610bf15760025f5260205f2001905f90565b634e487b7160e01b5f52603260045260245ffd5b15610c0c57565b60405162461bcd60e51b8152602060048201526013602482015272105cdcd95d081b9bdd081cdd5c1c1bdc9d1959606a1b6044820152606490fd5b15610c4e57565b60405162461bcd60e51b81526020600482015260166024820152752737ba1030baba3437b934b9b2b2103ab83230ba32b960511b6044820152606490fd5b9190811015610bf15760051b0190565b5f546001600160a01b03163303610caf57565b63118cdaa760e01b5f523360045260245ffdfea2646970667358221220c395e47a7c20106a4912bfb0e4737234ed549a0fae9fae6f1590ce82028ea30764736f6c634300081e0033",
  "linkReferences": {},
  "deployedLinkReferences": {}
}