{
  "_format": "hh-sol-artifact-1",
  "contractName": "HydraNFT",
  "sourceName": "contracts/modules/nftMarketplace/HydraMarketplace.sol",
  "abi": [
    {
      "inputs": [
        {
          "internalType": "address",
          "name": "_owner",
          "type": "address"
        }
      ],
      "stateMutability": "nonpayable",
      "type": "constructor"
    },
    {
      "inputs": [
        {
          "internalType": "address",
          "name": "sender",
          "type": "address"
        },
        {
          "internalType": "uint256",
          "name": "tokenId",
          "type": "uint256"
        },
        {
          "internalType": "address",
          "name": "owner",
          "type": "address"
        }
      ],
      "name": "ERC721IncorrectOwner",
      "type": "error"
    },
    {
      "inputs": [
        {
          "internalType": "address",
          "name": "operator",
          "type": "address"
        },
        {
          "internalType": "uint256",
          "name": "tokenId",
          "type": "uint256"
        }
      ],
      "name": "ERC721InsufficientApproval",
      "type": "error"
    },
    {
      "inputs": [
        {
          "internalType": "address",
          "name": "approver",
          "type": "address"
        }
      ],
      "name": "ERC721InvalidApprover",
      "type": "error"
    },
    {
      "inputs": [
        {
          "internalType": "address",
          "name": "operator",
          "type": "address"
        }
      ],
      "name": "ERC721InvalidOperator",
      "type": "error"
    },
    {
      "inputs": [
        {
          "internalType": "address",
          "name": "owner",
          "type": "address"
        }
      ],
      "name": "ERC721InvalidOwner",
      "type": "error"
    },
    {
      "inputs": [
        {
          "internalType": "address",
          "name": "receiver",
          "type": "address"
        }
      ],
      "name": "ERC721InvalidReceiver",
      "type": "error"
    },
    {
      "inputs": [
        {
          "internalType": "address",
          "name": "sender",
          "type": "address"
        }
      ],
      "name": "ERC721InvalidSender",
      "type": "error"
    },
    {
      "inputs": [
        {
          "internalType": "uint256",
          "name": "tokenId",
          "type": "uint256"
        }
      ],
      "name": "ERC721NonexistentToken",
      "type": "error"
    },
    {
      "inputs": [
        {
          "internalType": "address",
          "name": "owner",
          "type": "address"
        }
      ],
      "name": "OwnableInvalidOwner",
      "type": "error"
    },
    {
      "inputs": [
        {
          "internalType": "address",
          "name": "account",
          "type": "address"
        }
      ],
      "name": "OwnableUnauthorizedAccount",
      "type": "error"
    },
    {
      "anonymous": false,
      "inputs": [
        {
          "indexed": true,
          "internalType": "address",
          "name": "user",
          "type": "address"
        },
        {
          "indexed": false,
          "internalType": "uint8",
          "name": "tier",
          "type": "uint8"
        },
        {
          "indexed": false,
          "internalType": "uint256",
          "name": "tokenId",
          "type": "uint256"
        }
      ],
      "name": "AchievementMinted",
      "type": "event"
    },
    {
      "anonymous": false,
      "inputs": [
        {
          "indexed": true,
          "internalType": "address",
          "name": "owner",
          "type": "address"
        },
        {
          "indexed": true,
          "internalType": "address",
          "name": "approved",
          "type": "address"
        },
        {
          "indexed": true,
          "internalType": "uint256",
          "name": "tokenId",
          "type": "uint256"
        }
      ],
      "name": "Approval",
      "type": "event"
    },
    {
      "anonymous": false,
      "inputs": [
        {
          "indexed": true,
          "internalType": "address",
          "name": "owner",
          "type": "address"
        },
        {
          "indexed": true,
          "internalType": "address",
          "name": "operator",
          "type": "address"
        },
        {
          "indexed": false,
          "internalType": "bool",
          "name": "approved",
          "type": "bool"
        }
      ],
      "name": "ApprovalForAll",
      "type": "event"
    },
    {
      "anonymous": false,
      "inputs": [
        {
          "indexed": true,
          "internalType": "address",
          "name": "to",
          "type": "address"
        },
        {
          "indexed": false,
          "internalType": "uint256",
          "name": "tokenId",
          "type": "uint256"
        }
      ],
      "name": "CollectionMinted",
      "type": "event"
    },
    {
      "anonymous": false,
      "inputs": [
        {
          "indexed": true,
          "internalType": "address",
          "name": "minter",
          "type": "address"
        },
        {
          "indexed": false,
          "internalType": "bool",
          "name": "authorised",
          "type": "bool"
        }
      ],
      "name": "MinterSet",
      "type": "event"
    },
    {
      "anonymous": false,
      "inputs": [
        {
          "indexed": true,
          "internalType": "address",
          "name": "previousOwner",
          "type": "address"
        },
        {
          "indexed": true,
          "internalType": "address",
          "name": "newOwner",
          "type": "address"
        }
      ],
      "name": "OwnershipTransferred",
      "type": "event"
    },
    {
      "anonymous": false,
      "inputs": [
        {
          "indexed": true,
          "internalType": "address",
          "name": "from",
          "type": "address"
        },
        {
          "indexed": true,
          "internalType": "address",
          "name": "to",
          "type": "address"
        },
        {
          "indexed": true,
          "internalType": "uint256",
          "name": "tokenId",
          "type": "uint256"
        }
      ],
      "name": "Transfer",
      "type": "event"
    },
    {
      "inputs": [
        {
          "internalType": "uint256",
          "name": "",
          "type": "uint256"
        }
      ],
      "name": "achievementTier",
      "outputs": [
        {
          "internalType": "uint8",
          "name": "",
          "type": "uint8"
        }
      ],
      "stateMutability": "view",
      "type": "function"
    },
    {
      "inputs": [
        {
          "internalType": "address",
          "name": "to",
          "type": "address"
        },
        {
          "internalType": "uint256",
          "name": "tokenId",
          "type": "uint256"
        }
      ],
      "name": "approve",
      "outputs": [],
      "stateMutability": "nonpayable",
      "type": "function"
    },
    {
      "inputs": [
        {
          "internalType": "address",
          "name": "",
          "type": "address"
        }
      ],
      "name": "authorisedMinters",
      "outputs": [
        {
          "internalType": "bool",
          "name": "",
          "type": "bool"
        }
      ],
      "stateMutability": "view",
      "type": "function"
    },
    {
      "inputs": [
        {
          "internalType": "address",
          "name": "owner",
          "type": "address"
        }
      ],
      "name": "balanceOf",
      "outputs": [
        {
          "internalType": "uint256",
          "name": "",
          "type": "uint256"
        }
      ],
      "stateMutability": "view",
      "type": "function"
    },
    {
      "inputs": [
        {
          "internalType": "uint256",
          "name": "tokenId",
          "type": "uint256"
        }
      ],
      "name": "getApproved",
      "outputs": [
        {
          "internalType": "address",
          "name": "",
          "type": "address"
        }
      ],
      "stateMutability": "view",
      "type": "function"
    },
    {
      "inputs": [
        {
          "internalType": "address",
          "name": "owner",
          "type": "address"
        },
        {
          "internalType": "address",
          "name": "operator",
          "type": "address"
        }
      ],
      "name": "isApprovedForAll",
      "outputs": [
        {
          "internalType": "bool",
          "name": "",
          "type": "bool"
        }
      ],
      "stateMutability": "view",
      "type": "function"
    },
    {
      "inputs": [
        {
          "internalType": "uint256",
          "name": "",
          "type": "uint256"
        }
      ],
      "name": "isSoulbound",
      "outputs": [
        {
          "internalType": "bool",
          "name": "",
          "type": "bool"
        }
      ],
      "stateMutability": "view",
      "type": "function"
    },
    {
      "inputs": [
        {
          "internalType": "address",
          "name": "user",
          "type": "address"
        },
        {
          "internalType": "uint8",
          "name": "tier",
          "type": "uint8"
        }
      ],
      "name": "mintAchievement",
      "outputs": [
        {
          "internalType": "uint256",
          "name": "tokenId",
          "type": "uint256"
        }
      ],
      "stateMutability": "nonpayable",
      "type": "function"
    },
    {
      "inputs": [
        {
          "internalType": "address",
          "name": "to",
          "type": "address"
        }
      ],
      "name": "mintCollection",
      "outputs": [
        {
          "internalType": "uint256",
          "name": "tokenId",
          "type": "uint256"
        }
      ],
      "stateMutability": "nonpayable",
      "type": "function"
    },
    {
      "inputs": [],
      "name": "name",
      "outputs": [
        {
          "internalType": "string",
          "name": "",
          "type": "string"
        }
      ],
      "stateMutability": "view",
      "type": "function"
    },
    {
      "inputs": [],
      "name": "nextTokenId",
      "outputs": [
        {
          "internalType": "uint256",
          "name": "",
          "type": "uint256"
        }
      ],
      "stateMutability": "view",
      "type": "function"
    },
    {
      "inputs": [],
      "name": "owner",
      "outputs": [
        {
          "internalType": "address",
          "name": "",
          "type": "address"
        }
      ],
      "stateMutability": "view",
      "type": "function"
    },
    {
      "inputs": [
        {
          "internalType": "uint256",
          "name": "tokenId",
          "type": "uint256"
        }
      ],
      "name": "ownerOf",
      "outputs": [
        {
          "internalType": "address",
          "name": "",
          "type": "address"
        }
      ],
      "stateMutability": "view",
      "type": "function"
    },
    {
      "inputs": [],
      "name": "renounceOwnership",
      "outputs": [],
      "stateMutability": "nonpayable",
      "type": "function"
    },
    {
      "inputs": [
        {
          "internalType": "address",
          "name": "from",
          "type": "address"
        },
        {
          "internalType": "address",
          "name": "to",
          "type": "address"
        },
        {
          "internalType": "uint256",
          "name": "tokenId",
          "type": "uint256"
        }
      ],
      "name": "safeTransferFrom",
      "outputs": [],
      "stateMutability": "nonpayable",
      "type": "function"
    },
    {
      "inputs": [
        {
          "internalType": "address",
          "name": "from",
          "type": "address"
        },
        {
          "internalType": "address",
          "name": "to",
          "type": "address"
        },
        {
          "internalType": "uint256",
          "name": "tokenId",
          "type": "uint256"
        },
        {
          "internalType": "bytes",
          "name": "data",
          "type": "bytes"
        }
      ],
      "name": "safeTransferFrom",
      "outputs": [],
      "stateMutability": "nonpayable",
      "type": "function"
    },
    {
      "inputs": [
        {
          "internalType": "address",
          "name": "operator",
          "type": "address"
        },
        {
          "internalType": "bool",
          "name": "approved",
          "type": "bool"
        }
      ],
      "name": "setApprovalForAll",
      "outputs": [],
      "stateMutability": "nonpayable",
      "type": "function"
    },
    {
      "inputs": [
        {
          "internalType": "address",
          "name": "minter",
          "type": "address"
        },
        {
          "internalType": "bool",
          "name": "authorised",
          "type": "bool"
        }
      ],
      "name": "setMinter",
      "outputs": [],
      "stateMutability": "nonpayable",
      "type": "function"
    },
    {
      "inputs": [
        {
          "internalType": "bytes4",
          "name": "interfaceId",
          "type": "bytes4"
        }
      ],
      "name": "supportsInterface",
      "outputs": [
        {
          "internalType": "bool",
          "name": "",
          "type": "bool"
        }
      ],
      "stateMutability": "view",
      "type": "function"
    },
    {
      "inputs": [],
      "name": "symbol",
      "outputs": [
        {
          "internalType": "string",
          "name": "",
          "type": "string"
        }
      ],
      "stateMutability": "view",
      "type": "function"
    },
    {
      "inputs": [
        {
          "internalType": "uint256",
          "name": "tokenId",
          "type": "uint256"
        }
      ],
      "name": "tokenURI",
      "outputs": [
        {
          "internalType": "string",
          "name": "",
          "type": "string"
        }
      ],
      "stateMutability": "view",
      "type": "function"
    },
    {
      "inputs": [
        {
          "internalType": "address",
          "name": "from",
          "type": "address"
        },
        {
          "internalType": "address",
          "name": "to",
          "type": "address"
        },
        {
          "internalType": "uint256",
          "name": "tokenId",
          "type": "uint256"
        }
      ],
      "name": "transferFrom",
      "outputs": [],
      "stateMutability": "nonpayable",
      "type": "function"
    },
    {
      "inputs": [
        {
          "internalType": "address",
          "name": "newOwner",
          "type": "address"
        }
      ],
      "name": "transferOwnership",
      "outputs": [],
      "stateMutability": "nonpayable",
      "type": "function"
    },
    {
      "inputs": [
        {
          "internalType": "address",
          "name": "",
          "type": "address"
        },
        {
          "internalType": "uint8",
          "name": "",
          "type": "uint8"
        }
      ],
      "name": "userAchievement",
      "outputs": [
        {
          "internalType": "uint256",
          "name": "",
          "type": "uint256"
        }
      ],
      "stateMutability": "view",
      "type": "function"
    }
  ],
  "bytecode": "0x60806040523461039d5761179a6020813803918261001c816103a1565b93849283398101031261039d57516001600160a01b0381169081900361039d5761004660406103a1565b906009825268121e591c984813919560ba1b602083015261006760406103a1565b60048152631213919560e21b602082015282519091906001600160401b0381116102b1575f54600181811c91168015610393575b602082101461029357601f8111610331575b506020601f82116001146102d057819293945f926102c5575b50508160011b915f199060031b1c1916175f555b81516001600160401b0381116102b157600154600181811c911680156102a7575b602082101461029357601f8111610230575b50602092601f82116001146101cf57928192935f926101c4575b50508160011b915f199060031b1c1916176001555b80156101b157600680546001600160a01b031981168317909155604051919081906001600160a01b03167f8be0079c531659141344cd1fd0a4f28419497f9722a3daafe3b4186f6b6457e05f80a360016007555f52600b60205260405f20600160ff198254161790556113d390816103c78239f35b631e4fbdf760e01b5f525f60045260245ffd5b015190505f80610127565b601f1982169360015f52805f20915f5b8681106102185750836001959610610200575b505050811b0160015561013c565b01515f1960f88460031b161c191690555f80806101f2565b919260206001819286850151815501940192016101df565b60015f527fb10e2d527612073b26eecdfd717e6a320cf44b4afac2b0732d9fcbe2b7fa0cf6601f830160051c81019160208410610289575b601f0160051c01905b81811061027e575061010d565b5f8155600101610271565b9091508190610268565b634e487b7160e01b5f52602260045260245ffd5b90607f16906100fb565b634e487b7160e01b5f52604160045260245ffd5b015190505f806100c6565b601f198216905f8052805f20915f5b81811061031957509583600195969710610301575b505050811b015f556100da565b01515f1960f88460031b161c191690555f80806102f4565b9192602060018192868b0151815501940192016102df565b5f80527f290decd9548b62a8d60345a988386fc84ba6bc95484008f6362f93160ef3e563601f830160051c81019160208410610389575b601f0160051c01905b81811061037e57506100ad565b5f8155600101610371565b9091508190610368565b90607f169061009b565b5f80fd5b6040519190601f01601f191682016001600160401b038111838210176102b15760405256fe6080806040526004361015610012575f80fd5b5f3560e01c90816301ffc9a714610b225750806306fdde0314610a6a578063081812fc14610a2e578063095ea7b31461094457806323b872dd1461092d578063397a5b771461079e5780633ebbad2e146106e857806342842e0e146106bf57806357598b6d146106855780636352211e1461065557806370a0823114610604578063715018a6146105a957806375794a3c1461058c57806387e4d03b1461054f5780638da5cb5b14610527578063911ec470146104f857806395d89b4114610404578063a22cb4651461035e578063b88d4fde146102d4578063c045eb19146102a7578063c87b56dd14610270578063cf456ae714610205578063e985e9c5146101ae5763f2fde38b14610124575f80fd5b346101aa5760203660031901126101aa5761013d610bb1565b610145611376565b6001600160a01b0316801561019757600680546001600160a01b0319811683179091556001600160a01b03167f8be0079c531659141344cd1fd0a4f28419497f9722a3daafe3b4186f6b6457e05f80a3005b631e4fbdf760e01b5f525f60045260245ffd5b5f80fd5b346101aa5760403660031901126101aa576101c7610bb1565b6101cf610bc7565b9060018060a01b03165f52600560205260405f209060018060a01b03165f52602052602060ff60405f2054166040519015158152f35b346101aa5760207f583b0aa0e528532caf4b907c11d7a8158a122fe2a6fb80cd9b09776ebea8d92d61023636610c47565b9290610240611376565b6001600160a01b03165f818152600b835260409020805460ff191660ff86151516179055926040519015158152a2005b346101aa5760203660031901126101aa576102a361028f600435611094565b604051918291602083526020830190610b8d565b0390f35b346101aa5760203660031901126101aa576004355f526009602052602060ff60405f205416604051908152f35b346101aa5760803660031901126101aa576102ed610bb1565b6102f5610bc7565b6064359167ffffffffffffffff83116101aa57366023840112156101aa5782600401359161032283610cac565b926103306040519485610c76565b80845236602482870101116101aa576020815f92602461035c9801838801378501015260443591610f54565b005b346101aa5761036c36610c47565b9033156103f1576001600160a01b03169081156103de57335f52600560205260405f20825f526020526103ae8160405f209060ff801983541691151516179055565b60405190151581527f17307eab39ab6107e8899845ad3d59bd9653f200f220920489ca2b5937696c3160203392a3005b50630b61174360e31b5f5260045260245ffd5b63a9fbf51f60e01b5f525f60045260245ffd5b346101aa575f3660031901126101aa576040515f6001548060011c906001811680156104ee575b6020831081146104da578285529081156104b65750600114610458575b6102a38361028f81850382610c76565b91905060015f527fb10e2d527612073b26eecdfd717e6a320cf44b4afac2b0732d9fcbe2b7fa0cf6915f905b80821061049c5750909150810160200161028f610448565b919260018160209254838588010152019101909291610484565b60ff191660208086019190915291151560051b8401909101915061028f9050610448565b634e487b7160e01b5f52602260045260245ffd5b91607f169161042b565b346101aa5760203660031901126101aa576004355f526008602052602060ff60405f2054166040519015158152f35b346101aa575f3660031901126101aa576006546040516001600160a01b039091168152602090f35b346101aa5760203660031901126101aa576001600160a01b03610570610bb1565b165f52600b602052602060ff60405f2054166040519015158152f35b346101aa575f3660031901126101aa576020600754604051908152f35b346101aa575f3660031901126101aa576105c1611376565b600680546001600160a01b031981169091555f906001600160a01b03167f8be0079c531659141344cd1fd0a4f28419497f9722a3daafe3b4186f6b6457e08280a3005b346101aa5760203660031901126101aa576001600160a01b03610625610bb1565b168015610642575f526003602052602060405f2054604051908152f35b6322718ad960e21b5f525f60045260245ffd5b346101aa5760203660031901126101aa5760206106736004356111e0565b6040516001600160a01b039091168152f35b346101aa5761069336610c17565b9060018060a01b03165f52600a60205260ff60405f2091165f52602052602060405f2054604051908152f35b346101aa5761035c6106d036610bdd565b90604051926106e0602085610c76565b5f8452610f54565b346101aa5760203660031901126101aa576020610703610bb1565b335f52600b825260ff60405f205416801561078a575b61072290610eee565b6007549061072f82610f32565b60075561073c8282611214565b815f526008835260405f2060ff1981541690557f03650dec68d808fe68d5dec24af404f96037fa840e955336aa6228936c39483f836040519284845260018060a01b031692a2604051908152f35b506006546001600160a01b03163314610719565b346101aa5760ff6107ae36610c17565b919091335f52600b6020528160405f2054168015610919575b6107d090610eee565b169060018210158061090e575b156108da5760018060a01b038116805f52600a60205260405f20835f5260205260405f2054610895577fa5a9e557687360755905025b2d45e3535cbdeab011b2427e913c4b3591c1d7a46040602094610845600754809661083d82610f32565b600755611214565b845f5260088652815f20600160ff19825416179055845f5260098652815f208160ff19825416179055835f52600a8652815f20815f52865284825f205581519081528486820152a2604051908152f35b60405162461bcd60e51b815260206004820152601a60248201527f416368696576656d656e7420616c7265616479206d696e7465640000000000006044820152606490fd5b60405162461bcd60e51b815260206004820152600c60248201526b24b73b30b634b2103a34b2b960a11b6044820152606490fd5b5060038211156107dd565b506006546001600160a01b031633146107c7565b346101aa5761035c61093e36610bdd565b91610cc8565b346101aa5760403660031901126101aa5761095d610bb1565b602435610969816111e0565b33151580610a1b575b806109ee575b6109db5781906001600160a01b0384811691167f8c5be1e5ebec7d5bd14f71427d1e84f3dd0314c0f7b2291e5b200ac8c7c3b9255f80a45f90815260046020526040902080546001600160a01b0319166001600160a01b03909216919091179055005b63a9fbf51f60e01b5f523360045260245ffd5b506001600160a01b0381165f90815260056020908152604080832033845290915290205460ff1615610978565b506001600160a01b038116331415610972565b346101aa5760203660031901126101aa57600435610a4b816111e0565b505f526004602052602060018060a01b0360405f205416604051908152f35b346101aa575f3660031901126101aa576040515f5f548060011c90600181168015610b18575b6020831081146104da578285529081156104b65750600114610abc576102a38361028f81850382610c76565b5f8080527f290decd9548b62a8d60345a988386fc84ba6bc95484008f6362f93160ef3e563939250905b808210610afe5750909150810160200161028f610448565b919260018160209254838588010152019101909291610ae6565b91607f1691610a90565b346101aa5760203660031901126101aa576004359063ffffffff60e01b82168092036101aa576020916380ac58cd60e01b8114908115610b7c575b8115610b6b575b5015158152f35b6301ffc9a760e01b14905083610b64565b635b5e139f60e01b81149150610b5d565b805180835260209291819084018484015e5f828201840152601f01601f1916010190565b600435906001600160a01b03821682036101aa57565b602435906001600160a01b03821682036101aa57565b60609060031901126101aa576004356001600160a01b03811681036101aa57906024356001600160a01b03811681036101aa579060443590565b60409060031901126101aa576004356001600160a01b03811681036101aa579060243560ff811681036101aa5790565b60409060031901126101aa576004356001600160a01b03811681036101aa579060243580151581036101aa5790565b90601f8019910116810190811067ffffffffffffffff821117610c9857604052565b634e487b7160e01b5f52604160045260245ffd5b67ffffffffffffffff8111610c9857601f01601f191660200190565b6001600160a01b0390911691908215610edb575f828152600260205260409020546001600160a01b0316151580610ed3575b610e79575b5f828152600260205260409020546001600160a01b031692829033151580610de4575b5084610db1575b805f52600360205260405f2060018154019055815f52600260205260405f20816bffffffffffffffffffffffff60a01b825416179055847fddf252ad1be2c89b69c2b068fc378daa952ba7f163c4a11628f55a4df523b3ef5f80a46001600160a01b0316808303610d9957505050565b6364283d7b60e01b5f5260045260245260445260645ffd5b5f82815260046020526040902080546001600160a01b0319169055845f52600360205260405f205f198154019055610d29565b90915080610e28575b15610dfa5782905f610d22565b8284610e1257637e27328960e01b5f5260045260245ffd5b63177e802f60e01b5f523360045260245260445ffd5b503384148015610e57575b80610ded57505f838152600460205260409020546001600160a01b03163314610ded565b505f84815260056020908152604080832033845290915290205460ff16610e33565b815f52600860205260ff60405f20541615610cff5760405162461bcd60e51b815260206004820152601b60248201527f536f756c626f756e643a206e6f6e2d7472616e7366657261626c6500000000006044820152606490fd5b506001610cfa565b633250574960e11b5f525f60045260245ffd5b15610ef557565b60405162461bcd60e51b81526020600482015260156024820152742737ba1030baba3437b934b9b2b21036b4b73a32b960591b6044820152606490fd5b5f198114610f405760010190565b634e487b7160e01b5f52601160045260245ffd5b9291610f61818386610cc8565b813b610f6e575b50505050565b604051630a85bd0160e11b81523360048201526001600160a01b0394851660248201526044810191909152608060648201529216919060209082908190610fb9906084830190610b8d565b03815f865af15f918161104f575b5061101c57503d15611015573d610fdd81610cac565b90610feb6040519283610c76565b81523d5f602083013e5b805190816110105782633250574960e11b5f5260045260245ffd5b602001fd5b6060610ff5565b6001600160e01b03191663757a42ff60e11b0161103d57505f808080610f68565b633250574960e11b5f5260045260245ffd5b9091506020813d60201161108c575b8161106b60209383610c76565b810103126101aa57516001600160e01b0319811681036101aa57905f610fc7565b3d915061105e565b5f818152600260205260409020546001600160a01b0316156111a4575f52600960205260ff60405f20541660018114611172576002811461114057600314611111576040516110e4604082610c76565b601781527f697066733a2f2f68796472612d636f6c6c656374696f6e000000000000000000602082015290565b60405161111f604082610c76565b60118152701a5c199cce8bcbda1e591c984b59dbdb19607a1b602082015290565b5060405161114f604082610c76565b601381527234b833399d1797b43cb2393096b9b4b63b32b960691b602082015290565b50604051611181604082610c76565b6013815272697066733a2f2f68796472612d62726f6e7a6560681b602082015290565b60405162461bcd60e51b8152602060048201526014602482015273151bdad95b88191bd95cc81b9bdd08195e1a5cdd60621b6044820152606490fd5b5f818152600260205260409020546001600160a01b0316908115611202575090565b637e27328960e01b5f5260045260245ffd5b6001600160a01b0316908115610edb575f818152600260205260409020546001600160a01b031615158061136e575b611314575b5f818152600260205260409020546001600160a01b031680151592909190836112e1575b805f52600360205260405f2060018154019055815f52600260205260405f20816bffffffffffffffffffffffff60a01b825416179055827fddf252ad1be2c89b69c2b068fc378daa952ba7f163c4a11628f55a4df523b3ef5f80a4506112ce57565b6339e3563760e11b5f525f60045260245ffd5b5f82815260046020526040902080546001600160a01b0319169055825f52600360205260405f205f19815401905561126c565b805f52600860205260ff60405f205416156112485760405162461bcd60e51b815260206004820152601b60248201527f536f756c626f756e643a206e6f6e2d7472616e7366657261626c6500000000006044820152606490fd5b506001611243565b6006546001600160a01b0316330361138a57565b63118cdaa760e01b5f523360045260245ffdfea2646970667358221220f9e620c5ad825f8e30dcb88db9e70521250db7f1e9e2c8029bfffd6e7b3fa78764736f6c634300081e0033",
  "linkReferences": {},
  "deployedLinkReferences": {}
}