{
  "_format": "hh-sol-artifact-1",
  "contractName": "HydraMarketplace",
  "sourceName": "contracts/modules/nftMarketplace/HydraMarketplace.sol",
  "abi": [
    {
      "inputs": [
        {
          "internalType": "contract IERC20",
          "name": "_tokenA",
          "type": "address"
        },
        {
          "internalType": "contract IERC20",
          "name": "_tokenB",
          "type": "address"
        },
        {
          "internalType": "contract HydraNFT",
          "name": "_nft",
          "type": "address"
        },
        {
          "internalType": "contract PointsTracker",
          "name": "_pointsTracker",
          "type": "address"
        },
        {
          "internalType": "address",
          "name": "_treasury",
          "type": "address"
        },
        {
          "internalType": "address",
          "name": "_owner",
          "type": "address"
        }
      ],
      "stateMutability": "nonpayable",
      "type": "constructor"
    },
    {
      "inputs": [],
      "name": "EnforcedPause",
      "type": "error"
    },
    {
      "inputs": [],
      "name": "ExpectedPause",
      "type": "error"
    },
    {
      "inputs": [
        {
          "internalType": "address",
          "name": "owner",
          "type": "address"
        }
      ],
      "name": "OwnableInvalidOwner",
      "type": "error"
    },
    {
      "inputs": [
        {
          "internalType": "address",
          "name": "account",
          "type": "address"
        }
      ],
      "name": "OwnableUnauthorizedAccount",
      "type": "error"
    },
    {
      "inputs": [],
      "name": "ReentrancyGuardReentrantCall",
      "type": "error"
    },
    {
      "anonymous": false,
      "inputs": [
        {
          "indexed": true,
          "internalType": "address",
          "name": "user",
          "type": "address"
        },
        {
          "indexed": false,
          "internalType": "uint8",
          "name": "tier",
          "type": "uint8"
        }
      ],
      "name": "AchievementChecked",
      "type": "event"
    },
    {
      "anonymous": false,
      "inputs": [
        {
          "indexed": true,
          "internalType": "uint256",
          "name": "listingId",
          "type": "uint256"
        },
        {
          "indexed": false,
          "internalType": "uint256",
          "name": "fee",
          "type": "uint256"
        }
      ],
      "name": "Featured",
      "type": "event"
    },
    {
      "anonymous": false,
      "inputs": [
        {
          "indexed": true,
          "internalType": "uint256",
          "name": "listingId",
          "type": "uint256"
        },
        {
          "indexed": true,
          "internalType": "address",
          "name": "seller",
          "type": "address"
        },
        {
          "indexed": true,
          "internalType": "uint256",
          "name": "tokenId",
          "type": "uint256"
        },
        {
          "indexed": false,
          "internalType": "uint256",
          "name": "price",
          "type": "uint256"
        }
      ],
      "name": "Listed",
      "type": "event"
    },
    {
      "anonymous": false,
      "inputs": [
        {
          "indexed": true,
          "internalType": "uint256",
          "name": "listingId",
          "type": "uint256"
        }
      ],
      "name": "ListingCancelled",
      "type": "event"
    },
    {
      "anonymous": false,
      "inputs": [
        {
          "indexed": true,
          "internalType": "address",
          "name": "previousOwner",
          "type": "address"
        },
        {
          "indexed": true,
          "internalType": "address",
          "name": "newOwner",
          "type": "address"
        }
      ],
      "name": "OwnershipTransferred",
      "type": "event"
    },
    {
      "anonymous": false,
      "inputs": [
        {
          "indexed": false,
          "internalType": "address",
          "name": "account",
          "type": "address"
        }
      ],
      "name": "Paused",
      "type": "event"
    },
    {
      "anonymous": false,
      "inputs": [
        {
          "indexed": true,
          "internalType": "uint256",
          "name": "listingId",
          "type": "uint256"
        },
        {
          "indexed": true,
          "internalType": "address",
          "name": "buyer",
          "type": "address"
        },
        {
          "indexed": false,
          "internalType": "uint256",
          "name": "price",
          "type": "uint256"
        },
        {
          "indexed": false,
          "internalType": "uint256",
          "name": "fee",
          "type": "uint256"
        }
      ],
      "name": "Sold",
      "type": "event"
    },
    {
      "anonymous": false,
      "inputs": [
        {
          "indexed": true,
          "internalType": "address",
          "name": "treasury",
          "type": "address"
        }
      ],
      "name": "TreasuryUpdated",
      "type": "event"
    },
    {
      "anonymous": false,
      "inputs": [
        {
          "indexed": false,
          "internalType": "address",
          "name": "account",
          "type": "address"
        }
      ],
      "name": "Unpaused",
      "type": "event"
    },
    {
      "inputs": [
        {
          "internalType": "uint256",
          "name": "listingId",
          "type": "uint256"
        }
      ],
      "name": "buyNFT",
      "outputs": [],
      "stateMutability": "nonpayable",
      "type": "function"
    },
    {
      "inputs": [
        {
          "internalType": "uint256",
          "name": "listingId",
          "type": "uint256"
        }
      ],
      "name": "cancelListing",
      "outputs": [],
      "stateMutability": "nonpayable",
      "type": "function"
    },
    {
      "inputs": [
        {
          "internalType": "address",
          "name": "user",
          "type": "address"
        }
      ],
      "name": "checkAndMintAchievement",
      "outputs": [],
      "stateMutability": "nonpayable",
      "type": "function"
    },
    {
      "inputs": [
        {
          "internalType": "uint256",
          "name": "listingId",
          "type": "uint256"
        }
      ],
      "name": "featureListing",
      "outputs": [],
      "stateMutability": "nonpayable",
      "type": "function"
    },
    {
      "inputs": [],
      "name": "featureListingTokenBFee",
      "outputs": [
        {
          "internalType": "uint256",
          "name": "",
          "type": "uint256"
        }
      ],
      "stateMutability": "view",
      "type": "function"
    },
    {
      "inputs": [
        {
          "internalType": "uint256",
          "name": "listingId",
          "type": "uint256"
        }
      ],
      "name": "getListing",
      "outputs": [
        {
          "components": [
            {
              "internalType": "address",
              "name": "seller",
              "type": "address"
            },
            {
              "internalType": "uint256",
              "name": "tokenId",
              "type": "uint256"
            },
            {
              "internalType": "uint256",
              "name": "priceTokenA",
              "type": "uint256"
            },
            {
              "internalType": "bool",
              "name": "featured",
              "type": "bool"
            },
            {
              "internalType": "bool",
              "name": "active",
              "type": "bool"
            }
          ],
          "internalType": "struct HydraMarketplace.Listing",
          "name": "",
          "type": "tuple"
        }
      ],
      "stateMutability": "view",
      "type": "function"
    },
    {
      "inputs": [
        {
          "internalType": "address",
          "name": "",
          "type": "address"
        }
      ],
      "name": "highestMintedTier",
      "outputs": [
        {
          "internalType": "uint8",
          "name": "",
          "type": "uint8"
        }
      ],
      "stateMutability": "view",
      "type": "function"
    },
    {
      "inputs": [
        {
          "internalType": "uint256",
          "name": "tokenId",
          "type": "uint256"
        },
        {
          "internalType": "uint256",
          "name": "priceTokenA",
          "type": "uint256"
        }
      ],
      "name": "listNFT",
      "outputs": [
        {
          "internalType": "uint256",
          "name": "listingId",
          "type": "uint256"
        }
      ],
      "stateMutability": "nonpayable",
      "type": "function"
    },
    {
      "inputs": [
        {
          "internalType": "uint256",
          "name": "",
          "type": "uint256"
        }
      ],
      "name": "listings",
      "outputs": [
        {
          "internalType": "address",
          "name": "seller",
          "type": "address"
        },
        {
          "internalType": "uint256",
          "name": "tokenId",
          "type": "uint256"
        },
        {
          "internalType": "uint256",
          "name": "priceTokenA",
          "type": "uint256"
        },
        {
          "internalType": "bool",
          "name": "featured",
          "type": "bool"
        },
        {
          "internalType": "bool",
          "name": "active",
          "type": "bool"
        }
      ],
      "stateMutability": "view",
      "type": "function"
    },
    {
      "inputs": [],
      "name": "nextListingId",
      "outputs": [
        {
          "internalType": "uint256",
          "name": "",
          "type": "uint256"
        }
      ],
      "stateMutability": "view",
      "type": "function"
    },
    {
      "inputs": [],
      "name": "nft",
      "outputs": [
        {
          "internalType": "contract HydraNFT",
          "name": "",
          "type": "address"
        }
      ],
      "stateMutability": "view",
      "type": "function"
    },
    {
      "inputs": [],
      "name": "owner",
      "outputs": [
        {
          "internalType": "address",
          "name": "",
          "type": "address"
        }
      ],
      "stateMutability": "view",
      "type": "function"
    },
    {
      "inputs": [],
      "name": "pause",
      "outputs": [],
      "stateMutability": "nonpayable",
      "type": "function"
    },
    {
      "inputs": [],
      "name": "paused",
      "outputs": [
        {
          "internalType": "bool",
          "name": "",
          "type": "bool"
        }
      ],
      "stateMutability": "view",
      "type": "function"
    },
    {
      "inputs": [],
      "name": "pointsTracker",
      "outputs": [
        {
          "internalType": "contract PointsTracker",
          "name": "",
          "type": "address"
        }
      ],
      "stateMutability": "view",
      "type": "function"
    },
    {
      "inputs": [],
      "name": "renounceOwnership",
      "outputs": [],
      "stateMutability": "nonpayable",
      "type": "function"
    },
    {
      "inputs": [
        {
          "internalType": "uint256",
          "name": "_fee",
          "type": "uint256"
        }
      ],
      "name": "setFeatureListingFee",
      "outputs": [],
      "stateMutability": "nonpayable",
      "type": "function"
    },
    {
      "inputs": [
        {
          "internalType": "address",
          "name": "_treasury",
          "type": "address"
        }
      ],
      "name": "setTreasury",
      "outputs": [],
      "stateMutability": "nonpayable",
      "type": "function"
    },
    {
      "inputs": [],
      "name": "tokenA",
      "outputs": [
        {
          "internalType": "contract IERC20",
          "name": "",
          "type": "address"
        }
      ],
      "stateMutability": "view",
      "type": "function"
    },
    {
      "inputs": [],
      "name": "tokenB",
      "outputs": [
        {
          "internalType": "contract IERC20",
          "name": "",
          "type": "address"
        }
      ],
      "stateMutability": "view",
      "type": "function"
    },
    {
      "inputs": [
        {
          "internalType": "address",
          "name": "newOwner",
          "type": "address"
        }
      ],
      "name": "transferOwnership",
      "outputs": [],
      "stateMutability": "nonpayable",
      "type": "function"
    },
    {
      "inputs": [],
      "name": "treasury",
      "outputs": [
        {
          "internalType": "address",
          "name": "",
          "type": "address"
        }
      ],
      "stateMutability": "view",
      "type": "function"
    },
    {
      "inputs": [],
      "name": "unpause",
      "outputs": [],
      "stateMutability": "nonpayable",
      "type": "function"
    }
  ],
  "bytecode": "0x610100346101be57601f61167b38819003918201601f19168301916001600160401b038311848410176101c25780849260c0946040528339810103126101be57610048816101d6565b90610055602082016101d6565b60408201516001600160a01b03811681036101be576060830151916001600160a01b03831683036101be5761008c608085016101d6565b936001600160a01b03906100a29060a0016101d6565b169485156101ab575f80546001600160a01b031981168817825560405197916001600160a01b03909116907f8be0079c531659141344cd1fd0a4f28419497f9722a3daafe3b4186f6b6457e09080a360017f9b779b17422d0df92223018b32b4d1fa46e071723d6817e2486d003becc55f0055678ac7230489e80000600255600160035560805260a05260c05260e05260018060a01b031660018060a01b0319600154161760015561149090816101eb8239608051818181610afb0152611118015260a0518181816102ba0152610998015260c05181818161056101528181610bf201528181610da801528181610f1401526112fc015260e051818181610e5b015261129a0152f35b631e4fbdf760e01b5f525f60045260245ffd5b5f80fd5b634e487b7160e01b5f52604160045260245ffd5b51906001600160a01b03821682036101be5756fe6080806040526004361015610012575f80fd5b5f905f3560e01c9081630fc63d101461110657508063107a274a1461104857806323c670ed14611027578063305a67a814610e8a578063398472f214610e455780633f4ba83a14610dd757806347ccca0214610d9257806351ed8288146109ec5780635c975abb146109c75780635f64b55b1461098257806361d027b314610959578063715018a6146108ff5780638456cb591461089e5780638da5cb5b1461087757806394383f141461051d5780639474c980146104ff578063a927ad01146104b5578063aaccf1ec14610497578063abc4a01414610457578063de74e57b146103f1578063e37c692314610211578063f0f44260146101a95763f2fde38b1461011b575f80fd5b346101a65760203660031901126101a6576004356001600160a01b038116908190036101a4576101496111f2565b80156101905781546001600160a01b03198116821783556001600160a01b03167f8be0079c531659141344cd1fd0a4f28419497f9722a3daafe3b4186f6b6457e08380a380f35b631e4fbdf760e01b82526004829052602482fd5b505b80fd5b50346101a65760203660031901126101a6576004356001600160a01b038116908190036101a4576101d86111f2565b600180546001600160a01b031916821790557f7dae230f18360d76a040c81f050aa14eb9d6dc7901b20fc5d855e2a20fe814d18280a280f35b50346101a65760203660031901126101a65760043561022e611218565b808252600460205261024c60ff600360408520015460081c16611199565b808252600460205260408220546001600160a01b031633036103bb57808252600460205260ff600360408420015416610383576001546002546040516323b872dd60e01b81523360048201526001600160a01b039092166024830152604482015260208180606481010381867f00000000000000000000000000000000000000000000000000000000000000006001600160a01b03165af180156103785761034b575b50808252600460205260036040832001600160ff198254161790557f5f6856ffc2f9fb9448657a480bce726ee79bf6af35b32d839926cd17c00262b46020600254604051908152a260015f51602061143b5f395f51905f525580f35b61036c9060203d602011610371575b6103648183611177565b8101906111da565b6102ef565b503d61035a565b6040513d85823e3d90fd5b60405162461bcd60e51b815260206004820152601060248201526f105b1c9958591e481999585d1d5c995960821b6044820152606490fd5b60405162461bcd60e51b815260206004820152600e60248201526d2737ba103a34329039b2b63632b960911b6044820152606490fd5b50346101a65760203660031901126101a657604060a091600435815260046020522060ff600180841b03825416916001810154906003600282015491015491604051948552602085015260408401528181161515606084015260081c1615156080820152f35b50346101a65760203660031901126101a6576004356001600160a01b038116908190036101a45760408260ff926020945260058452205416604051908152f35b50346101a657806003193601126101a6576020600354604051908152f35b50346101a65760203660031901126101a6576004356001600160a01b03811681036101a4576104eb906104e6611218565b61126d565b60015f51602061143b5f395f51905f525580f35b50346101a657806003193601126101a6576020600254604051908152f35b50346101a65760403660031901126101a65760243560043561053d611218565b610545611250565b8115610832576040516331a9108f60e11b8152600481018290527f00000000000000000000000000000000000000000000000000000000000000006001600160a01b031690602081602481855afa9081156107ac5785916107ec575b50336001600160a01b03909116036107b757604051630911ec4760e41b815260048101839052602081602481855afa9081156107ac57859161078d575b50610748578084913b156101a4576040516323b872dd60e01b8152336004820152306024820152604481018490529082908290606490829084905af1801561073d57610724575b5050600354915f198314610710576001830160035560405160209461064982611147565b33825260038683019285845260408101858152606082019484865260406080840195600187528a815260048c52209260018060a01b039051166bffffffffffffffffffffffff60a01b845416178355516001830155516002820155019151151560ff8019845416911617825551151561ff0082549160081b169061ff001916179055604051908152827f98868c46d49b200d82c273c9f28d73265826ca6567690262736450563dfff64c853393a460015f51602061143b5f395f51905f5255604051908152f35b634e487b7160e01b84526011600452602484fd5b8161072e91611177565b61073957825f610625565b8280fd5b6040513d84823e3d90fd5b60405162461bcd60e51b815260206004820152601960248201527f43616e6e6f74206c69737420736f756c626f756e64204e4654000000000000006044820152606490fd5b6107a6915060203d602011610371576103648183611177565b5f6105de565b6040513d87823e3d90fd5b60405162461bcd60e51b815260206004820152600d60248201526c2737ba103a34329037bbb732b960991b6044820152606490fd5b90506020813d60201161082a575b8161080760209383611177565b8101031261082657516001600160a01b0381168103610826575f6105a1565b8480fd5b3d91506107fa565b60405162461bcd60e51b815260206004820152601c60248201527f5072696365206d7573742062652067726561746572207468616e2030000000006044820152606490fd5b50346101a657806003193601126101a657546040516001600160a01b039091168152602090f35b50346101a657806003193601126101a6576108b76111f2565b6108bf611250565b805460ff60a01b1916600160a01b1781556040513381527f62e78cea01bee320cd4e420270b5ea74000d11b0c9f74754ebdbfc544b05a25890602090a180f35b50346101a657806003193601126101a6576109186111f2565b80546001600160a01b03198116825581906001600160a01b03167f8be0079c531659141344cd1fd0a4f28419497f9722a3daafe3b4186f6b6457e08280a380f35b50346101a657806003193601126101a6576001546040516001600160a01b039091168152602090f35b50346101a657806003193601126101a6576040517f00000000000000000000000000000000000000000000000000000000000000006001600160a01b03168152602090f35b50346101a657806003193601126101a65760ff6020915460a01c166040519015158152f35b50346101a65760203660031901126101a657600435610a09611218565b610a11611250565b8082526004602052610a2f60ff600360408520015460081c16611199565b808252600460205260408220546001600160a01b03163314610d545780825260046020526003604083200161ff00198154169055808252600460205260ff6003604084200154165f14610d4d5760965b81835260046020526002604084200154818102918183041490151715610d395761271090049080835260046020526002604084200154828103908111610710578184526004602081815260408087206002015490516323b872dd60e01b8152339381019390935230602484015260448301526001600160a01b037f00000000000000000000000000000000000000000000000000000000000000001692908260648189875af1908115610d2e57610b7992602092610d13575b508487526004808352604080892054905163a9059cbb60e01b81526001600160a01b0390911691810191909152602481019190915291829081906044820190565b038188865af180156107ac57610bce926020928692610cf8575b5060015460405163a9059cbb60e01b81526001600160a01b039091166004820152602481019290925290928391908290889082906044820190565b03925af18015610ced57610cd0575b508083526004602052604083206001015483907f00000000000000000000000000000000000000000000000000000000000000006001600160a01b0316803b15610739576040516323b872dd60e01b8152306004820152336024820152604481019290925282908290606490829084905af1801561073d57610cbb575b5050610c653361126d565b808352600460205260026040842001549160405192835260208301527fcd1c39d27a443bebce7f2cf1cb49519e7586ec24d1a7a7c9fcc00f57cd8efbfb60403393a360015f51602061143b5f395f51905f525580f35b81610cc591611177565b61073957825f610c5a565b610ce89060203d602011610371576103648183611177565b610bdd565b6040513d86823e3d90fd5b610d0e90843d8611610371576103648183611177565b610b93565b610d2990833d8511610371576103648183611177565b610b38565b6040513d88823e3d90fd5b634e487b7160e01b83526011600452602483fd5b60fa610a7f565b60405162461bcd60e51b815260206004820152601660248201527543616e6e6f7420627579206f776e206c697374696e6760501b6044820152606490fd5b50346101a657806003193601126101a6576040517f00000000000000000000000000000000000000000000000000000000000000006001600160a01b03168152602090f35b50346101a657806003193601126101a657610df06111f2565b805460ff8160a01c1615610e365760ff60a01b191681556040513381527f5db9ee0a495bf2e6ff9c91a7834c1ba4fdd244a5e8aa4e537bd38aeae4b073aa90602090a180f35b638dfc202b60e01b8252600482fd5b50346101a657806003193601126101a6576040517f00000000000000000000000000000000000000000000000000000000000000006001600160a01b03168152602090f35b5034610fda576020366003190112610fda57600435610ea7611218565b805f526004602052610ec560ff600360405f20015460081c16611199565b805f52600460205260018060a01b0360405f20541633148015611014575b15610fde575f81815260046020526040902060038101805461ff001916905580546001909101546001600160a01b037f00000000000000000000000000000000000000000000000000000000000000008116921690823b15610fda576040516323b872dd60e01b81523060048201526001600160a01b039290921660248301526044820152905f908290606490829084905af18015610fcf57610fba575b507f411aee90354c51b1b04cd563fcab2617142a9d50da19232d888547c8a1b7fd8a8280a260015f51602061143b5f395f51905f525580f35b610fc79192505f90611177565b5f905f610f81565b6040513d5f823e3d90fd5b5f80fd5b60405162461bcd60e51b815260206004820152600e60248201526d139bdd08185d5d1a1bdc9a5cd95960921b6044820152606490fd5b505f546001600160a01b03163314610ee3565b34610fda576020366003190112610fda576110406111f2565b600435600255005b34610fda576020366003190112610fda575f608060405161106881611147565b82815282602082015282604082015282606082015201526004355f52600460205260a060405f206040519061109c82611147565b600180841b03815416918281526001820154916020820192835260036002820154916040840192835201549260ff6080606085019482871615158652019460081c161515845260405194855251602085015251604084015251151560608301525115156080820152f35b34610fda575f366003190112610fda577f00000000000000000000000000000000000000000000000000000000000000006001600160a01b03168152602090f35b60a0810190811067ffffffffffffffff82111761116357604052565b634e487b7160e01b5f52604160045260245ffd5b90601f8019910116810190811067ffffffffffffffff82111761116357604052565b156111a057565b60405162461bcd60e51b81526020600482015260126024820152714c697374696e67206e6f742061637469766560701b6044820152606490fd5b90816020910312610fda57518015158103610fda5790565b5f546001600160a01b0316330361120557565b63118cdaa760e01b5f523360045260245ffd5b60025f51602061143b5f395f51905f5254146112415760025f51602061143b5f395f51905f5255565b633ee5aeb560e01b5f5260045ffd5b60ff5f5460a01c1661125e57565b63d93c066560e01b5f5260045ffd5b6040516333f3f14f60e21b81526001600160a01b03918216600482018190529291602090829060249082907f0000000000000000000000000000000000000000000000000000000000000000165afa908115610fcf575f916113fe575b50825f52600560205260ff8060405f2054169116908082116112ed575b50509050565b60010160ff81116113735791927f00000000000000000000000000000000000000000000000000000000000000006001600160a01b0316925b60ff81168381116113b2576040519063397a5b7760e01b825283600483015260248201526020816044815f895af18015610fcf57611387575b5060ff1660ff811461137357600101611326565b634e487b7160e01b5f52601160045260245ffd5b602090813d81116113ab575b61139d8183611177565b81010312610fda575f61135f565b503d611393565b5050915060207f40efaa5971ec9c4489abbff98e59018189b897fb3f9a15d906b9c2eea534550191835f526005825260405f208160ff19825416179055604051908152a2805f806112e7565b90506020813d602011611432575b8161141960209383611177565b81010312610fda575160ff81168103610fda575f6112ca565b3d915061140c56fe9b779b17422d0df92223018b32b4d1fa46e071723d6817e2486d003becc55f00a264697066735822122035a2f1a573e35f3308582b2acf4c18e59e3b1a917341e277065394147a40055164736f6c634300081e0033",
  "linkReferences": {},
  "deployedLinkReferences": {}
}